{
	"contracts/l3_call.sol": {
		"ContractB": {
			"abi": [
				{
					"inputs": [
						{
							"internalType": "address",
							"name": "other_contract",
							"type": "address"
						}
					],
					"stateMutability": "nonpayable",
					"type": "constructor"
				},
				{
					"inputs": [],
					"name": "callPayable",
					"outputs": [
						{
							"internalType": "string",
							"name": "",
							"type": "string"
						}
					],
					"stateMutability": "payable",
					"type": "function"
				},
				{
					"inputs": [
						{
							"internalType": "uint256",
							"name": "n_value",
							"type": "uint256"
						}
					],
					"name": "callSetValue",
					"outputs": [
						{
							"internalType": "uint256",
							"name": "",
							"type": "uint256"
						}
					],
					"stateMutability": "nonpayable",
					"type": "function"
				},
				{
					"inputs": [],
					"name": "contract_a",
					"outputs": [
						{
							"internalType": "address",
							"name": "",
							"type": "address"
						}
					],
					"stateMutability": "view",
					"type": "function"
				},
				{
					"inputs": [
						{
							"internalType": "uint256",
							"name": "n_value",
							"type": "uint256"
						}
					],
					"name": "delegateSetValue",
					"outputs": [
						{
							"internalType": "uint256",
							"name": "",
							"type": "uint256"
						}
					],
					"stateMutability": "nonpayable",
					"type": "function"
				},
				{
					"inputs": [
						{
							"internalType": "uint256",
							"name": "n_value",
							"type": "uint256"
						}
					],
					"name": "interface_call",
					"outputs": [
						{
							"internalType": "uint256",
							"name": "",
							"type": "uint256"
						}
					],
					"stateMutability": "nonpayable",
					"type": "function"
				},
				{
					"inputs": [],
					"name": "only_owner",
					"outputs": [
						{
							"internalType": "string",
							"name": "",
							"type": "string"
						}
					],
					"stateMutability": "view",
					"type": "function"
				},
				{
					"inputs": [],
					"name": "payable_interface_call",
					"outputs": [
						{
							"internalType": "string",
							"name": "",
							"type": "string"
						}
					],
					"stateMutability": "payable",
					"type": "function"
				},
				{
					"inputs": [],
					"name": "static_call",
					"outputs": [
						{
							"internalType": "uint256",
							"name": "",
							"type": "uint256"
						}
					],
					"stateMutability": "view",
					"type": "function"
				},
				{
					"inputs": [],
					"name": "value",
					"outputs": [
						{
							"internalType": "uint256",
							"name": "",
							"type": "uint256"
						}
					],
					"stateMutability": "view",
					"type": "function"
				}
			],
			"devdoc": {
				"kind": "dev",
				"methods": {},
				"version": 1
			},
			"evm": {
				"assembly": "    /* \"contracts/l3_call.sol\":927:3533  contract ContractB{... */\n  mstore(0x40, 0x80)\n    /* \"contracts/l3_call.sol\":1154:1272  constructor(address other_contract){... */\n  callvalue\n  dup1\n  iszero\n  tag_1\n  jumpi\n  revert(0x00, 0x00)\ntag_1:\n  pop\n  mload(0x40)\n  sub(codesize, bytecodeSize)\n  dup1\n  bytecodeSize\n  dup4\n  codecopy\n  dup2\n  dup2\n  add\n  0x40\n  mstore\n  dup2\n  add\n  swap1\n  tag_2\n  swap2\n  swap1\n  tag_3\n  jump\t// in\ntag_2:\n    /* \"contracts/l3_call.sol\":1213:1227  other_contract */\n  dup1\n    /* \"contracts/l3_call.sol\":1200:1210  contract_a */\n  0x01\n  0x00\n    /* \"contracts/l3_call.sol\":1200:1227  contract_a = other_contract */\n  0x0100\n  exp\n  dup2\n  sload\n  dup2\n  0xffffffffffffffffffffffffffffffffffffffff\n  mul\n  not\n  and\n  swap1\n  dup4\n  0xffffffffffffffffffffffffffffffffffffffff\n  and\n  mul\n  or\n  swap1\n  sstore\n  pop\n    /* \"contracts/l3_call.sol\":1246:1256  msg.sender */\n  caller\n    /* \"contracts/l3_call.sol\":1238:1243  owner */\n  0x02\n  0x00\n    /* \"contracts/l3_call.sol\":1238:1256  owner = msg.sender */\n  0x0100\n  exp\n  dup2\n  sload\n  dup2\n  0xffffffffffffffffffffffffffffffffffffffff\n  mul\n  not\n  and\n  swap1\n  dup4\n  0xffffffffffffffffffffffffffffffffffffffff\n  and\n  mul\n  or\n  swap1\n  sstore\n  pop\n    /* \"contracts/l3_call.sol\":1154:1272  constructor(address other_contract){... */\n  pop\n    /* \"contracts/l3_call.sol\":927:3533  contract ContractB{... */\n  jump(tag_6)\n    /* \"#utility.yul\":88:205   */\ntag_8:\n    /* \"#utility.yul\":197:198   */\n  0x00\n    /* \"#utility.yul\":194:195   */\n  0x00\n    /* \"#utility.yul\":187:199   */\n  revert\n    /* \"#utility.yul\":334:460   */\ntag_10:\n    /* \"#utility.yul\":371:378   */\n  0x00\n    /* \"#utility.yul\":411:453   */\n  0xffffffffffffffffffffffffffffffffffffffff\n    /* \"#utility.yul\":404:409   */\n  dup3\n    /* \"#utility.yul\":400:454   */\n  and\n    /* \"#utility.yul\":389:454   */\n  swap1\n  pop\n    /* \"#utility.yul\":334:460   */\n  swap2\n  swap1\n  pop\n  jump\t// out\n    /* \"#utility.yul\":466:562   */\ntag_11:\n    /* \"#utility.yul\":503:510   */\n  0x00\n    /* \"#utility.yul\":532:556   */\n  tag_20\n    /* \"#utility.yul\":550:555   */\n  dup3\n    /* \"#utility.yul\":532:556   */\n  tag_10\n  jump\t// in\ntag_20:\n    /* \"#utility.yul\":521:556   */\n  swap1\n  pop\n    /* \"#utility.yul\":466:562   */\n  swap2\n  swap1\n  pop\n  jump\t// out\n    /* \"#utility.yul\":568:690   */\ntag_12:\n    /* \"#utility.yul\":641:665   */\n  tag_22\n    /* \"#utility.yul\":659:664   */\n  dup2\n    /* \"#utility.yul\":641:665   */\n  tag_11\n  jump\t// in\ntag_22:\n    /* \"#utility.yul\":634:639   */\n  dup2\n    /* \"#utility.yul\":631:666   */\n  eq\n    /* \"#utility.yul\":621:684   */\n  tag_23\n  jumpi\n    /* \"#utility.yul\":680:681   */\n  0x00\n    /* \"#utility.yul\":677:678   */\n  0x00\n    /* \"#utility.yul\":670:682   */\n  revert\n    /* \"#utility.yul\":621:684   */\ntag_23:\n    /* \"#utility.yul\":568:690   */\n  pop\n  jump\t// out\n    /* \"#utility.yul\":696:839   */\ntag_13:\n    /* \"#utility.yul\":753:758   */\n  0x00\n    /* \"#utility.yul\":784:790   */\n  dup2\n    /* \"#utility.yul\":778:791   */\n  mload\n    /* \"#utility.yul\":769:791   */\n  swap1\n  pop\n    /* \"#utility.yul\":800:833   */\n  tag_25\n    /* \"#utility.yul\":827:832   */\n  dup2\n    /* \"#utility.yul\":800:833   */\n  tag_12\n  jump\t// in\ntag_25:\n    /* \"#utility.yul\":696:839   */\n  swap3\n  swap2\n  pop\n  pop\n  jump\t// out\n    /* \"#utility.yul\":845:1196   */\ntag_3:\n    /* \"#utility.yul\":915:921   */\n  0x00\n    /* \"#utility.yul\":964:966   */\n  0x20\n    /* \"#utility.yul\":952:961   */\n  dup3\n    /* \"#utility.yul\":943:950   */\n  dup5\n    /* \"#utility.yul\":939:962   */\n  sub\n    /* \"#utility.yul\":935:967   */\n  slt\n    /* \"#utility.yul\":932:1051   */\n  iszero\n  tag_27\n  jumpi\n    /* \"#utility.yul\":970:1049   */\n  tag_28\n  tag_8\n  jump\t// in\ntag_28:\n    /* \"#utility.yul\":932:1051   */\ntag_27:\n    /* \"#utility.yul\":1090:1091   */\n  0x00\n    /* \"#utility.yul\":1115:1179   */\n  tag_29\n    /* \"#utility.yul\":1171:1178   */\n  dup5\n    /* \"#utility.yul\":1162:1168   */\n  dup3\n    /* \"#utility.yul\":1151:1160   */\n  dup6\n    /* \"#utility.yul\":1147:1169   */\n  add\n    /* \"#utility.yul\":1115:1179   */\n  tag_13\n  jump\t// in\ntag_29:\n    /* \"#utility.yul\":1105:1179   */\n  swap2\n  pop\n    /* \"#utility.yul\":1061:1189   */\n  pop\n    /* \"#utility.yul\":845:1196   */\n  swap3\n  swap2\n  pop\n  pop\n  jump\t// out\n    /* \"contracts/l3_call.sol\":927:3533  contract ContractB{... */\ntag_6:\n  dataSize(sub_0)\n  dup1\n  dataOffset(sub_0)\n  0x00\n  codecopy\n  0x00\n  return\nstop\n\nsub_0: assembly {\n        /* \"contracts/l3_call.sol\":927:3533  contract ContractB{... */\n      mstore(0x40, 0x80)\n      jumpi(tag_1, lt(calldatasize, 0x04))\n      shr(0xe0, calldataload(0x00))\n      dup1\n      0xa89f407e\n      gt\n      tag_11\n      jumpi\n      dup1\n      0xa89f407e\n      eq\n      tag_6\n      jumpi\n      dup1\n      0xc88a1604\n      eq\n      tag_7\n      jumpi\n      dup1\n      0xf06d3289\n      eq\n      tag_8\n      jumpi\n      dup1\n      0xf3275fc9\n      eq\n      tag_9\n      jumpi\n      dup1\n      0xfa47b8a5\n      eq\n      tag_10\n      jumpi\n      jump(tag_1)\n    tag_11:\n      dup1\n      0x3fa4f245\n      eq\n      tag_2\n      jumpi\n      dup1\n      0x444fa747\n      eq\n      tag_3\n      jumpi\n      dup1\n      0x605b85ad\n      eq\n      tag_4\n      jumpi\n      dup1\n      0x700658b3\n      eq\n      tag_5\n      jumpi\n    tag_1:\n      revert(0x00, 0x00)\n        /* \"contracts/l3_call.sol\":952:969  uint public value */\n    tag_2:\n      callvalue\n      dup1\n      iszero\n      tag_12\n      jumpi\n      revert(0x00, 0x00)\n    tag_12:\n      pop\n      tag_13\n      tag_14\n      jump\t// in\n    tag_13:\n      mload(0x40)\n      tag_15\n      swap2\n      swap1\n      tag_16\n      jump\t// in\n    tag_15:\n      mload(0x40)\n      dup1\n      swap2\n      sub\n      swap1\n      return\n        /* \"contracts/l3_call.sol\":3209:3379  function interface_call(uint n_value) public returns(uint){... */\n    tag_3:\n      callvalue\n      dup1\n      iszero\n      tag_17\n      jumpi\n      revert(0x00, 0x00)\n    tag_17:\n      pop\n      tag_18\n      0x04\n      dup1\n      calldatasize\n      sub\n      dup2\n      add\n      swap1\n      tag_19\n      swap2\n      swap1\n      tag_20\n      jump\t// in\n    tag_19:\n      tag_21\n      jump\t// in\n    tag_18:\n      mload(0x40)\n      tag_22\n      swap2\n      swap1\n      tag_16\n      jump\t// in\n    tag_22:\n      mload(0x40)\n      dup1\n      swap2\n      sub\n      swap1\n      return\n        /* \"contracts/l3_call.sol\":981:1006  address public contract_a */\n    tag_4:\n      callvalue\n      dup1\n      iszero\n      tag_23\n      jumpi\n      revert(0x00, 0x00)\n    tag_23:\n      pop\n      tag_24\n      tag_25\n      jump\t// in\n    tag_24:\n      mload(0x40)\n      tag_26\n      swap2\n      swap1\n      tag_27\n      jump\t// in\n    tag_26:\n      mload(0x40)\n      dup1\n      swap2\n      sub\n      swap1\n      return\n        /* \"contracts/l3_call.sol\":2927:3197  function static_call() public view returns(uint){... */\n    tag_5:\n      callvalue\n      dup1\n      iszero\n      tag_28\n      jumpi\n      revert(0x00, 0x00)\n    tag_28:\n      pop\n      tag_29\n      tag_30\n      jump\t// in\n    tag_29:\n      mload(0x40)\n      tag_31\n      swap2\n      swap1\n      tag_16\n      jump\t// in\n    tag_31:\n      mload(0x40)\n      dup1\n      swap2\n      sub\n      swap1\n      return\n        /* \"contracts/l3_call.sol\":2282:2919  function delegateSetValue(uint n_value) public returns(uint){... */\n    tag_6:\n      callvalue\n      dup1\n      iszero\n      tag_32\n      jumpi\n      revert(0x00, 0x00)\n    tag_32:\n      pop\n      tag_33\n      0x04\n      dup1\n      calldatasize\n      sub\n      dup2\n      add\n      swap1\n      tag_34\n      swap2\n      swap1\n      tag_20\n      jump\t// in\n    tag_34:\n      tag_35\n      jump\t// in\n    tag_33:\n      mload(0x40)\n      tag_36\n      swap2\n      swap1\n      tag_16\n      jump\t// in\n    tag_36:\n      mload(0x40)\n      dup1\n      swap2\n      sub\n      swap1\n      return\n        /* \"contracts/l3_call.sol\":1280:1379  function only_owner() public isOwner view returns(string memory){... */\n    tag_7:\n      callvalue\n      dup1\n      iszero\n      tag_37\n      jumpi\n      revert(0x00, 0x00)\n    tag_37:\n      pop\n      tag_38\n      tag_39\n      jump\t// in\n    tag_38:\n      mload(0x40)\n      tag_40\n      swap2\n      swap1\n      tag_41\n      jump\t// in\n    tag_40:\n      mload(0x40)\n      dup1\n      swap2\n      sub\n      swap1\n      return\n        /* \"contracts/l3_call.sol\":3387:3530  function payable_interface_call() public payable returns(string memory){... */\n    tag_8:\n      tag_42\n      tag_43\n      jump\t// in\n    tag_42:\n      mload(0x40)\n      tag_44\n      swap2\n      swap1\n      tag_41\n      jump\t// in\n    tag_44:\n      mload(0x40)\n      dup1\n      swap2\n      sub\n      swap1\n      return\n        /* \"contracts/l3_call.sol\":1984:2274  function callPayable() public payable returns(string memory){... */\n    tag_9:\n      tag_45\n      tag_46\n      jump\t// in\n    tag_45:\n      mload(0x40)\n      tag_47\n      swap2\n      swap1\n      tag_41\n      jump\t// in\n    tag_47:\n      mload(0x40)\n      dup1\n      swap2\n      sub\n      swap1\n      return\n        /* \"contracts/l3_call.sol\":1387:1976  function callSetValue(uint n_value) public returns(uint){... */\n    tag_10:\n      callvalue\n      dup1\n      iszero\n      tag_48\n      jumpi\n      revert(0x00, 0x00)\n    tag_48:\n      pop\n      tag_49\n      0x04\n      dup1\n      calldatasize\n      sub\n      dup2\n      add\n      swap1\n      tag_50\n      swap2\n      swap1\n      tag_20\n      jump\t// in\n    tag_50:\n      tag_51\n      jump\t// in\n    tag_49:\n      mload(0x40)\n      tag_52\n      swap2\n      swap1\n      tag_16\n      jump\t// in\n    tag_52:\n      mload(0x40)\n      dup1\n      swap2\n      sub\n      swap1\n      return\n        /* \"contracts/l3_call.sol\":952:969  uint public value */\n    tag_14:\n      sload(0x00)\n      dup2\n      jump\t// out\n        /* \"contracts/l3_call.sol\":3209:3379  function interface_call(uint n_value) public returns(uint){... */\n    tag_21:\n        /* \"contracts/l3_call.sol\":3262:3266  uint */\n      0x00\n        /* \"contracts/l3_call.sol\":3289:3299  contract_a */\n      0x01\n      0x00\n      swap1\n      sload\n      swap1\n      0x0100\n      exp\n      swap1\n      div\n      0xffffffffffffffffffffffffffffffffffffffff\n      and\n        /* \"contracts/l3_call.sol\":3278:3310  IContractA(contract_a).set_value */\n      0xffffffffffffffffffffffffffffffffffffffff\n      and\n      0xb0f2b72a\n        /* \"contracts/l3_call.sol\":3311:3318  n_value */\n      dup4\n        /* \"contracts/l3_call.sol\":3278:3319  IContractA(contract_a).set_value(n_value) */\n      mload(0x40)\n      dup3\n      0xffffffff\n      and\n      0xe0\n      shl\n      dup2\n      mstore\n      0x04\n      add\n      tag_54\n      swap2\n      swap1\n      tag_16\n      jump\t// in\n    tag_54:\n      0x00\n      mload(0x40)\n      dup1\n      dup4\n      sub\n      dup2\n      0x00\n      dup8\n      dup1\n      extcodesize\n      iszero\n      dup1\n      iszero\n      tag_55\n      jumpi\n      revert(0x00, 0x00)\n    tag_55:\n      pop\n      gas\n      call\n      iszero\n      dup1\n      iszero\n      tag_57\n      jumpi\n      returndatacopy(0x00, 0x00, returndatasize)\n      revert(0x00, returndatasize)\n    tag_57:\n      pop\n      pop\n      pop\n      pop\n        /* \"contracts/l3_call.sol\":3348:3358  contract_a */\n      0x01\n      0x00\n      swap1\n      sload\n      swap1\n      0x0100\n      exp\n      swap1\n      div\n      0xffffffffffffffffffffffffffffffffffffffff\n      and\n        /* \"contracts/l3_call.sol\":3337:3369  IContractA(contract_a).get_value */\n      0xffffffffffffffffffffffffffffffffffffffff\n      and\n      0x33cf5080\n        /* \"contracts/l3_call.sol\":3337:3371  IContractA(contract_a).get_value() */\n      mload(0x40)\n      dup2\n      0xffffffff\n      and\n      0xe0\n      shl\n      dup2\n      mstore\n      0x04\n      add\n      0x20\n      mload(0x40)\n      dup1\n      dup4\n      sub\n      dup2\n      dup7\n      gas\n      staticcall\n      iszero\n      dup1\n      iszero\n      tag_59\n      jumpi\n      returndatacopy(0x00, 0x00, returndatasize)\n      revert(0x00, returndatasize)\n    tag_59:\n      pop\n      pop\n      pop\n      pop\n      mload(0x40)\n      returndatasize\n      not(0x1f)\n      0x1f\n      dup3\n      add\n      and\n      dup3\n      add\n      dup1\n      0x40\n      mstore\n      pop\n      dup2\n      add\n      swap1\n      tag_60\n      swap2\n      swap1\n      tag_61\n      jump\t// in\n    tag_60:\n        /* \"contracts/l3_call.sol\":3330:3371  return IContractA(contract_a).get_value() */\n      swap1\n      pop\n        /* \"contracts/l3_call.sol\":3209:3379  function interface_call(uint n_value) public returns(uint){... */\n      swap2\n      swap1\n      pop\n      jump\t// out\n        /* \"contracts/l3_call.sol\":981:1006  address public contract_a */\n    tag_25:\n      0x01\n      0x00\n      swap1\n      sload\n      swap1\n      0x0100\n      exp\n      swap1\n      div\n      0xffffffffffffffffffffffffffffffffffffffff\n      and\n      dup2\n      jump\t// out\n        /* \"contracts/l3_call.sol\":2927:3197  function static_call() public view returns(uint){... */\n    tag_30:\n        /* \"contracts/l3_call.sol\":2970:2974  uint */\n      0x00\n        /* \"contracts/l3_call.sol\":2987:2998  bool result */\n      0x00\n        /* \"contracts/l3_call.sol\":3000:3024  bytes memory return_data */\n      0x00\n        /* \"contracts/l3_call.sol\":3028:3038  contract_a */\n      0x01\n      0x00\n      swap1\n      sload\n      swap1\n      0x0100\n      exp\n      swap1\n      div\n      0xffffffffffffffffffffffffffffffffffffffff\n      and\n        /* \"contracts/l3_call.sol\":3028:3049  contract_a.staticcall */\n      0xffffffffffffffffffffffffffffffffffffffff\n      and\n        /* \"contracts/l3_call.sol\":3050:3088  abi.encodeWithSignature(\"get_value()\") */\n      add(0x24, mload(0x40))\n      mload(0x40)\n      0x20\n      dup2\n      dup4\n      sub\n      sub\n      dup2\n      mstore\n      swap1\n      0x40\n      mstore\n      and(not(0xffffffffffffffffffffffffffffffffffffffffffffffffffffffff), 0x33cf508000000000000000000000000000000000000000000000000000000000)\n      0x20\n      dup3\n      add\n      dup1\n      mload\n      0xffffffffffffffffffffffffffffffffffffffffffffffffffffffff\n      dup4\n      dup2\n      dup4\n      and\n      or\n      dup4\n      mstore\n      pop\n      pop\n      pop\n      pop\n        /* \"contracts/l3_call.sol\":3028:3089  contract_a.staticcall(abi.encodeWithSignature(\"get_value()\")) */\n      mload(0x40)\n      tag_63\n      swap2\n      swap1\n      tag_64\n      jump\t// in\n    tag_63:\n      0x00\n      mload(0x40)\n      dup1\n      dup4\n      sub\n      dup2\n      dup6\n      gas\n      staticcall\n      swap2\n      pop\n      pop\n      returndatasize\n      dup1\n      0x00\n      dup2\n      eq\n      tag_67\n      jumpi\n      mload(0x40)\n      swap2\n      pop\n      and(add(returndatasize, 0x3f), not(0x1f))\n      dup3\n      add\n      0x40\n      mstore\n      returndatasize\n      dup3\n      mstore\n      returndatasize\n      0x00\n      0x20\n      dup5\n      add\n      returndatacopy\n      jump(tag_66)\n    tag_67:\n      0x60\n      swap2\n      pop\n    tag_66:\n      pop\n        /* \"contracts/l3_call.sol\":2986:3089  (bool result, bytes memory return_data) = contract_a.staticcall(abi.encodeWithSignature(\"get_value()\")) */\n      swap2\n      pop\n      swap2\n      pop\n        /* \"contracts/l3_call.sol\":3108:3114  result */\n      dup2\n        /* \"contracts/l3_call.sol\":3100:3140  require(result,\"Contract calling error\") */\n      tag_68\n      jumpi\n      mload(0x40)\n      0x08c379a000000000000000000000000000000000000000000000000000000000\n      dup2\n      mstore\n      0x04\n      add\n      tag_69\n      swap1\n      tag_70\n      jump\t// in\n    tag_69:\n      mload(0x40)\n      dup1\n      swap2\n      sub\n      swap1\n      revert\n    tag_68:\n        /* \"contracts/l3_call.sol\":3169:3180  return_data */\n      dup1\n        /* \"contracts/l3_call.sol\":3158:3189  abi.decode(return_data, (uint)) */\n      dup1\n      0x20\n      add\n      swap1\n      mload\n      dup2\n      add\n      swap1\n      tag_71\n      swap2\n      swap1\n      tag_61\n      jump\t// in\n    tag_71:\n        /* \"contracts/l3_call.sol\":3151:3189  return abi.decode(return_data, (uint)) */\n      swap3\n      pop\n      pop\n      pop\n        /* \"contracts/l3_call.sol\":2927:3197  function static_call() public view returns(uint){... */\n      swap1\n      jump\t// out\n        /* \"contracts/l3_call.sol\":2282:2919  function delegateSetValue(uint n_value) public returns(uint){... */\n    tag_35:\n        /* \"contracts/l3_call.sol\":2337:2341  uint */\n      0x00\n        /* \"contracts/l3_call.sol\":2492:2503  bool result */\n      0x00\n        /* \"contracts/l3_call.sol\":2509:2519  contract_a */\n      0x01\n      0x00\n      swap1\n      sload\n      swap1\n      0x0100\n      exp\n      swap1\n      div\n      0xffffffffffffffffffffffffffffffffffffffff\n      and\n        /* \"contracts/l3_call.sol\":2509:2532  contract_a.delegatecall */\n      0xffffffffffffffffffffffffffffffffffffffff\n      and\n        /* \"contracts/l3_call.sol\":2579:2586  n_value */\n      dup4\n        /* \"contracts/l3_call.sol\":2533:2587  abi.encodeWithSignature(\"set_value(uint256)\", n_value) */\n      add(0x24, mload(0x40))\n      tag_73\n      swap2\n      swap1\n      tag_16\n      jump\t// in\n    tag_73:\n      mload(0x40)\n      0x20\n      dup2\n      dup4\n      sub\n      sub\n      dup2\n      mstore\n      swap1\n      0x40\n      mstore\n      and(not(0xffffffffffffffffffffffffffffffffffffffffffffffffffffffff), 0xb0f2b72a00000000000000000000000000000000000000000000000000000000)\n      0x20\n      dup3\n      add\n      dup1\n      mload\n      0xffffffffffffffffffffffffffffffffffffffffffffffffffffffff\n      dup4\n      dup2\n      dup4\n      and\n      or\n      dup4\n      mstore\n      pop\n      pop\n      pop\n      pop\n        /* \"contracts/l3_call.sol\":2509:2588  contract_a.delegatecall(abi.encodeWithSignature(\"set_value(uint256)\", n_value)) */\n      mload(0x40)\n      tag_74\n      swap2\n      swap1\n      tag_64\n      jump\t// in\n    tag_74:\n      0x00\n      mload(0x40)\n      dup1\n      dup4\n      sub\n      dup2\n      dup6\n      gas\n      delegatecall\n      swap2\n      pop\n      pop\n      returndatasize\n      dup1\n      0x00\n      dup2\n      eq\n      tag_77\n      jumpi\n      mload(0x40)\n      swap2\n      pop\n      and(add(returndatasize, 0x3f), not(0x1f))\n      dup3\n      add\n      0x40\n      mstore\n      returndatasize\n      dup3\n      mstore\n      returndatasize\n      0x00\n      0x20\n      dup5\n      add\n      returndatacopy\n      jump(tag_76)\n    tag_77:\n      0x60\n      swap2\n      pop\n    tag_76:\n      pop\n        /* \"contracts/l3_call.sol\":2491:2588  (bool result, ) = contract_a.delegatecall(abi.encodeWithSignature(\"set_value(uint256)\", n_value)) */\n      pop\n      swap1\n      pop\n        /* \"contracts/l3_call.sol\":2607:2613  result */\n      dup1\n        /* \"contracts/l3_call.sol\":2599:2651  require(result, \"Contract calling error: set_value\") */\n      tag_78\n      jumpi\n      mload(0x40)\n      0x08c379a000000000000000000000000000000000000000000000000000000000\n      dup2\n      mstore\n      0x04\n      add\n      tag_79\n      swap1\n      tag_80\n      jump\t// in\n    tag_79:\n      mload(0x40)\n      dup1\n      swap2\n      sub\n      swap1\n      revert\n    tag_78:\n        /* \"contracts/l3_call.sol\":2910:2911  1 */\n      0x01\n        /* \"contracts/l3_call.sol\":2903:2911  return 1 */\n      swap2\n      pop\n      pop\n        /* \"contracts/l3_call.sol\":2282:2919  function delegateSetValue(uint n_value) public returns(uint){... */\n      swap2\n      swap1\n      pop\n      jump\t// out\n        /* \"contracts/l3_call.sol\":1280:1379  function only_owner() public isOwner view returns(string memory){... */\n    tag_39:\n        /* \"contracts/l3_call.sol\":1330:1343  string memory */\n      0x60\n        /* \"contracts/l3_call.sol\":1100:1105  owner */\n      0x02\n      0x00\n      swap1\n      sload\n      swap1\n      0x0100\n      exp\n      swap1\n      div\n      0xffffffffffffffffffffffffffffffffffffffff\n      and\n        /* \"contracts/l3_call.sol\":1086:1105  msg.sender == owner */\n      0xffffffffffffffffffffffffffffffffffffffff\n      and\n        /* \"contracts/l3_call.sol\":1086:1096  msg.sender */\n      caller\n        /* \"contracts/l3_call.sol\":1086:1105  msg.sender == owner */\n      0xffffffffffffffffffffffffffffffffffffffff\n      and\n      eq\n        /* \"contracts/l3_call.sol\":1078:1126  require(msg.sender == owner, \"You're not owner\") */\n      tag_82\n      jumpi\n      mload(0x40)\n      0x08c379a000000000000000000000000000000000000000000000000000000000\n      dup2\n      mstore\n      0x04\n      add\n      tag_83\n      swap1\n      tag_84\n      jump\t// in\n    tag_83:\n      mload(0x40)\n      dup1\n      swap2\n      sub\n      swap1\n      revert\n    tag_82:\n        /* \"contracts/l3_call.sol\":1355:1371  return \"Success\" */\n      mload(0x40)\n      dup1\n      0x40\n      add\n      0x40\n      mstore\n      dup1\n      0x07\n      dup2\n      mstore\n      0x20\n      add\n      0x5375636365737300000000000000000000000000000000000000000000000000\n      dup2\n      mstore\n      pop\n      swap1\n      pop\n        /* \"contracts/l3_call.sol\":1280:1379  function only_owner() public isOwner view returns(string memory){... */\n      swap1\n      jump\t// out\n        /* \"contracts/l3_call.sol\":3387:3530  function payable_interface_call() public payable returns(string memory){... */\n    tag_43:\n        /* \"contracts/l3_call.sol\":3444:3457  string memory */\n      0x60\n        /* \"contracts/l3_call.sol\":3487:3497  contract_a */\n      0x01\n      0x00\n      swap1\n      sload\n      swap1\n      0x0100\n      exp\n      swap1\n      div\n      0xffffffffffffffffffffffffffffffffffffffff\n      and\n        /* \"contracts/l3_call.sol\":3476:3502  IContractA(contract_a).pay */\n      0xffffffffffffffffffffffffffffffffffffffff\n      and\n      0x1b9265b8\n        /* \"contracts/l3_call.sol\":3510:3519  msg.value */\n      callvalue\n        /* \"contracts/l3_call.sol\":3476:3522  IContractA(contract_a).pay{value: msg.value}() */\n      mload(0x40)\n      dup3\n      0xffffffff\n      and\n      0xe0\n      shl\n      dup2\n      mstore\n      0x04\n      add\n      0x00\n      mload(0x40)\n      dup1\n      dup4\n      sub\n      dup2\n      dup6\n      dup9\n      gas\n      call\n      iszero\n      dup1\n      iszero\n      tag_88\n      jumpi\n      returndatacopy(0x00, 0x00, returndatasize)\n      revert(0x00, returndatasize)\n    tag_88:\n      pop\n      pop\n      pop\n      pop\n      pop\n      mload(0x40)\n      returndatasize\n      0x00\n      dup3\n      returndatacopy\n      returndatasize\n      not(0x1f)\n      0x1f\n      dup3\n      add\n      and\n      dup3\n      add\n      dup1\n      0x40\n      mstore\n      pop\n      dup2\n      add\n      swap1\n      tag_89\n      swap2\n      swap1\n      tag_90\n      jump\t// in\n    tag_89:\n        /* \"contracts/l3_call.sol\":3469:3522  return IContractA(contract_a).pay{value: msg.value}() */\n      swap1\n      pop\n        /* \"contracts/l3_call.sol\":3387:3530  function payable_interface_call() public payable returns(string memory){... */\n      swap1\n      jump\t// out\n        /* \"contracts/l3_call.sol\":1984:2274  function callPayable() public payable returns(string memory){... */\n    tag_46:\n        /* \"contracts/l3_call.sol\":2030:2043  string memory */\n      0x60\n        /* \"contracts/l3_call.sol\":2056:2067  bool result */\n      0x00\n        /* \"contracts/l3_call.sol\":2069:2093  bytes memory return_data */\n      0x00\n        /* \"contracts/l3_call.sol\":2097:2107  contract_a */\n      0x01\n      0x00\n      swap1\n      sload\n      swap1\n      0x0100\n      exp\n      swap1\n      div\n      0xffffffffffffffffffffffffffffffffffffffff\n      and\n        /* \"contracts/l3_call.sol\":2097:2112  contract_a.call */\n      0xffffffffffffffffffffffffffffffffffffffff\n      and\n        /* \"contracts/l3_call.sol\":2120:2129  msg.value */\n      callvalue\n        /* \"contracts/l3_call.sol\":2131:2163  abi.encodeWithSignature(\"pay()\") */\n      add(0x24, mload(0x40))\n      mload(0x40)\n      0x20\n      dup2\n      dup4\n      sub\n      sub\n      dup2\n      mstore\n      swap1\n      0x40\n      mstore\n      and(not(0xffffffffffffffffffffffffffffffffffffffffffffffffffffffff), 0x1b9265b800000000000000000000000000000000000000000000000000000000)\n      0x20\n      dup3\n      add\n      dup1\n      mload\n      0xffffffffffffffffffffffffffffffffffffffffffffffffffffffff\n      dup4\n      dup2\n      dup4\n      and\n      or\n      dup4\n      mstore\n      pop\n      pop\n      pop\n      pop\n        /* \"contracts/l3_call.sol\":2097:2164  contract_a.call{value: msg.value}(abi.encodeWithSignature(\"pay()\")) */\n      mload(0x40)\n      tag_92\n      swap2\n      swap1\n      tag_64\n      jump\t// in\n    tag_92:\n      0x00\n      mload(0x40)\n      dup1\n      dup4\n      sub\n      dup2\n      dup6\n      dup8\n      gas\n      call\n      swap3\n      pop\n      pop\n      pop\n      returndatasize\n      dup1\n      0x00\n      dup2\n      eq\n      tag_95\n      jumpi\n      mload(0x40)\n      swap2\n      pop\n      and(add(returndatasize, 0x3f), not(0x1f))\n      dup3\n      add\n      0x40\n      mstore\n      returndatasize\n      dup3\n      mstore\n      returndatasize\n      0x00\n      0x20\n      dup5\n      add\n      returndatacopy\n      jump(tag_94)\n    tag_95:\n      0x60\n      swap2\n      pop\n    tag_94:\n      pop\n        /* \"contracts/l3_call.sol\":2055:2164  (bool result, bytes memory return_data) = contract_a.call{value: msg.value}(abi.encodeWithSignature(\"pay()\")) */\n      swap2\n      pop\n      swap2\n      pop\n        /* \"contracts/l3_call.sol\":2183:2189  result */\n      dup2\n        /* \"contracts/l3_call.sol\":2175:2215  require(result,\"Contract calling error\") */\n      tag_96\n      jumpi\n      mload(0x40)\n      0x08c379a000000000000000000000000000000000000000000000000000000000\n      dup2\n      mstore\n      0x04\n      add\n      tag_97\n      swap1\n      tag_70\n      jump\t// in\n    tag_97:\n      mload(0x40)\n      dup1\n      swap2\n      sub\n      swap1\n      revert\n    tag_96:\n        /* \"contracts/l3_call.sol\":2244:2255  return_data */\n      dup1\n        /* \"contracts/l3_call.sol\":2233:2266  abi.decode(return_data, (string)) */\n      dup1\n      0x20\n      add\n      swap1\n      mload\n      dup2\n      add\n      swap1\n      tag_98\n      swap2\n      swap1\n      tag_90\n      jump\t// in\n    tag_98:\n        /* \"contracts/l3_call.sol\":2226:2266  return abi.decode(return_data, (string)) */\n      swap3\n      pop\n      pop\n      pop\n        /* \"contracts/l3_call.sol\":1984:2274  function callPayable() public payable returns(string memory){... */\n      swap1\n      jump\t// out\n        /* \"contracts/l3_call.sol\":1387:1976  function callSetValue(uint n_value) public returns(uint){... */\n    tag_51:\n        /* \"contracts/l3_call.sol\":1438:1442  uint */\n      0x00\n        /* \"contracts/l3_call.sol\":1593:1604  bool result */\n      0x00\n        /* \"contracts/l3_call.sol\":1610:1620  contract_a */\n      0x01\n      0x00\n      swap1\n      sload\n      swap1\n      0x0100\n      exp\n      swap1\n      div\n      0xffffffffffffffffffffffffffffffffffffffff\n      and\n        /* \"contracts/l3_call.sol\":1610:1625  contract_a.call */\n      0xffffffffffffffffffffffffffffffffffffffff\n      and\n        /* \"contracts/l3_call.sol\":1672:1679  n_value */\n      dup4\n        /* \"contracts/l3_call.sol\":1626:1680  abi.encodeWithSignature(\"set_value(uint256)\", n_value) */\n      add(0x24, mload(0x40))\n      tag_100\n      swap2\n      swap1\n      tag_16\n      jump\t// in\n    tag_100:\n      mload(0x40)\n      0x20\n      dup2\n      dup4\n      sub\n      sub\n      dup2\n      mstore\n      swap1\n      0x40\n      mstore\n      and(not(0xffffffffffffffffffffffffffffffffffffffffffffffffffffffff), 0xb0f2b72a00000000000000000000000000000000000000000000000000000000)\n      0x20\n      dup3\n      add\n      dup1\n      mload\n      0xffffffffffffffffffffffffffffffffffffffffffffffffffffffff\n      dup4\n      dup2\n      dup4\n      and\n      or\n      dup4\n      mstore\n      pop\n      pop\n      pop\n      pop\n        /* \"contracts/l3_call.sol\":1610:1681  contract_a.call(abi.encodeWithSignature(\"set_value(uint256)\", n_value)) */\n      mload(0x40)\n      tag_101\n      swap2\n      swap1\n      tag_64\n      jump\t// in\n    tag_101:\n      0x00\n      mload(0x40)\n      dup1\n      dup4\n      sub\n      dup2\n      0x00\n      dup7\n      gas\n      call\n      swap2\n      pop\n      pop\n      returndatasize\n      dup1\n      0x00\n      dup2\n      eq\n      tag_104\n      jumpi\n      mload(0x40)\n      swap2\n      pop\n      and(add(returndatasize, 0x3f), not(0x1f))\n      dup3\n      add\n      0x40\n      mstore\n      returndatasize\n      dup3\n      mstore\n      returndatasize\n      0x00\n      0x20\n      dup5\n      add\n      returndatacopy\n      jump(tag_103)\n    tag_104:\n      0x60\n      swap2\n      pop\n    tag_103:\n      pop\n        /* \"contracts/l3_call.sol\":1592:1681  (bool result, ) = contract_a.call(abi.encodeWithSignature(\"set_value(uint256)\", n_value)) */\n      pop\n      swap1\n      pop\n        /* \"contracts/l3_call.sol\":1700:1706  result */\n      dup1\n        /* \"contracts/l3_call.sol\":1692:1744  require(result, \"Contract calling error: set_value\") */\n      tag_105\n      jumpi\n      mload(0x40)\n      0x08c379a000000000000000000000000000000000000000000000000000000000\n      dup2\n      mstore\n      0x04\n      add\n      tag_106\n      swap1\n      tag_80\n      jump\t// in\n    tag_106:\n      mload(0x40)\n      dup1\n      swap2\n      sub\n      swap1\n      revert\n    tag_105:\n        /* \"contracts/l3_call.sol\":1758:1770  bool result2 */\n      0x00\n        /* \"contracts/l3_call.sol\":1772:1796  bytes memory return_data */\n      0x00\n        /* \"contracts/l3_call.sol\":1800:1810  contract_a */\n      0x01\n      0x00\n      swap1\n      sload\n      swap1\n      0x0100\n      exp\n      swap1\n      div\n      0xffffffffffffffffffffffffffffffffffffffff\n      and\n        /* \"contracts/l3_call.sol\":1800:1815  contract_a.call */\n      0xffffffffffffffffffffffffffffffffffffffff\n      and\n        /* \"contracts/l3_call.sol\":1816:1854  abi.encodeWithSignature(\"get_value()\") */\n      add(0x24, mload(0x40))\n      mload(0x40)\n      0x20\n      dup2\n      dup4\n      sub\n      sub\n      dup2\n      mstore\n      swap1\n      0x40\n      mstore\n      and(not(0xffffffffffffffffffffffffffffffffffffffffffffffffffffffff), 0x33cf508000000000000000000000000000000000000000000000000000000000)\n      0x20\n      dup3\n      add\n      dup1\n      mload\n      0xffffffffffffffffffffffffffffffffffffffffffffffffffffffff\n      dup4\n      dup2\n      dup4\n      and\n      or\n      dup4\n      mstore\n      pop\n      pop\n      pop\n      pop\n        /* \"contracts/l3_call.sol\":1800:1855  contract_a.call(abi.encodeWithSignature(\"get_value()\")) */\n      mload(0x40)\n      tag_107\n      swap2\n      swap1\n      tag_64\n      jump\t// in\n    tag_107:\n      0x00\n      mload(0x40)\n      dup1\n      dup4\n      sub\n      dup2\n      0x00\n      dup7\n      gas\n      call\n      swap2\n      pop\n      pop\n      returndatasize\n      dup1\n      0x00\n      dup2\n      eq\n      tag_110\n      jumpi\n      mload(0x40)\n      swap2\n      pop\n      and(add(returndatasize, 0x3f), not(0x1f))\n      dup3\n      add\n      0x40\n      mstore\n      returndatasize\n      dup3\n      mstore\n      returndatasize\n      0x00\n      0x20\n      dup5\n      add\n      returndatacopy\n      jump(tag_109)\n    tag_110:\n      0x60\n      swap2\n      pop\n    tag_109:\n      pop\n        /* \"contracts/l3_call.sol\":1757:1855  (bool result2, bytes memory return_data) = contract_a.call(abi.encodeWithSignature(\"get_value()\")) */\n      swap2\n      pop\n      swap2\n      pop\n        /* \"contracts/l3_call.sol\":1874:1881  result2 */\n      dup2\n        /* \"contracts/l3_call.sol\":1866:1919  require(result2, \"Contract calling error: get_value\") */\n      tag_111\n      jumpi\n      mload(0x40)\n      0x08c379a000000000000000000000000000000000000000000000000000000000\n      dup2\n      mstore\n      0x04\n      add\n      tag_112\n      swap1\n      tag_113\n      jump\t// in\n    tag_112:\n      mload(0x40)\n      dup1\n      swap2\n      sub\n      swap1\n      revert\n    tag_111:\n        /* \"contracts/l3_call.sol\":1948:1959  return_data */\n      dup1\n        /* \"contracts/l3_call.sol\":1937:1968  abi.decode(return_data, (uint)) */\n      dup1\n      0x20\n      add\n      swap1\n      mload\n      dup2\n      add\n      swap1\n      tag_114\n      swap2\n      swap1\n      tag_61\n      jump\t// in\n    tag_114:\n        /* \"contracts/l3_call.sol\":1930:1968  return abi.decode(return_data, (uint)) */\n      swap4\n      pop\n      pop\n      pop\n      pop\n        /* \"contracts/l3_call.sol\":1387:1976  function callSetValue(uint n_value) public returns(uint){... */\n      swap2\n      swap1\n      pop\n      jump\t// out\n        /* \"#utility.yul\":7:84   */\n    tag_115:\n        /* \"#utility.yul\":44:51   */\n      0x00\n        /* \"#utility.yul\":73:78   */\n      dup2\n        /* \"#utility.yul\":62:78   */\n      swap1\n      pop\n        /* \"#utility.yul\":7:84   */\n      swap2\n      swap1\n      pop\n      jump\t// out\n        /* \"#utility.yul\":90:208   */\n    tag_116:\n        /* \"#utility.yul\":177:201   */\n      tag_153\n        /* \"#utility.yul\":195:200   */\n      dup2\n        /* \"#utility.yul\":177:201   */\n      tag_115\n      jump\t// in\n    tag_153:\n        /* \"#utility.yul\":172:175   */\n      dup3\n        /* \"#utility.yul\":165:202   */\n      mstore\n        /* \"#utility.yul\":90:208   */\n      pop\n      pop\n      jump\t// out\n        /* \"#utility.yul\":214:436   */\n    tag_16:\n        /* \"#utility.yul\":307:311   */\n      0x00\n        /* \"#utility.yul\":345:347   */\n      0x20\n        /* \"#utility.yul\":334:343   */\n      dup3\n        /* \"#utility.yul\":330:348   */\n      add\n        /* \"#utility.yul\":322:348   */\n      swap1\n      pop\n        /* \"#utility.yul\":358:429   */\n      tag_155\n        /* \"#utility.yul\":426:427   */\n      0x00\n        /* \"#utility.yul\":415:424   */\n      dup4\n        /* \"#utility.yul\":411:428   */\n      add\n        /* \"#utility.yul\":402:408   */\n      dup5\n        /* \"#utility.yul\":358:429   */\n      tag_116\n      jump\t// in\n    tag_155:\n        /* \"#utility.yul\":214:436   */\n      swap3\n      swap2\n      pop\n      pop\n      jump\t// out\n        /* \"#utility.yul\":442:517   */\n    tag_117:\n        /* \"#utility.yul\":475:481   */\n      0x00\n        /* \"#utility.yul\":508:510   */\n      0x40\n        /* \"#utility.yul\":502:511   */\n      mload\n        /* \"#utility.yul\":492:511   */\n      swap1\n      pop\n        /* \"#utility.yul\":442:517   */\n      swap1\n      jump\t// out\n        /* \"#utility.yul\":523:640   */\n    tag_118:\n        /* \"#utility.yul\":632:633   */\n      0x00\n        /* \"#utility.yul\":629:630   */\n      0x00\n        /* \"#utility.yul\":622:634   */\n      revert\n        /* \"#utility.yul\":646:763   */\n    tag_119:\n        /* \"#utility.yul\":755:756   */\n      0x00\n        /* \"#utility.yul\":752:753   */\n      0x00\n        /* \"#utility.yul\":745:757   */\n      revert\n        /* \"#utility.yul\":769:891   */\n    tag_120:\n        /* \"#utility.yul\":842:866   */\n      tag_160\n        /* \"#utility.yul\":860:865   */\n      dup2\n        /* \"#utility.yul\":842:866   */\n      tag_115\n      jump\t// in\n    tag_160:\n        /* \"#utility.yul\":835:840   */\n      dup2\n        /* \"#utility.yul\":832:867   */\n      eq\n        /* \"#utility.yul\":822:885   */\n      tag_161\n      jumpi\n        /* \"#utility.yul\":881:882   */\n      0x00\n        /* \"#utility.yul\":878:879   */\n      0x00\n        /* \"#utility.yul\":871:883   */\n      revert\n        /* \"#utility.yul\":822:885   */\n    tag_161:\n        /* \"#utility.yul\":769:891   */\n      pop\n      jump\t// out\n        /* \"#utility.yul\":897:1036   */\n    tag_121:\n        /* \"#utility.yul\":943:948   */\n      0x00\n        /* \"#utility.yul\":981:987   */\n      dup2\n        /* \"#utility.yul\":968:988   */\n      calldataload\n        /* \"#utility.yul\":959:988   */\n      swap1\n      pop\n        /* \"#utility.yul\":997:1030   */\n      tag_163\n        /* \"#utility.yul\":1024:1029   */\n      dup2\n        /* \"#utility.yul\":997:1030   */\n      tag_120\n      jump\t// in\n    tag_163:\n        /* \"#utility.yul\":897:1036   */\n      swap3\n      swap2\n      pop\n      pop\n      jump\t// out\n        /* \"#utility.yul\":1042:1371   */\n    tag_20:\n        /* \"#utility.yul\":1101:1107   */\n      0x00\n        /* \"#utility.yul\":1150:1152   */\n      0x20\n        /* \"#utility.yul\":1138:1147   */\n      dup3\n        /* \"#utility.yul\":1129:1136   */\n      dup5\n        /* \"#utility.yul\":1125:1148   */\n      sub\n        /* \"#utility.yul\":1121:1153   */\n      slt\n        /* \"#utility.yul\":1118:1237   */\n      iszero\n      tag_165\n      jumpi\n        /* \"#utility.yul\":1156:1235   */\n      tag_166\n      tag_118\n      jump\t// in\n    tag_166:\n        /* \"#utility.yul\":1118:1237   */\n    tag_165:\n        /* \"#utility.yul\":1276:1277   */\n      0x00\n        /* \"#utility.yul\":1301:1354   */\n      tag_167\n        /* \"#utility.yul\":1346:1353   */\n      dup5\n        /* \"#utility.yul\":1337:1343   */\n      dup3\n        /* \"#utility.yul\":1326:1335   */\n      dup6\n        /* \"#utility.yul\":1322:1344   */\n      add\n        /* \"#utility.yul\":1301:1354   */\n      tag_121\n      jump\t// in\n    tag_167:\n        /* \"#utility.yul\":1291:1354   */\n      swap2\n      pop\n        /* \"#utility.yul\":1247:1364   */\n      pop\n        /* \"#utility.yul\":1042:1371   */\n      swap3\n      swap2\n      pop\n      pop\n      jump\t// out\n        /* \"#utility.yul\":1377:1503   */\n    tag_122:\n        /* \"#utility.yul\":1414:1421   */\n      0x00\n        /* \"#utility.yul\":1454:1496   */\n      0xffffffffffffffffffffffffffffffffffffffff\n        /* \"#utility.yul\":1447:1452   */\n      dup3\n        /* \"#utility.yul\":1443:1497   */\n      and\n        /* \"#utility.yul\":1432:1497   */\n      swap1\n      pop\n        /* \"#utility.yul\":1377:1503   */\n      swap2\n      swap1\n      pop\n      jump\t// out\n        /* \"#utility.yul\":1509:1605   */\n    tag_123:\n        /* \"#utility.yul\":1546:1553   */\n      0x00\n        /* \"#utility.yul\":1575:1599   */\n      tag_170\n        /* \"#utility.yul\":1593:1598   */\n      dup3\n        /* \"#utility.yul\":1575:1599   */\n      tag_122\n      jump\t// in\n    tag_170:\n        /* \"#utility.yul\":1564:1599   */\n      swap1\n      pop\n        /* \"#utility.yul\":1509:1605   */\n      swap2\n      swap1\n      pop\n      jump\t// out\n        /* \"#utility.yul\":1611:1729   */\n    tag_124:\n        /* \"#utility.yul\":1698:1722   */\n      tag_172\n        /* \"#utility.yul\":1716:1721   */\n      dup2\n        /* \"#utility.yul\":1698:1722   */\n      tag_123\n      jump\t// in\n    tag_172:\n        /* \"#utility.yul\":1693:1696   */\n      dup3\n        /* \"#utility.yul\":1686:1723   */\n      mstore\n        /* \"#utility.yul\":1611:1729   */\n      pop\n      pop\n      jump\t// out\n        /* \"#utility.yul\":1735:1957   */\n    tag_27:\n        /* \"#utility.yul\":1828:1832   */\n      0x00\n        /* \"#utility.yul\":1866:1868   */\n      0x20\n        /* \"#utility.yul\":1855:1864   */\n      dup3\n        /* \"#utility.yul\":1851:1869   */\n      add\n        /* \"#utility.yul\":1843:1869   */\n      swap1\n      pop\n        /* \"#utility.yul\":1879:1950   */\n      tag_174\n        /* \"#utility.yul\":1947:1948   */\n      0x00\n        /* \"#utility.yul\":1936:1945   */\n      dup4\n        /* \"#utility.yul\":1932:1949   */\n      add\n        /* \"#utility.yul\":1923:1929   */\n      dup5\n        /* \"#utility.yul\":1879:1950   */\n      tag_124\n      jump\t// in\n    tag_174:\n        /* \"#utility.yul\":1735:1957   */\n      swap3\n      swap2\n      pop\n      pop\n      jump\t// out\n        /* \"#utility.yul\":1963:2062   */\n    tag_125:\n        /* \"#utility.yul\":2015:2021   */\n      0x00\n        /* \"#utility.yul\":2049:2054   */\n      dup2\n        /* \"#utility.yul\":2043:2055   */\n      mload\n        /* \"#utility.yul\":2033:2055   */\n      swap1\n      pop\n        /* \"#utility.yul\":1963:2062   */\n      swap2\n      swap1\n      pop\n      jump\t// out\n        /* \"#utility.yul\":2068:2237   */\n    tag_126:\n        /* \"#utility.yul\":2152:2163   */\n      0x00\n        /* \"#utility.yul\":2186:2192   */\n      dup3\n        /* \"#utility.yul\":2181:2184   */\n      dup3\n        /* \"#utility.yul\":2174:2193   */\n      mstore\n        /* \"#utility.yul\":2226:2230   */\n      0x20\n        /* \"#utility.yul\":2221:2224   */\n      dup3\n        /* \"#utility.yul\":2217:2231   */\n      add\n        /* \"#utility.yul\":2202:2231   */\n      swap1\n      pop\n        /* \"#utility.yul\":2068:2237   */\n      swap3\n      swap2\n      pop\n      pop\n      jump\t// out\n        /* \"#utility.yul\":2243:2382   */\n    tag_127:\n        /* \"#utility.yul\":2332:2338   */\n      dup3\n        /* \"#utility.yul\":2327:2330   */\n      dup2\n        /* \"#utility.yul\":2322:2325   */\n      dup4\n        /* \"#utility.yul\":2316:2339   */\n      mcopy\n        /* \"#utility.yul\":2373:2374   */\n      0x00\n        /* \"#utility.yul\":2364:2370   */\n      dup4\n        /* \"#utility.yul\":2359:2362   */\n      dup4\n        /* \"#utility.yul\":2355:2371   */\n      add\n        /* \"#utility.yul\":2348:2375   */\n      mstore\n        /* \"#utility.yul\":2243:2382   */\n      pop\n      pop\n      pop\n      jump\t// out\n        /* \"#utility.yul\":2388:2490   */\n    tag_128:\n        /* \"#utility.yul\":2429:2435   */\n      0x00\n        /* \"#utility.yul\":2480:2482   */\n      0x1f\n        /* \"#utility.yul\":2476:2483   */\n      not\n        /* \"#utility.yul\":2471:2473   */\n      0x1f\n        /* \"#utility.yul\":2464:2469   */\n      dup4\n        /* \"#utility.yul\":2460:2474   */\n      add\n        /* \"#utility.yul\":2456:2484   */\n      and\n        /* \"#utility.yul\":2446:2484   */\n      swap1\n      pop\n        /* \"#utility.yul\":2388:2490   */\n      swap2\n      swap1\n      pop\n      jump\t// out\n        /* \"#utility.yul\":2496:2873   */\n    tag_129:\n        /* \"#utility.yul\":2584:2587   */\n      0x00\n        /* \"#utility.yul\":2612:2651   */\n      tag_180\n        /* \"#utility.yul\":2645:2650   */\n      dup3\n        /* \"#utility.yul\":2612:2651   */\n      tag_125\n      jump\t// in\n    tag_180:\n        /* \"#utility.yul\":2667:2738   */\n      tag_181\n        /* \"#utility.yul\":2731:2737   */\n      dup2\n        /* \"#utility.yul\":2726:2729   */\n      dup6\n        /* \"#utility.yul\":2667:2738   */\n      tag_126\n      jump\t// in\n    tag_181:\n        /* \"#utility.yul\":2660:2738   */\n      swap4\n      pop\n        /* \"#utility.yul\":2747:2812   */\n      tag_182\n        /* \"#utility.yul\":2805:2811   */\n      dup2\n        /* \"#utility.yul\":2800:2803   */\n      dup6\n        /* \"#utility.yul\":2793:2797   */\n      0x20\n        /* \"#utility.yul\":2786:2791   */\n      dup7\n        /* \"#utility.yul\":2782:2798   */\n      add\n        /* \"#utility.yul\":2747:2812   */\n      tag_127\n      jump\t// in\n    tag_182:\n        /* \"#utility.yul\":2837:2866   */\n      tag_183\n        /* \"#utility.yul\":2859:2865   */\n      dup2\n        /* \"#utility.yul\":2837:2866   */\n      tag_128\n      jump\t// in\n    tag_183:\n        /* \"#utility.yul\":2832:2835   */\n      dup5\n        /* \"#utility.yul\":2828:2867   */\n      add\n        /* \"#utility.yul\":2821:2867   */\n      swap2\n      pop\n        /* \"#utility.yul\":2588:2873   */\n      pop\n        /* \"#utility.yul\":2496:2873   */\n      swap3\n      swap2\n      pop\n      pop\n      jump\t// out\n        /* \"#utility.yul\":2879:3192   */\n    tag_41:\n        /* \"#utility.yul\":2992:2996   */\n      0x00\n        /* \"#utility.yul\":3030:3032   */\n      0x20\n        /* \"#utility.yul\":3019:3028   */\n      dup3\n        /* \"#utility.yul\":3015:3033   */\n      add\n        /* \"#utility.yul\":3007:3033   */\n      swap1\n      pop\n        /* \"#utility.yul\":3079:3088   */\n      dup2\n        /* \"#utility.yul\":3073:3077   */\n      dup2\n        /* \"#utility.yul\":3069:3089   */\n      sub\n        /* \"#utility.yul\":3065:3066   */\n      0x00\n        /* \"#utility.yul\":3054:3063   */\n      dup4\n        /* \"#utility.yul\":3050:3067   */\n      add\n        /* \"#utility.yul\":3043:3090   */\n      mstore\n        /* \"#utility.yul\":3107:3185   */\n      tag_185\n        /* \"#utility.yul\":3180:3184   */\n      dup2\n        /* \"#utility.yul\":3171:3177   */\n      dup5\n        /* \"#utility.yul\":3107:3185   */\n      tag_129\n      jump\t// in\n    tag_185:\n        /* \"#utility.yul\":3099:3185   */\n      swap1\n      pop\n        /* \"#utility.yul\":2879:3192   */\n      swap3\n      swap2\n      pop\n      pop\n      jump\t// out\n        /* \"#utility.yul\":3198:3341   */\n    tag_130:\n        /* \"#utility.yul\":3255:3260   */\n      0x00\n        /* \"#utility.yul\":3286:3292   */\n      dup2\n        /* \"#utility.yul\":3280:3293   */\n      mload\n        /* \"#utility.yul\":3271:3293   */\n      swap1\n      pop\n        /* \"#utility.yul\":3302:3335   */\n      tag_187\n        /* \"#utility.yul\":3329:3334   */\n      dup2\n        /* \"#utility.yul\":3302:3335   */\n      tag_120\n      jump\t// in\n    tag_187:\n        /* \"#utility.yul\":3198:3341   */\n      swap3\n      swap2\n      pop\n      pop\n      jump\t// out\n        /* \"#utility.yul\":3347:3698   */\n    tag_61:\n        /* \"#utility.yul\":3417:3423   */\n      0x00\n        /* \"#utility.yul\":3466:3468   */\n      0x20\n        /* \"#utility.yul\":3454:3463   */\n      dup3\n        /* \"#utility.yul\":3445:3452   */\n      dup5\n        /* \"#utility.yul\":3441:3464   */\n      sub\n        /* \"#utility.yul\":3437:3469   */\n      slt\n        /* \"#utility.yul\":3434:3553   */\n      iszero\n      tag_189\n      jumpi\n        /* \"#utility.yul\":3472:3551   */\n      tag_190\n      tag_118\n      jump\t// in\n    tag_190:\n        /* \"#utility.yul\":3434:3553   */\n    tag_189:\n        /* \"#utility.yul\":3592:3593   */\n      0x00\n        /* \"#utility.yul\":3617:3681   */\n      tag_191\n        /* \"#utility.yul\":3673:3680   */\n      dup5\n        /* \"#utility.yul\":3664:3670   */\n      dup3\n        /* \"#utility.yul\":3653:3662   */\n      dup6\n        /* \"#utility.yul\":3649:3671   */\n      add\n        /* \"#utility.yul\":3617:3681   */\n      tag_130\n      jump\t// in\n    tag_191:\n        /* \"#utility.yul\":3607:3681   */\n      swap2\n      pop\n        /* \"#utility.yul\":3563:3691   */\n      pop\n        /* \"#utility.yul\":3347:3698   */\n      swap3\n      swap2\n      pop\n      pop\n      jump\t// out\n        /* \"#utility.yul\":3704:3802   */\n    tag_131:\n        /* \"#utility.yul\":3755:3761   */\n      0x00\n        /* \"#utility.yul\":3789:3794   */\n      dup2\n        /* \"#utility.yul\":3783:3795   */\n      mload\n        /* \"#utility.yul\":3773:3795   */\n      swap1\n      pop\n        /* \"#utility.yul\":3704:3802   */\n      swap2\n      swap1\n      pop\n      jump\t// out\n        /* \"#utility.yul\":3808:3955   */\n    tag_132:\n        /* \"#utility.yul\":3909:3920   */\n      0x00\n        /* \"#utility.yul\":3946:3949   */\n      dup2\n        /* \"#utility.yul\":3931:3949   */\n      swap1\n      pop\n        /* \"#utility.yul\":3808:3955   */\n      swap3\n      swap2\n      pop\n      pop\n      jump\t// out\n        /* \"#utility.yul\":3961:4347   */\n    tag_133:\n        /* \"#utility.yul\":4065:4068   */\n      0x00\n        /* \"#utility.yul\":4093:4131   */\n      tag_195\n        /* \"#utility.yul\":4125:4130   */\n      dup3\n        /* \"#utility.yul\":4093:4131   */\n      tag_131\n      jump\t// in\n    tag_195:\n        /* \"#utility.yul\":4147:4235   */\n      tag_196\n        /* \"#utility.yul\":4228:4234   */\n      dup2\n        /* \"#utility.yul\":4223:4226   */\n      dup6\n        /* \"#utility.yul\":4147:4235   */\n      tag_132\n      jump\t// in\n    tag_196:\n        /* \"#utility.yul\":4140:4235   */\n      swap4\n      pop\n        /* \"#utility.yul\":4244:4309   */\n      tag_197\n        /* \"#utility.yul\":4302:4308   */\n      dup2\n        /* \"#utility.yul\":4297:4300   */\n      dup6\n        /* \"#utility.yul\":4290:4294   */\n      0x20\n        /* \"#utility.yul\":4283:4288   */\n      dup7\n        /* \"#utility.yul\":4279:4295   */\n      add\n        /* \"#utility.yul\":4244:4309   */\n      tag_127\n      jump\t// in\n    tag_197:\n        /* \"#utility.yul\":4334:4340   */\n      dup1\n        /* \"#utility.yul\":4329:4332   */\n      dup5\n        /* \"#utility.yul\":4325:4341   */\n      add\n        /* \"#utility.yul\":4318:4341   */\n      swap2\n      pop\n        /* \"#utility.yul\":4069:4347   */\n      pop\n        /* \"#utility.yul\":3961:4347   */\n      swap3\n      swap2\n      pop\n      pop\n      jump\t// out\n        /* \"#utility.yul\":4353:4624   */\n    tag_64:\n        /* \"#utility.yul\":4483:4486   */\n      0x00\n        /* \"#utility.yul\":4505:4598   */\n      tag_199\n        /* \"#utility.yul\":4594:4597   */\n      dup3\n        /* \"#utility.yul\":4585:4591   */\n      dup5\n        /* \"#utility.yul\":4505:4598   */\n      tag_133\n      jump\t// in\n    tag_199:\n        /* \"#utility.yul\":4498:4598   */\n      swap2\n      pop\n        /* \"#utility.yul\":4615:4618   */\n      dup2\n        /* \"#utility.yul\":4608:4618   */\n      swap1\n      pop\n        /* \"#utility.yul\":4353:4624   */\n      swap3\n      swap2\n      pop\n      pop\n      jump\t// out\n        /* \"#utility.yul\":4630:4802   */\n    tag_134:\n        /* \"#utility.yul\":4770:4794   */\n      0x436f6e74726163742063616c6c696e67206572726f7200000000000000000000\n        /* \"#utility.yul\":4766:4767   */\n      0x00\n        /* \"#utility.yul\":4758:4764   */\n      dup3\n        /* \"#utility.yul\":4754:4768   */\n      add\n        /* \"#utility.yul\":4747:4795   */\n      mstore\n        /* \"#utility.yul\":4630:4802   */\n      pop\n      jump\t// out\n        /* \"#utility.yul\":4808:5174   */\n    tag_135:\n        /* \"#utility.yul\":4950:4953   */\n      0x00\n        /* \"#utility.yul\":4971:5038   */\n      tag_202\n        /* \"#utility.yul\":5035:5037   */\n      0x16\n        /* \"#utility.yul\":5030:5033   */\n      dup4\n        /* \"#utility.yul\":4971:5038   */\n      tag_126\n      jump\t// in\n    tag_202:\n        /* \"#utility.yul\":4964:5038   */\n      swap2\n      pop\n        /* \"#utility.yul\":5047:5140   */\n      tag_203\n        /* \"#utility.yul\":5136:5139   */\n      dup3\n        /* \"#utility.yul\":5047:5140   */\n      tag_134\n      jump\t// in\n    tag_203:\n        /* \"#utility.yul\":5165:5167   */\n      0x20\n        /* \"#utility.yul\":5160:5163   */\n      dup3\n        /* \"#utility.yul\":5156:5168   */\n      add\n        /* \"#utility.yul\":5149:5168   */\n      swap1\n      pop\n        /* \"#utility.yul\":4808:5174   */\n      swap2\n      swap1\n      pop\n      jump\t// out\n        /* \"#utility.yul\":5180:5599   */\n    tag_70:\n        /* \"#utility.yul\":5346:5350   */\n      0x00\n        /* \"#utility.yul\":5384:5386   */\n      0x20\n        /* \"#utility.yul\":5373:5382   */\n      dup3\n        /* \"#utility.yul\":5369:5387   */\n      add\n        /* \"#utility.yul\":5361:5387   */\n      swap1\n      pop\n        /* \"#utility.yul\":5433:5442   */\n      dup2\n        /* \"#utility.yul\":5427:5431   */\n      dup2\n        /* \"#utility.yul\":5423:5443   */\n      sub\n        /* \"#utility.yul\":5419:5420   */\n      0x00\n        /* \"#utility.yul\":5408:5417   */\n      dup4\n        /* \"#utility.yul\":5404:5421   */\n      add\n        /* \"#utility.yul\":5397:5444   */\n      mstore\n        /* \"#utility.yul\":5461:5592   */\n      tag_205\n        /* \"#utility.yul\":5587:5591   */\n      dup2\n        /* \"#utility.yul\":5461:5592   */\n      tag_135\n      jump\t// in\n    tag_205:\n        /* \"#utility.yul\":5453:5592   */\n      swap1\n      pop\n        /* \"#utility.yul\":5180:5599   */\n      swap2\n      swap1\n      pop\n      jump\t// out\n        /* \"#utility.yul\":5605:5825   */\n    tag_136:\n        /* \"#utility.yul\":5745:5779   */\n      0x436f6e74726163742063616c6c696e67206572726f723a207365745f76616c75\n        /* \"#utility.yul\":5741:5742   */\n      0x00\n        /* \"#utility.yul\":5733:5739   */\n      dup3\n        /* \"#utility.yul\":5729:5743   */\n      add\n        /* \"#utility.yul\":5722:5780   */\n      mstore\n        /* \"#utility.yul\":5814:5817   */\n      0x6500000000000000000000000000000000000000000000000000000000000000\n        /* \"#utility.yul\":5809:5811   */\n      0x20\n        /* \"#utility.yul\":5801:5807   */\n      dup3\n        /* \"#utility.yul\":5797:5812   */\n      add\n        /* \"#utility.yul\":5790:5818   */\n      mstore\n        /* \"#utility.yul\":5605:5825   */\n      pop\n      jump\t// out\n        /* \"#utility.yul\":5831:6197   */\n    tag_137:\n        /* \"#utility.yul\":5973:5976   */\n      0x00\n        /* \"#utility.yul\":5994:6061   */\n      tag_208\n        /* \"#utility.yul\":6058:6060   */\n      0x21\n        /* \"#utility.yul\":6053:6056   */\n      dup4\n        /* \"#utility.yul\":5994:6061   */\n      tag_126\n      jump\t// in\n    tag_208:\n        /* \"#utility.yul\":5987:6061   */\n      swap2\n      pop\n        /* \"#utility.yul\":6070:6163   */\n      tag_209\n        /* \"#utility.yul\":6159:6162   */\n      dup3\n        /* \"#utility.yul\":6070:6163   */\n      tag_136\n      jump\t// in\n    tag_209:\n        /* \"#utility.yul\":6188:6190   */\n      0x40\n        /* \"#utility.yul\":6183:6186   */\n      dup3\n        /* \"#utility.yul\":6179:6191   */\n      add\n        /* \"#utility.yul\":6172:6191   */\n      swap1\n      pop\n        /* \"#utility.yul\":5831:6197   */\n      swap2\n      swap1\n      pop\n      jump\t// out\n        /* \"#utility.yul\":6203:6622   */\n    tag_80:\n        /* \"#utility.yul\":6369:6373   */\n      0x00\n        /* \"#utility.yul\":6407:6409   */\n      0x20\n        /* \"#utility.yul\":6396:6405   */\n      dup3\n        /* \"#utility.yul\":6392:6410   */\n      add\n        /* \"#utility.yul\":6384:6410   */\n      swap1\n      pop\n        /* \"#utility.yul\":6456:6465   */\n      dup2\n        /* \"#utility.yul\":6450:6454   */\n      dup2\n        /* \"#utility.yul\":6446:6466   */\n      sub\n        /* \"#utility.yul\":6442:6443   */\n      0x00\n        /* \"#utility.yul\":6431:6440   */\n      dup4\n        /* \"#utility.yul\":6427:6444   */\n      add\n        /* \"#utility.yul\":6420:6467   */\n      mstore\n        /* \"#utility.yul\":6484:6615   */\n      tag_211\n        /* \"#utility.yul\":6610:6614   */\n      dup2\n        /* \"#utility.yul\":6484:6615   */\n      tag_137\n      jump\t// in\n    tag_211:\n        /* \"#utility.yul\":6476:6615   */\n      swap1\n      pop\n        /* \"#utility.yul\":6203:6622   */\n      swap2\n      swap1\n      pop\n      jump\t// out\n        /* \"#utility.yul\":6628:6794   */\n    tag_138:\n        /* \"#utility.yul\":6768:6786   */\n      0x596f75277265206e6f74206f776e657200000000000000000000000000000000\n        /* \"#utility.yul\":6764:6765   */\n      0x00\n        /* \"#utility.yul\":6756:6762   */\n      dup3\n        /* \"#utility.yul\":6752:6766   */\n      add\n        /* \"#utility.yul\":6745:6787   */\n      mstore\n        /* \"#utility.yul\":6628:6794   */\n      pop\n      jump\t// out\n        /* \"#utility.yul\":6800:7166   */\n    tag_139:\n        /* \"#utility.yul\":6942:6945   */\n      0x00\n        /* \"#utility.yul\":6963:7030   */\n      tag_214\n        /* \"#utility.yul\":7027:7029   */\n      0x10\n        /* \"#utility.yul\":7022:7025   */\n      dup4\n        /* \"#utility.yul\":6963:7030   */\n      tag_126\n      jump\t// in\n    tag_214:\n        /* \"#utility.yul\":6956:7030   */\n      swap2\n      pop\n        /* \"#utility.yul\":7039:7132   */\n      tag_215\n        /* \"#utility.yul\":7128:7131   */\n      dup3\n        /* \"#utility.yul\":7039:7132   */\n      tag_138\n      jump\t// in\n    tag_215:\n        /* \"#utility.yul\":7157:7159   */\n      0x20\n        /* \"#utility.yul\":7152:7155   */\n      dup3\n        /* \"#utility.yul\":7148:7160   */\n      add\n        /* \"#utility.yul\":7141:7160   */\n      swap1\n      pop\n        /* \"#utility.yul\":6800:7166   */\n      swap2\n      swap1\n      pop\n      jump\t// out\n        /* \"#utility.yul\":7172:7591   */\n    tag_84:\n        /* \"#utility.yul\":7338:7342   */\n      0x00\n        /* \"#utility.yul\":7376:7378   */\n      0x20\n        /* \"#utility.yul\":7365:7374   */\n      dup3\n        /* \"#utility.yul\":7361:7379   */\n      add\n        /* \"#utility.yul\":7353:7379   */\n      swap1\n      pop\n        /* \"#utility.yul\":7425:7434   */\n      dup2\n        /* \"#utility.yul\":7419:7423   */\n      dup2\n        /* \"#utility.yul\":7415:7435   */\n      sub\n        /* \"#utility.yul\":7411:7412   */\n      0x00\n        /* \"#utility.yul\":7400:7409   */\n      dup4\n        /* \"#utility.yul\":7396:7413   */\n      add\n        /* \"#utility.yul\":7389:7436   */\n      mstore\n        /* \"#utility.yul\":7453:7584   */\n      tag_217\n        /* \"#utility.yul\":7579:7583   */\n      dup2\n        /* \"#utility.yul\":7453:7584   */\n      tag_139\n      jump\t// in\n    tag_217:\n        /* \"#utility.yul\":7445:7584   */\n      swap1\n      pop\n        /* \"#utility.yul\":7172:7591   */\n      swap2\n      swap1\n      pop\n      jump\t// out\n        /* \"#utility.yul\":7597:7714   */\n    tag_140:\n        /* \"#utility.yul\":7706:7707   */\n      0x00\n        /* \"#utility.yul\":7703:7704   */\n      0x00\n        /* \"#utility.yul\":7696:7708   */\n      revert\n        /* \"#utility.yul\":7720:7837   */\n    tag_141:\n        /* \"#utility.yul\":7829:7830   */\n      0x00\n        /* \"#utility.yul\":7826:7827   */\n      0x00\n        /* \"#utility.yul\":7819:7831   */\n      revert\n        /* \"#utility.yul\":7843:8023   */\n    tag_142:\n        /* \"#utility.yul\":7891:7968   */\n      0x4e487b7100000000000000000000000000000000000000000000000000000000\n        /* \"#utility.yul\":7888:7889   */\n      0x00\n        /* \"#utility.yul\":7881:7969   */\n      mstore\n        /* \"#utility.yul\":7988:7992   */\n      0x41\n        /* \"#utility.yul\":7985:7986   */\n      0x04\n        /* \"#utility.yul\":7978:7993   */\n      mstore\n        /* \"#utility.yul\":8012:8016   */\n      0x24\n        /* \"#utility.yul\":8009:8010   */\n      0x00\n        /* \"#utility.yul\":8002:8017   */\n      revert\n        /* \"#utility.yul\":8029:8310   */\n    tag_143:\n        /* \"#utility.yul\":8112:8139   */\n      tag_222\n        /* \"#utility.yul\":8134:8138   */\n      dup3\n        /* \"#utility.yul\":8112:8139   */\n      tag_128\n      jump\t// in\n    tag_222:\n        /* \"#utility.yul\":8104:8110   */\n      dup2\n        /* \"#utility.yul\":8100:8140   */\n      add\n        /* \"#utility.yul\":8242:8248   */\n      dup2\n        /* \"#utility.yul\":8230:8240   */\n      dup2\n        /* \"#utility.yul\":8227:8249   */\n      lt\n        /* \"#utility.yul\":8206:8224   */\n      0xffffffffffffffff\n        /* \"#utility.yul\":8194:8204   */\n      dup3\n        /* \"#utility.yul\":8191:8225   */\n      gt\n        /* \"#utility.yul\":8188:8250   */\n      or\n        /* \"#utility.yul\":8185:8273   */\n      iszero\n      tag_223\n      jumpi\n        /* \"#utility.yul\":8253:8271   */\n      tag_224\n      tag_142\n      jump\t// in\n    tag_224:\n        /* \"#utility.yul\":8185:8273   */\n    tag_223:\n        /* \"#utility.yul\":8293:8303   */\n      dup1\n        /* \"#utility.yul\":8289:8291   */\n      0x40\n        /* \"#utility.yul\":8282:8304   */\n      mstore\n        /* \"#utility.yul\":8072:8310   */\n      pop\n        /* \"#utility.yul\":8029:8310   */\n      pop\n      pop\n      jump\t// out\n        /* \"#utility.yul\":8316:8445   */\n    tag_144:\n        /* \"#utility.yul\":8350:8356   */\n      0x00\n        /* \"#utility.yul\":8377:8397   */\n      tag_226\n      tag_117\n      jump\t// in\n    tag_226:\n        /* \"#utility.yul\":8367:8397   */\n      swap1\n      pop\n        /* \"#utility.yul\":8406:8439   */\n      tag_227\n        /* \"#utility.yul\":8434:8438   */\n      dup3\n        /* \"#utility.yul\":8426:8432   */\n      dup3\n        /* \"#utility.yul\":8406:8439   */\n      tag_143\n      jump\t// in\n    tag_227:\n        /* \"#utility.yul\":8316:8445   */\n      swap2\n      swap1\n      pop\n      jump\t// out\n        /* \"#utility.yul\":8451:8759   */\n    tag_145:\n        /* \"#utility.yul\":8513:8517   */\n      0x00\n        /* \"#utility.yul\":8603:8621   */\n      0xffffffffffffffff\n        /* \"#utility.yul\":8595:8601   */\n      dup3\n        /* \"#utility.yul\":8592:8622   */\n      gt\n        /* \"#utility.yul\":8589:8645   */\n      iszero\n      tag_229\n      jumpi\n        /* \"#utility.yul\":8625:8643   */\n      tag_230\n      tag_142\n      jump\t// in\n    tag_230:\n        /* \"#utility.yul\":8589:8645   */\n    tag_229:\n        /* \"#utility.yul\":8663:8692   */\n      tag_231\n        /* \"#utility.yul\":8685:8691   */\n      dup3\n        /* \"#utility.yul\":8663:8692   */\n      tag_128\n      jump\t// in\n    tag_231:\n        /* \"#utility.yul\":8655:8692   */\n      swap1\n      pop\n        /* \"#utility.yul\":8747:8751   */\n      0x20\n        /* \"#utility.yul\":8741:8745   */\n      dup2\n        /* \"#utility.yul\":8737:8752   */\n      add\n        /* \"#utility.yul\":8729:8752   */\n      swap1\n      pop\n        /* \"#utility.yul\":8451:8759   */\n      swap2\n      swap1\n      pop\n      jump\t// out\n        /* \"#utility.yul\":8765:9199   */\n    tag_146:\n        /* \"#utility.yul\":8854:8859   */\n      0x00\n        /* \"#utility.yul\":8879:8945   */\n      tag_233\n        /* \"#utility.yul\":8895:8944   */\n      tag_234\n        /* \"#utility.yul\":8937:8943   */\n      dup5\n        /* \"#utility.yul\":8895:8944   */\n      tag_145\n      jump\t// in\n    tag_234:\n        /* \"#utility.yul\":8879:8945   */\n      tag_144\n      jump\t// in\n    tag_233:\n        /* \"#utility.yul\":8870:8945   */\n      swap1\n      pop\n        /* \"#utility.yul\":8968:8974   */\n      dup3\n        /* \"#utility.yul\":8961:8966   */\n      dup2\n        /* \"#utility.yul\":8954:8975   */\n      mstore\n        /* \"#utility.yul\":9006:9010   */\n      0x20\n        /* \"#utility.yul\":8999:9004   */\n      dup2\n        /* \"#utility.yul\":8995:9011   */\n      add\n        /* \"#utility.yul\":9044:9047   */\n      dup5\n        /* \"#utility.yul\":9035:9041   */\n      dup5\n        /* \"#utility.yul\":9030:9033   */\n      dup5\n        /* \"#utility.yul\":9026:9042   */\n      add\n        /* \"#utility.yul\":9023:9048   */\n      gt\n        /* \"#utility.yul\":9020:9132   */\n      iszero\n      tag_235\n      jumpi\n        /* \"#utility.yul\":9051:9130   */\n      tag_236\n      tag_141\n      jump\t// in\n    tag_236:\n        /* \"#utility.yul\":9020:9132   */\n    tag_235:\n        /* \"#utility.yul\":9141:9193   */\n      tag_237\n        /* \"#utility.yul\":9186:9192   */\n      dup5\n        /* \"#utility.yul\":9181:9184   */\n      dup3\n        /* \"#utility.yul\":9176:9179   */\n      dup6\n        /* \"#utility.yul\":9141:9193   */\n      tag_127\n      jump\t// in\n    tag_237:\n        /* \"#utility.yul\":8860:9199   */\n      pop\n        /* \"#utility.yul\":8765:9199   */\n      swap4\n      swap3\n      pop\n      pop\n      pop\n      jump\t// out\n        /* \"#utility.yul\":9219:9574   */\n    tag_147:\n        /* \"#utility.yul\":9286:9291   */\n      0x00\n        /* \"#utility.yul\":9335:9338   */\n      dup3\n        /* \"#utility.yul\":9328:9332   */\n      0x1f\n        /* \"#utility.yul\":9320:9326   */\n      dup4\n        /* \"#utility.yul\":9316:9333   */\n      add\n        /* \"#utility.yul\":9312:9339   */\n      slt\n        /* \"#utility.yul\":9302:9424   */\n      tag_239\n      jumpi\n        /* \"#utility.yul\":9343:9422   */\n      tag_240\n      tag_140\n      jump\t// in\n    tag_240:\n        /* \"#utility.yul\":9302:9424   */\n    tag_239:\n        /* \"#utility.yul\":9453:9459   */\n      dup2\n        /* \"#utility.yul\":9447:9460   */\n      mload\n        /* \"#utility.yul\":9478:9568   */\n      tag_241\n        /* \"#utility.yul\":9564:9567   */\n      dup5\n        /* \"#utility.yul\":9556:9562   */\n      dup3\n        /* \"#utility.yul\":9549:9553   */\n      0x20\n        /* \"#utility.yul\":9541:9547   */\n      dup7\n        /* \"#utility.yul\":9537:9554   */\n      add\n        /* \"#utility.yul\":9478:9568   */\n      tag_146\n      jump\t// in\n    tag_241:\n        /* \"#utility.yul\":9469:9568   */\n      swap2\n      pop\n        /* \"#utility.yul\":9292:9574   */\n      pop\n        /* \"#utility.yul\":9219:9574   */\n      swap3\n      swap2\n      pop\n      pop\n      jump\t// out\n        /* \"#utility.yul\":9580:10104   */\n    tag_90:\n        /* \"#utility.yul\":9660:9666   */\n      0x00\n        /* \"#utility.yul\":9709:9711   */\n      0x20\n        /* \"#utility.yul\":9697:9706   */\n      dup3\n        /* \"#utility.yul\":9688:9695   */\n      dup5\n        /* \"#utility.yul\":9684:9707   */\n      sub\n        /* \"#utility.yul\":9680:9712   */\n      slt\n        /* \"#utility.yul\":9677:9796   */\n      iszero\n      tag_243\n      jumpi\n        /* \"#utility.yul\":9715:9794   */\n      tag_244\n      tag_118\n      jump\t// in\n    tag_244:\n        /* \"#utility.yul\":9677:9796   */\n    tag_243:\n        /* \"#utility.yul\":9856:9857   */\n      0x00\n        /* \"#utility.yul\":9845:9854   */\n      dup3\n        /* \"#utility.yul\":9841:9858   */\n      add\n        /* \"#utility.yul\":9835:9859   */\n      mload\n        /* \"#utility.yul\":9886:9904   */\n      0xffffffffffffffff\n        /* \"#utility.yul\":9878:9884   */\n      dup2\n        /* \"#utility.yul\":9875:9905   */\n      gt\n        /* \"#utility.yul\":9872:9989   */\n      iszero\n      tag_245\n      jumpi\n        /* \"#utility.yul\":9908:9987   */\n      tag_246\n      tag_119\n      jump\t// in\n    tag_246:\n        /* \"#utility.yul\":9872:9989   */\n    tag_245:\n        /* \"#utility.yul\":10013:10087   */\n      tag_247\n        /* \"#utility.yul\":10079:10086   */\n      dup5\n        /* \"#utility.yul\":10070:10076   */\n      dup3\n        /* \"#utility.yul\":10059:10068   */\n      dup6\n        /* \"#utility.yul\":10055:10077   */\n      add\n        /* \"#utility.yul\":10013:10087   */\n      tag_147\n      jump\t// in\n    tag_247:\n        /* \"#utility.yul\":10003:10087   */\n      swap2\n      pop\n        /* \"#utility.yul\":9806:10097   */\n      pop\n        /* \"#utility.yul\":9580:10104   */\n      swap3\n      swap2\n      pop\n      pop\n      jump\t// out\n        /* \"#utility.yul\":10110:10330   */\n    tag_148:\n        /* \"#utility.yul\":10250:10284   */\n      0x436f6e74726163742063616c6c696e67206572726f723a206765745f76616c75\n        /* \"#utility.yul\":10246:10247   */\n      0x00\n        /* \"#utility.yul\":10238:10244   */\n      dup3\n        /* \"#utility.yul\":10234:10248   */\n      add\n        /* \"#utility.yul\":10227:10285   */\n      mstore\n        /* \"#utility.yul\":10319:10322   */\n      0x6500000000000000000000000000000000000000000000000000000000000000\n        /* \"#utility.yul\":10314:10316   */\n      0x20\n        /* \"#utility.yul\":10306:10312   */\n      dup3\n        /* \"#utility.yul\":10302:10317   */\n      add\n        /* \"#utility.yul\":10295:10323   */\n      mstore\n        /* \"#utility.yul\":10110:10330   */\n      pop\n      jump\t// out\n        /* \"#utility.yul\":10336:10702   */\n    tag_149:\n        /* \"#utility.yul\":10478:10481   */\n      0x00\n        /* \"#utility.yul\":10499:10566   */\n      tag_250\n        /* \"#utility.yul\":10563:10565   */\n      0x21\n        /* \"#utility.yul\":10558:10561   */\n      dup4\n        /* \"#utility.yul\":10499:10566   */\n      tag_126\n      jump\t// in\n    tag_250:\n        /* \"#utility.yul\":10492:10566   */\n      swap2\n      pop\n        /* \"#utility.yul\":10575:10668   */\n      tag_251\n        /* \"#utility.yul\":10664:10667   */\n      dup3\n        /* \"#utility.yul\":10575:10668   */\n      tag_148\n      jump\t// in\n    tag_251:\n        /* \"#utility.yul\":10693:10695   */\n      0x40\n        /* \"#utility.yul\":10688:10691   */\n      dup3\n        /* \"#utility.yul\":10684:10696   */\n      add\n        /* \"#utility.yul\":10677:10696   */\n      swap1\n      pop\n        /* \"#utility.yul\":10336:10702   */\n      swap2\n      swap1\n      pop\n      jump\t// out\n        /* \"#utility.yul\":10708:11127   */\n    tag_113:\n        /* \"#utility.yul\":10874:10878   */\n      0x00\n        /* \"#utility.yul\":10912:10914   */\n      0x20\n        /* \"#utility.yul\":10901:10910   */\n      dup3\n        /* \"#utility.yul\":10897:10915   */\n      add\n        /* \"#utility.yul\":10889:10915   */\n      swap1\n      pop\n        /* \"#utility.yul\":10961:10970   */\n      dup2\n        /* \"#utility.yul\":10955:10959   */\n      dup2\n        /* \"#utility.yul\":10951:10971   */\n      sub\n        /* \"#utility.yul\":10947:10948   */\n      0x00\n        /* \"#utility.yul\":10936:10945   */\n      dup4\n        /* \"#utility.yul\":10932:10949   */\n      add\n        /* \"#utility.yul\":10925:10972   */\n      mstore\n        /* \"#utility.yul\":10989:11120   */\n      tag_253\n        /* \"#utility.yul\":11115:11119   */\n      dup2\n        /* \"#utility.yul\":10989:11120   */\n      tag_149\n      jump\t// in\n    tag_253:\n        /* \"#utility.yul\":10981:11120   */\n      swap1\n      pop\n        /* \"#utility.yul\":10708:11127   */\n      swap2\n      swap1\n      pop\n      jump\t// out\n\n    auxdata: 0xa2646970667358221220437b78de14a8c04007443d7d135625535cd8bdf1659f9f2493c5421403173dd464736f6c634300081e0033\n}\n",
				"bytecode": {
					"linkReferences": {},
					"object": "608060405234801561000f575f5ffd5b506040516112b13803806112b183398181016040528101906100319190610115565b8060015f6101000a81548173ffffffffffffffffffffffffffffffffffffffff021916908373ffffffffffffffffffffffffffffffffffffffff1602179055503360025f6101000a81548173ffffffffffffffffffffffffffffffffffffffff021916908373ffffffffffffffffffffffffffffffffffffffff16021790555050610140565b5f5ffd5b5f73ffffffffffffffffffffffffffffffffffffffff82169050919050565b5f6100e4826100bb565b9050919050565b6100f4816100da565b81146100fe575f5ffd5b50565b5f8151905061010f816100eb565b92915050565b5f6020828403121561012a576101296100b7565b5b5f61013784828501610101565b91505092915050565b6111648061014d5f395ff3fe608060405260043610610085575f3560e01c8063a89f407e11610058578063a89f407e14610143578063c88a16041461017f578063f06d3289146101a9578063f3275fc9146101c7578063fa47b8a5146101e557610085565b80633fa4f24514610089578063444fa747146100b3578063605b85ad146100ef578063700658b314610119575b5f5ffd5b348015610094575f5ffd5b5061009d610221565b6040516100aa9190610bdd565b60405180910390f35b3480156100be575f5ffd5b506100d960048036038101906100d49190610c31565b610226565b6040516100e69190610bdd565b60405180910390f35b3480156100fa575f5ffd5b50610103610343565b6040516101109190610c9b565b60405180910390f35b348015610124575f5ffd5b5061012d610368565b60405161013a9190610bdd565b60405180910390f35b34801561014e575f5ffd5b5061016960048036038101906101649190610c31565b6104d0565b6040516101769190610bdd565b60405180910390f35b34801561018a575f5ffd5b50610193610630565b6040516101a09190610d24565b60405180910390f35b6101b16106fc565b6040516101be9190610d24565b60405180910390f35b6101cf610797565b6040516101dc9190610d24565b60405180910390f35b3480156101f0575f5ffd5b5061020b60048036038101906102069190610c31565b610903565b6040516102189190610bdd565b60405180910390f35b5f5481565b5f60015f9054906101000a900473ffffffffffffffffffffffffffffffffffffffff1673ffffffffffffffffffffffffffffffffffffffff1663b0f2b72a836040518263ffffffff1660e01b81526004016102819190610bdd565b5f604051808303815f87803b158015610298575f5ffd5b505af11580156102aa573d5f5f3e3d5ffd5b5050505060015f9054906101000a900473ffffffffffffffffffffffffffffffffffffffff1673ffffffffffffffffffffffffffffffffffffffff166333cf50806040518163ffffffff1660e01b8152600401602060405180830381865afa158015610318573d5f5f3e3d5ffd5b505050506040513d601f19601f8201168201806040525081019061033c9190610d58565b9050919050565b60015f9054906101000a900473ffffffffffffffffffffffffffffffffffffffff1681565b5f5f5f60015f9054906101000a900473ffffffffffffffffffffffffffffffffffffffff1673ffffffffffffffffffffffffffffffffffffffff166040516024016040516020818303038152906040527f33cf5080000000000000000000000000000000000000000000000000000000007bffffffffffffffffffffffffffffffffffffffffffffffffffffffff19166020820180517bffffffffffffffffffffffffffffffffffffffffffffffffffffffff83818316178352505050506040516104339190610dc7565b5f60405180830381855afa9150503d805f811461046b576040519150601f19603f3d011682016040523d82523d5f602084013e610470565b606091505b5091509150816104b5576040517f08c379a00000000000000000000000000000000000000000000000000000000081526004016104ac90610e27565b60405180910390fd5b808060200190518101906104c99190610d58565b9250505090565b5f5f60015f9054906101000a900473ffffffffffffffffffffffffffffffffffffffff1673ffffffffffffffffffffffffffffffffffffffff168360405160240161051b9190610bdd565b6040516020818303038152906040527fb0f2b72a000000000000000000000000000000000000000000000000000000007bffffffffffffffffffffffffffffffffffffffffffffffffffffffff19166020820180517bffffffffffffffffffffffffffffffffffffffffffffffffffffffff83818316178352505050506040516105a59190610dc7565b5f60405180830381855af49150503d805f81146105dd576040519150601f19603f3d011682016040523d82523d5f602084013e6105e2565b606091505b5050905080610626576040517f08c379a000000000000000000000000000000000000000000000000000000000815260040161061d90610eb5565b60405180910390fd5b6001915050919050565b606060025f9054906101000a900473ffffffffffffffffffffffffffffffffffffffff1673ffffffffffffffffffffffffffffffffffffffff163373ffffffffffffffffffffffffffffffffffffffff16146106c1576040517f08c379a00000000000000000000000000000000000000000000000000000000081526004016106b890610f1d565b60405180910390fd5b6040518060400160405280600781526020017f5375636365737300000000000000000000000000000000000000000000000000815250905090565b606060015f9054906101000a900473ffffffffffffffffffffffffffffffffffffffff1673ffffffffffffffffffffffffffffffffffffffff16631b9265b8346040518263ffffffff1660e01b81526004015f6040518083038185885af1158015610769573d5f5f3e3d5ffd5b50505050506040513d5f823e3d601f19601f820116820180604052508101906107929190611059565b905090565b60605f5f60015f9054906101000a900473ffffffffffffffffffffffffffffffffffffffff1673ffffffffffffffffffffffffffffffffffffffff16346040516024016040516020818303038152906040527f1b9265b8000000000000000000000000000000000000000000000000000000007bffffffffffffffffffffffffffffffffffffffffffffffffffffffff19166020820180517bffffffffffffffffffffffffffffffffffffffffffffffffffffffff83818316178352505050506040516108649190610dc7565b5f6040518083038185875af1925050503d805f811461089e576040519150601f19603f3d011682016040523d82523d5f602084013e6108a3565b606091505b5091509150816108e8576040517f08c379a00000000000000000000000000000000000000000000000000000000081526004016108df90610e27565b60405180910390fd5b808060200190518101906108fc9190611059565b9250505090565b5f5f60015f9054906101000a900473ffffffffffffffffffffffffffffffffffffffff1673ffffffffffffffffffffffffffffffffffffffff168360405160240161094e9190610bdd565b6040516020818303038152906040527fb0f2b72a000000000000000000000000000000000000000000000000000000007bffffffffffffffffffffffffffffffffffffffffffffffffffffffff19166020820180517bffffffffffffffffffffffffffffffffffffffffffffffffffffffff83818316178352505050506040516109d89190610dc7565b5f604051808303815f865af19150503d805f8114610a11576040519150601f19603f3d011682016040523d82523d5f602084013e610a16565b606091505b5050905080610a5a576040517f08c379a0000000000000000000000000000000000000000000000000000000008152600401610a5190610eb5565b60405180910390fd5b5f5f60015f9054906101000a900473ffffffffffffffffffffffffffffffffffffffff1673ffffffffffffffffffffffffffffffffffffffff166040516024016040516020818303038152906040527f33cf5080000000000000000000000000000000000000000000000000000000007bffffffffffffffffffffffffffffffffffffffffffffffffffffffff19166020820180517bffffffffffffffffffffffffffffffffffffffffffffffffffffffff8381831617835250505050604051610b249190610dc7565b5f604051808303815f865af19150503d805f8114610b5d576040519150601f19603f3d011682016040523d82523d5f602084013e610b62565b606091505b509150915081610ba7576040517f08c379a0000000000000000000000000000000000000000000000000000000008152600401610b9e90611110565b60405180910390fd5b80806020019051810190610bbb9190610d58565b9350505050919050565b5f819050919050565b610bd781610bc5565b82525050565b5f602082019050610bf05f830184610bce565b92915050565b5f604051905090565b5f5ffd5b5f5ffd5b610c1081610bc5565b8114610c1a575f5ffd5b50565b5f81359050610c2b81610c07565b92915050565b5f60208284031215610c4657610c45610bff565b5b5f610c5384828501610c1d565b91505092915050565b5f73ffffffffffffffffffffffffffffffffffffffff82169050919050565b5f610c8582610c5c565b9050919050565b610c9581610c7b565b82525050565b5f602082019050610cae5f830184610c8c565b92915050565b5f81519050919050565b5f82825260208201905092915050565b8281835e5f83830152505050565b5f601f19601f8301169050919050565b5f610cf682610cb4565b610d008185610cbe565b9350610d10818560208601610cce565b610d1981610cdc565b840191505092915050565b5f6020820190508181035f830152610d3c8184610cec565b905092915050565b5f81519050610d5281610c07565b92915050565b5f60208284031215610d6d57610d6c610bff565b5b5f610d7a84828501610d44565b91505092915050565b5f81519050919050565b5f81905092915050565b5f610da182610d83565b610dab8185610d8d565b9350610dbb818560208601610cce565b80840191505092915050565b5f610dd28284610d97565b915081905092915050565b7f436f6e74726163742063616c6c696e67206572726f72000000000000000000005f82015250565b5f610e11601683610cbe565b9150610e1c82610ddd565b602082019050919050565b5f6020820190508181035f830152610e3e81610e05565b9050919050565b7f436f6e74726163742063616c6c696e67206572726f723a207365745f76616c755f8201527f6500000000000000000000000000000000000000000000000000000000000000602082015250565b5f610e9f602183610cbe565b9150610eaa82610e45565b604082019050919050565b5f6020820190508181035f830152610ecc81610e93565b9050919050565b7f596f75277265206e6f74206f776e6572000000000000000000000000000000005f82015250565b5f610f07601083610cbe565b9150610f1282610ed3565b602082019050919050565b5f6020820190508181035f830152610f3481610efb565b9050919050565b5f5ffd5b5f5ffd5b7f4e487b71000000000000000000000000000000000000000000000000000000005f52604160045260245ffd5b610f7982610cdc565b810181811067ffffffffffffffff82111715610f9857610f97610f43565b5b80604052505050565b5f610faa610bf6565b9050610fb68282610f70565b919050565b5f67ffffffffffffffff821115610fd557610fd4610f43565b5b610fde82610cdc565b9050602081019050919050565b5f610ffd610ff884610fbb565b610fa1565b90508281526020810184848401111561101957611018610f3f565b5b611024848285610cce565b509392505050565b5f82601f8301126110405761103f610f3b565b5b8151611050848260208601610feb565b91505092915050565b5f6020828403121561106e5761106d610bff565b5b5f82015167ffffffffffffffff81111561108b5761108a610c03565b5b6110978482850161102c565b91505092915050565b7f436f6e74726163742063616c6c696e67206572726f723a206765745f76616c755f8201527f6500000000000000000000000000000000000000000000000000000000000000602082015250565b5f6110fa602183610cbe565b9150611105826110a0565b604082019050919050565b5f6020820190508181035f830152611127816110ee565b905091905056fea2646970667358221220437b78de14a8c04007443d7d135625535cd8bdf1659f9f2493c5421403173dd464736f6c634300081e0033",
					"opcodes": "PUSH1 0x80 PUSH1 0x40 MSTORE CALLVALUE DUP1 ISZERO PUSH2 0xF JUMPI PUSH0 PUSH0 REVERT JUMPDEST POP PUSH1 0x40 MLOAD PUSH2 0x12B1 CODESIZE SUB DUP1 PUSH2 0x12B1 DUP4 CODECOPY DUP2 DUP2 ADD PUSH1 0x40 MSTORE DUP2 ADD SWAP1 PUSH2 0x31 SWAP2 SWAP1 PUSH2 0x115 JUMP JUMPDEST DUP1 PUSH1 0x1 PUSH0 PUSH2 0x100 EXP DUP2 SLOAD DUP2 PUSH20 0xFFFFFFFFFFFFFFFFFFFFFFFFFFFFFFFFFFFFFFFF MUL NOT AND SWAP1 DUP4 PUSH20 0xFFFFFFFFFFFFFFFFFFFFFFFFFFFFFFFFFFFFFFFF AND MUL OR SWAP1 SSTORE POP CALLER PUSH1 0x2 PUSH0 PUSH2 0x100 EXP DUP2 SLOAD DUP2 PUSH20 0xFFFFFFFFFFFFFFFFFFFFFFFFFFFFFFFFFFFFFFFF MUL NOT AND SWAP1 DUP4 PUSH20 0xFFFFFFFFFFFFFFFFFFFFFFFFFFFFFFFFFFFFFFFF AND MUL OR SWAP1 SSTORE POP POP PUSH2 0x140 JUMP JUMPDEST PUSH0 PUSH0 REVERT JUMPDEST PUSH0 PUSH20 0xFFFFFFFFFFFFFFFFFFFFFFFFFFFFFFFFFFFFFFFF DUP3 AND SWAP1 POP SWAP2 SWAP1 POP JUMP JUMPDEST PUSH0 PUSH2 0xE4 DUP3 PUSH2 0xBB JUMP JUMPDEST SWAP1 POP SWAP2 SWAP1 POP JUMP JUMPDEST PUSH2 0xF4 DUP2 PUSH2 0xDA JUMP JUMPDEST DUP2 EQ PUSH2 0xFE JUMPI PUSH0 PUSH0 REVERT JUMPDEST POP JUMP JUMPDEST PUSH0 DUP2 MLOAD SWAP1 POP PUSH2 0x10F DUP2 PUSH2 0xEB JUMP JUMPDEST SWAP3 SWAP2 POP POP JUMP JUMPDEST PUSH0 PUSH1 0x20 DUP3 DUP5 SUB SLT ISZERO PUSH2 0x12A JUMPI PUSH2 0x129 PUSH2 0xB7 JUMP JUMPDEST JUMPDEST PUSH0 PUSH2 0x137 DUP5 DUP3 DUP6 ADD PUSH2 0x101 JUMP JUMPDEST SWAP2 POP POP SWAP3 SWAP2 POP POP JUMP JUMPDEST PUSH2 0x1164 DUP1 PUSH2 0x14D PUSH0 CODECOPY PUSH0 RETURN INVALID PUSH1 0x80 PUSH1 0x40 MSTORE PUSH1 0x4 CALLDATASIZE LT PUSH2 0x85 JUMPI PUSH0 CALLDATALOAD PUSH1 0xE0 SHR DUP1 PUSH4 0xA89F407E GT PUSH2 0x58 JUMPI DUP1 PUSH4 0xA89F407E EQ PUSH2 0x143 JUMPI DUP1 PUSH4 0xC88A1604 EQ PUSH2 0x17F JUMPI DUP1 PUSH4 0xF06D3289 EQ PUSH2 0x1A9 JUMPI DUP1 PUSH4 0xF3275FC9 EQ PUSH2 0x1C7 JUMPI DUP1 PUSH4 0xFA47B8A5 EQ PUSH2 0x1E5 JUMPI PUSH2 0x85 JUMP JUMPDEST DUP1 PUSH4 0x3FA4F245 EQ PUSH2 0x89 JUMPI DUP1 PUSH4 0x444FA747 EQ PUSH2 0xB3 JUMPI DUP1 PUSH4 0x605B85AD EQ PUSH2 0xEF JUMPI DUP1 PUSH4 0x700658B3 EQ PUSH2 0x119 JUMPI JUMPDEST PUSH0 PUSH0 REVERT JUMPDEST CALLVALUE DUP1 ISZERO PUSH2 0x94 JUMPI PUSH0 PUSH0 REVERT JUMPDEST POP PUSH2 0x9D PUSH2 0x221 JUMP JUMPDEST PUSH1 0x40 MLOAD PUSH2 0xAA SWAP2 SWAP1 PUSH2 0xBDD JUMP JUMPDEST PUSH1 0x40 MLOAD DUP1 SWAP2 SUB SWAP1 RETURN JUMPDEST CALLVALUE DUP1 ISZERO PUSH2 0xBE JUMPI PUSH0 PUSH0 REVERT JUMPDEST POP PUSH2 0xD9 PUSH1 0x4 DUP1 CALLDATASIZE SUB DUP2 ADD SWAP1 PUSH2 0xD4 SWAP2 SWAP1 PUSH2 0xC31 JUMP JUMPDEST PUSH2 0x226 JUMP JUMPDEST PUSH1 0x40 MLOAD PUSH2 0xE6 SWAP2 SWAP1 PUSH2 0xBDD JUMP JUMPDEST PUSH1 0x40 MLOAD DUP1 SWAP2 SUB SWAP1 RETURN JUMPDEST CALLVALUE DUP1 ISZERO PUSH2 0xFA JUMPI PUSH0 PUSH0 REVERT JUMPDEST POP PUSH2 0x103 PUSH2 0x343 JUMP JUMPDEST PUSH1 0x40 MLOAD PUSH2 0x110 SWAP2 SWAP1 PUSH2 0xC9B JUMP JUMPDEST PUSH1 0x40 MLOAD DUP1 SWAP2 SUB SWAP1 RETURN JUMPDEST CALLVALUE DUP1 ISZERO PUSH2 0x124 JUMPI PUSH0 PUSH0 REVERT JUMPDEST POP PUSH2 0x12D PUSH2 0x368 JUMP JUMPDEST PUSH1 0x40 MLOAD PUSH2 0x13A SWAP2 SWAP1 PUSH2 0xBDD JUMP JUMPDEST PUSH1 0x40 MLOAD DUP1 SWAP2 SUB SWAP1 RETURN JUMPDEST CALLVALUE DUP1 ISZERO PUSH2 0x14E JUMPI PUSH0 PUSH0 REVERT JUMPDEST POP PUSH2 0x169 PUSH1 0x4 DUP1 CALLDATASIZE SUB DUP2 ADD SWAP1 PUSH2 0x164 SWAP2 SWAP1 PUSH2 0xC31 JUMP JUMPDEST PUSH2 0x4D0 JUMP JUMPDEST PUSH1 0x40 MLOAD PUSH2 0x176 SWAP2 SWAP1 PUSH2 0xBDD JUMP JUMPDEST PUSH1 0x40 MLOAD DUP1 SWAP2 SUB SWAP1 RETURN JUMPDEST CALLVALUE DUP1 ISZERO PUSH2 0x18A JUMPI PUSH0 PUSH0 REVERT JUMPDEST POP PUSH2 0x193 PUSH2 0x630 JUMP JUMPDEST PUSH1 0x40 MLOAD PUSH2 0x1A0 SWAP2 SWAP1 PUSH2 0xD24 JUMP JUMPDEST PUSH1 0x40 MLOAD DUP1 SWAP2 SUB SWAP1 RETURN JUMPDEST PUSH2 0x1B1 PUSH2 0x6FC JUMP JUMPDEST PUSH1 0x40 MLOAD PUSH2 0x1BE SWAP2 SWAP1 PUSH2 0xD24 JUMP JUMPDEST PUSH1 0x40 MLOAD DUP1 SWAP2 SUB SWAP1 RETURN JUMPDEST PUSH2 0x1CF PUSH2 0x797 JUMP JUMPDEST PUSH1 0x40 MLOAD PUSH2 0x1DC SWAP2 SWAP1 PUSH2 0xD24 JUMP JUMPDEST PUSH1 0x40 MLOAD DUP1 SWAP2 SUB SWAP1 RETURN JUMPDEST CALLVALUE DUP1 ISZERO PUSH2 0x1F0 JUMPI PUSH0 PUSH0 REVERT JUMPDEST POP PUSH2 0x20B PUSH1 0x4 DUP1 CALLDATASIZE SUB DUP2 ADD SWAP1 PUSH2 0x206 SWAP2 SWAP1 PUSH2 0xC31 JUMP JUMPDEST PUSH2 0x903 JUMP JUMPDEST PUSH1 0x40 MLOAD PUSH2 0x218 SWAP2 SWAP1 PUSH2 0xBDD JUMP JUMPDEST PUSH1 0x40 MLOAD DUP1 SWAP2 SUB SWAP1 RETURN JUMPDEST PUSH0 SLOAD DUP2 JUMP JUMPDEST PUSH0 PUSH1 0x1 PUSH0 SWAP1 SLOAD SWAP1 PUSH2 0x100 EXP SWAP1 DIV PUSH20 0xFFFFFFFFFFFFFFFFFFFFFFFFFFFFFFFFFFFFFFFF AND PUSH20 0xFFFFFFFFFFFFFFFFFFFFFFFFFFFFFFFFFFFFFFFF AND PUSH4 0xB0F2B72A DUP4 PUSH1 0x40 MLOAD DUP3 PUSH4 0xFFFFFFFF AND PUSH1 0xE0 SHL DUP2 MSTORE PUSH1 0x4 ADD PUSH2 0x281 SWAP2 SWAP1 PUSH2 0xBDD JUMP JUMPDEST PUSH0 PUSH1 0x40 MLOAD DUP1 DUP4 SUB DUP2 PUSH0 DUP8 DUP1 EXTCODESIZE ISZERO DUP1 ISZERO PUSH2 0x298 JUMPI PUSH0 PUSH0 REVERT JUMPDEST POP GAS CALL ISZERO DUP1 ISZERO PUSH2 0x2AA JUMPI RETURNDATASIZE PUSH0 PUSH0 RETURNDATACOPY RETURNDATASIZE PUSH0 REVERT JUMPDEST POP POP POP POP PUSH1 0x1 PUSH0 SWAP1 SLOAD SWAP1 PUSH2 0x100 EXP SWAP1 DIV PUSH20 0xFFFFFFFFFFFFFFFFFFFFFFFFFFFFFFFFFFFFFFFF AND PUSH20 0xFFFFFFFFFFFFFFFFFFFFFFFFFFFFFFFFFFFFFFFF AND PUSH4 0x33CF5080 PUSH1 0x40 MLOAD DUP2 PUSH4 0xFFFFFFFF AND PUSH1 0xE0 SHL DUP2 MSTORE PUSH1 0x4 ADD PUSH1 0x20 PUSH1 0x40 MLOAD DUP1 DUP4 SUB DUP2 DUP7 GAS STATICCALL ISZERO DUP1 ISZERO PUSH2 0x318 JUMPI RETURNDATASIZE PUSH0 PUSH0 RETURNDATACOPY RETURNDATASIZE PUSH0 REVERT JUMPDEST POP POP POP POP PUSH1 0x40 MLOAD RETURNDATASIZE PUSH1 0x1F NOT PUSH1 0x1F DUP3 ADD AND DUP3 ADD DUP1 PUSH1 0x40 MSTORE POP DUP2 ADD SWAP1 PUSH2 0x33C SWAP2 SWAP1 PUSH2 0xD58 JUMP JUMPDEST SWAP1 POP SWAP2 SWAP1 POP JUMP JUMPDEST PUSH1 0x1 PUSH0 SWAP1 SLOAD SWAP1 PUSH2 0x100 EXP SWAP1 DIV PUSH20 0xFFFFFFFFFFFFFFFFFFFFFFFFFFFFFFFFFFFFFFFF AND DUP2 JUMP JUMPDEST PUSH0 PUSH0 PUSH0 PUSH1 0x1 PUSH0 SWAP1 SLOAD SWAP1 PUSH2 0x100 EXP SWAP1 DIV PUSH20 0xFFFFFFFFFFFFFFFFFFFFFFFFFFFFFFFFFFFFFFFF AND PUSH20 0xFFFFFFFFFFFFFFFFFFFFFFFFFFFFFFFFFFFFFFFF AND PUSH1 0x40 MLOAD PUSH1 0x24 ADD PUSH1 0x40 MLOAD PUSH1 0x20 DUP2 DUP4 SUB SUB DUP2 MSTORE SWAP1 PUSH1 0x40 MSTORE PUSH32 0x33CF508000000000000000000000000000000000000000000000000000000000 PUSH28 0xFFFFFFFFFFFFFFFFFFFFFFFFFFFFFFFFFFFFFFFFFFFFFFFFFFFFFFFF NOT AND PUSH1 0x20 DUP3 ADD DUP1 MLOAD PUSH28 0xFFFFFFFFFFFFFFFFFFFFFFFFFFFFFFFFFFFFFFFFFFFFFFFFFFFFFFFF DUP4 DUP2 DUP4 AND OR DUP4 MSTORE POP POP POP POP PUSH1 0x40 MLOAD PUSH2 0x433 SWAP2 SWAP1 PUSH2 0xDC7 JUMP JUMPDEST PUSH0 PUSH1 0x40 MLOAD DUP1 DUP4 SUB DUP2 DUP6 GAS STATICCALL SWAP2 POP POP RETURNDATASIZE DUP1 PUSH0 DUP2 EQ PUSH2 0x46B JUMPI PUSH1 0x40 MLOAD SWAP2 POP PUSH1 0x1F NOT PUSH1 0x3F RETURNDATASIZE ADD AND DUP3 ADD PUSH1 0x40 MSTORE RETURNDATASIZE DUP3 MSTORE RETURNDATASIZE PUSH0 PUSH1 0x20 DUP5 ADD RETURNDATACOPY PUSH2 0x470 JUMP JUMPDEST PUSH1 0x60 SWAP2 POP JUMPDEST POP SWAP2 POP SWAP2 POP DUP2 PUSH2 0x4B5 JUMPI PUSH1 0x40 MLOAD PUSH32 0x8C379A000000000000000000000000000000000000000000000000000000000 DUP2 MSTORE PUSH1 0x4 ADD PUSH2 0x4AC SWAP1 PUSH2 0xE27 JUMP JUMPDEST PUSH1 0x40 MLOAD DUP1 SWAP2 SUB SWAP1 REVERT JUMPDEST DUP1 DUP1 PUSH1 0x20 ADD SWAP1 MLOAD DUP2 ADD SWAP1 PUSH2 0x4C9 SWAP2 SWAP1 PUSH2 0xD58 JUMP JUMPDEST SWAP3 POP POP POP SWAP1 JUMP JUMPDEST PUSH0 PUSH0 PUSH1 0x1 PUSH0 SWAP1 SLOAD SWAP1 PUSH2 0x100 EXP SWAP1 DIV PUSH20 0xFFFFFFFFFFFFFFFFFFFFFFFFFFFFFFFFFFFFFFFF AND PUSH20 0xFFFFFFFFFFFFFFFFFFFFFFFFFFFFFFFFFFFFFFFF AND DUP4 PUSH1 0x40 MLOAD PUSH1 0x24 ADD PUSH2 0x51B SWAP2 SWAP1 PUSH2 0xBDD JUMP JUMPDEST PUSH1 0x40 MLOAD PUSH1 0x20 DUP2 DUP4 SUB SUB DUP2 MSTORE SWAP1 PUSH1 0x40 MSTORE PUSH32 0xB0F2B72A00000000000000000000000000000000000000000000000000000000 PUSH28 0xFFFFFFFFFFFFFFFFFFFFFFFFFFFFFFFFFFFFFFFFFFFFFFFFFFFFFFFF NOT AND PUSH1 0x20 DUP3 ADD DUP1 MLOAD PUSH28 0xFFFFFFFFFFFFFFFFFFFFFFFFFFFFFFFFFFFFFFFFFFFFFFFFFFFFFFFF DUP4 DUP2 DUP4 AND OR DUP4 MSTORE POP POP POP POP PUSH1 0x40 MLOAD PUSH2 0x5A5 SWAP2 SWAP1 PUSH2 0xDC7 JUMP JUMPDEST PUSH0 PUSH1 0x40 MLOAD DUP1 DUP4 SUB DUP2 DUP6 GAS DELEGATECALL SWAP2 POP POP RETURNDATASIZE DUP1 PUSH0 DUP2 EQ PUSH2 0x5DD JUMPI PUSH1 0x40 MLOAD SWAP2 POP PUSH1 0x1F NOT PUSH1 0x3F RETURNDATASIZE ADD AND DUP3 ADD PUSH1 0x40 MSTORE RETURNDATASIZE DUP3 MSTORE RETURNDATASIZE PUSH0 PUSH1 0x20 DUP5 ADD RETURNDATACOPY PUSH2 0x5E2 JUMP JUMPDEST PUSH1 0x60 SWAP2 POP JUMPDEST POP POP SWAP1 POP DUP1 PUSH2 0x626 JUMPI PUSH1 0x40 MLOAD PUSH32 0x8C379A000000000000000000000000000000000000000000000000000000000 DUP2 MSTORE PUSH1 0x4 ADD PUSH2 0x61D SWAP1 PUSH2 0xEB5 JUMP JUMPDEST PUSH1 0x40 MLOAD DUP1 SWAP2 SUB SWAP1 REVERT JUMPDEST PUSH1 0x1 SWAP2 POP POP SWAP2 SWAP1 POP JUMP JUMPDEST PUSH1 0x60 PUSH1 0x2 PUSH0 SWAP1 SLOAD SWAP1 PUSH2 0x100 EXP SWAP1 DIV PUSH20 0xFFFFFFFFFFFFFFFFFFFFFFFFFFFFFFFFFFFFFFFF AND PUSH20 0xFFFFFFFFFFFFFFFFFFFFFFFFFFFFFFFFFFFFFFFF AND CALLER PUSH20 0xFFFFFFFFFFFFFFFFFFFFFFFFFFFFFFFFFFFFFFFF AND EQ PUSH2 0x6C1 JUMPI PUSH1 0x40 MLOAD PUSH32 0x8C379A000000000000000000000000000000000000000000000000000000000 DUP2 MSTORE PUSH1 0x4 ADD PUSH2 0x6B8 SWAP1 PUSH2 0xF1D JUMP JUMPDEST PUSH1 0x40 MLOAD DUP1 SWAP2 SUB SWAP1 REVERT JUMPDEST PUSH1 0x40 MLOAD DUP1 PUSH1 0x40 ADD PUSH1 0x40 MSTORE DUP1 PUSH1 0x7 DUP2 MSTORE PUSH1 0x20 ADD PUSH32 0x5375636365737300000000000000000000000000000000000000000000000000 DUP2 MSTORE POP SWAP1 POP SWAP1 JUMP JUMPDEST PUSH1 0x60 PUSH1 0x1 PUSH0 SWAP1 SLOAD SWAP1 PUSH2 0x100 EXP SWAP1 DIV PUSH20 0xFFFFFFFFFFFFFFFFFFFFFFFFFFFFFFFFFFFFFFFF AND PUSH20 0xFFFFFFFFFFFFFFFFFFFFFFFFFFFFFFFFFFFFFFFF AND PUSH4 0x1B9265B8 CALLVALUE PUSH1 0x40 MLOAD DUP3 PUSH4 0xFFFFFFFF AND PUSH1 0xE0 SHL DUP2 MSTORE PUSH1 0x4 ADD PUSH0 PUSH1 0x40 MLOAD DUP1 DUP4 SUB DUP2 DUP6 DUP9 GAS CALL ISZERO DUP1 ISZERO PUSH2 0x769 JUMPI RETURNDATASIZE PUSH0 PUSH0 RETURNDATACOPY RETURNDATASIZE PUSH0 REVERT JUMPDEST POP POP POP POP POP PUSH1 0x40 MLOAD RETURNDATASIZE PUSH0 DUP3 RETURNDATACOPY RETURNDATASIZE PUSH1 0x1F NOT PUSH1 0x1F DUP3 ADD AND DUP3 ADD DUP1 PUSH1 0x40 MSTORE POP DUP2 ADD SWAP1 PUSH2 0x792 SWAP2 SWAP1 PUSH2 0x1059 JUMP JUMPDEST SWAP1 POP SWAP1 JUMP JUMPDEST PUSH1 0x60 PUSH0 PUSH0 PUSH1 0x1 PUSH0 SWAP1 SLOAD SWAP1 PUSH2 0x100 EXP SWAP1 DIV PUSH20 0xFFFFFFFFFFFFFFFFFFFFFFFFFFFFFFFFFFFFFFFF AND PUSH20 0xFFFFFFFFFFFFFFFFFFFFFFFFFFFFFFFFFFFFFFFF AND CALLVALUE PUSH1 0x40 MLOAD PUSH1 0x24 ADD PUSH1 0x40 MLOAD PUSH1 0x20 DUP2 DUP4 SUB SUB DUP2 MSTORE SWAP1 PUSH1 0x40 MSTORE PUSH32 0x1B9265B800000000000000000000000000000000000000000000000000000000 PUSH28 0xFFFFFFFFFFFFFFFFFFFFFFFFFFFFFFFFFFFFFFFFFFFFFFFFFFFFFFFF NOT AND PUSH1 0x20 DUP3 ADD DUP1 MLOAD PUSH28 0xFFFFFFFFFFFFFFFFFFFFFFFFFFFFFFFFFFFFFFFFFFFFFFFFFFFFFFFF DUP4 DUP2 DUP4 AND OR DUP4 MSTORE POP POP POP POP PUSH1 0x40 MLOAD PUSH2 0x864 SWAP2 SWAP1 PUSH2 0xDC7 JUMP JUMPDEST PUSH0 PUSH1 0x40 MLOAD DUP1 DUP4 SUB DUP2 DUP6 DUP8 GAS CALL SWAP3 POP POP POP RETURNDATASIZE DUP1 PUSH0 DUP2 EQ PUSH2 0x89E JUMPI PUSH1 0x40 MLOAD SWAP2 POP PUSH1 0x1F NOT PUSH1 0x3F RETURNDATASIZE ADD AND DUP3 ADD PUSH1 0x40 MSTORE RETURNDATASIZE DUP3 MSTORE RETURNDATASIZE PUSH0 PUSH1 0x20 DUP5 ADD RETURNDATACOPY PUSH2 0x8A3 JUMP JUMPDEST PUSH1 0x60 SWAP2 POP JUMPDEST POP SWAP2 POP SWAP2 POP DUP2 PUSH2 0x8E8 JUMPI PUSH1 0x40 MLOAD PUSH32 0x8C379A000000000000000000000000000000000000000000000000000000000 DUP2 MSTORE PUSH1 0x4 ADD PUSH2 0x8DF SWAP1 PUSH2 0xE27 JUMP JUMPDEST PUSH1 0x40 MLOAD DUP1 SWAP2 SUB SWAP1 REVERT JUMPDEST DUP1 DUP1 PUSH1 0x20 ADD SWAP1 MLOAD DUP2 ADD SWAP1 PUSH2 0x8FC SWAP2 SWAP1 PUSH2 0x1059 JUMP JUMPDEST SWAP3 POP POP POP SWAP1 JUMP JUMPDEST PUSH0 PUSH0 PUSH1 0x1 PUSH0 SWAP1 SLOAD SWAP1 PUSH2 0x100 EXP SWAP1 DIV PUSH20 0xFFFFFFFFFFFFFFFFFFFFFFFFFFFFFFFFFFFFFFFF AND PUSH20 0xFFFFFFFFFFFFFFFFFFFFFFFFFFFFFFFFFFFFFFFF AND DUP4 PUSH1 0x40 MLOAD PUSH1 0x24 ADD PUSH2 0x94E SWAP2 SWAP1 PUSH2 0xBDD JUMP JUMPDEST PUSH1 0x40 MLOAD PUSH1 0x20 DUP2 DUP4 SUB SUB DUP2 MSTORE SWAP1 PUSH1 0x40 MSTORE PUSH32 0xB0F2B72A00000000000000000000000000000000000000000000000000000000 PUSH28 0xFFFFFFFFFFFFFFFFFFFFFFFFFFFFFFFFFFFFFFFFFFFFFFFFFFFFFFFF NOT AND PUSH1 0x20 DUP3 ADD DUP1 MLOAD PUSH28 0xFFFFFFFFFFFFFFFFFFFFFFFFFFFFFFFFFFFFFFFFFFFFFFFFFFFFFFFF DUP4 DUP2 DUP4 AND OR DUP4 MSTORE POP POP POP POP PUSH1 0x40 MLOAD PUSH2 0x9D8 SWAP2 SWAP1 PUSH2 0xDC7 JUMP JUMPDEST PUSH0 PUSH1 0x40 MLOAD DUP1 DUP4 SUB DUP2 PUSH0 DUP7 GAS CALL SWAP2 POP POP RETURNDATASIZE DUP1 PUSH0 DUP2 EQ PUSH2 0xA11 JUMPI PUSH1 0x40 MLOAD SWAP2 POP PUSH1 0x1F NOT PUSH1 0x3F RETURNDATASIZE ADD AND DUP3 ADD PUSH1 0x40 MSTORE RETURNDATASIZE DUP3 MSTORE RETURNDATASIZE PUSH0 PUSH1 0x20 DUP5 ADD RETURNDATACOPY PUSH2 0xA16 JUMP JUMPDEST PUSH1 0x60 SWAP2 POP JUMPDEST POP POP SWAP1 POP DUP1 PUSH2 0xA5A JUMPI PUSH1 0x40 MLOAD PUSH32 0x8C379A000000000000000000000000000000000000000000000000000000000 DUP2 MSTORE PUSH1 0x4 ADD PUSH2 0xA51 SWAP1 PUSH2 0xEB5 JUMP JUMPDEST PUSH1 0x40 MLOAD DUP1 SWAP2 SUB SWAP1 REVERT JUMPDEST PUSH0 PUSH0 PUSH1 0x1 PUSH0 SWAP1 SLOAD SWAP1 PUSH2 0x100 EXP SWAP1 DIV PUSH20 0xFFFFFFFFFFFFFFFFFFFFFFFFFFFFFFFFFFFFFFFF AND PUSH20 0xFFFFFFFFFFFFFFFFFFFFFFFFFFFFFFFFFFFFFFFF AND PUSH1 0x40 MLOAD PUSH1 0x24 ADD PUSH1 0x40 MLOAD PUSH1 0x20 DUP2 DUP4 SUB SUB DUP2 MSTORE SWAP1 PUSH1 0x40 MSTORE PUSH32 0x33CF508000000000000000000000000000000000000000000000000000000000 PUSH28 0xFFFFFFFFFFFFFFFFFFFFFFFFFFFFFFFFFFFFFFFFFFFFFFFFFFFFFFFF NOT AND PUSH1 0x20 DUP3 ADD DUP1 MLOAD PUSH28 0xFFFFFFFFFFFFFFFFFFFFFFFFFFFFFFFFFFFFFFFFFFFFFFFFFFFFFFFF DUP4 DUP2 DUP4 AND OR DUP4 MSTORE POP POP POP POP PUSH1 0x40 MLOAD PUSH2 0xB24 SWAP2 SWAP1 PUSH2 0xDC7 JUMP JUMPDEST PUSH0 PUSH1 0x40 MLOAD DUP1 DUP4 SUB DUP2 PUSH0 DUP7 GAS CALL SWAP2 POP POP RETURNDATASIZE DUP1 PUSH0 DUP2 EQ PUSH2 0xB5D JUMPI PUSH1 0x40 MLOAD SWAP2 POP PUSH1 0x1F NOT PUSH1 0x3F RETURNDATASIZE ADD AND DUP3 ADD PUSH1 0x40 MSTORE RETURNDATASIZE DUP3 MSTORE RETURNDATASIZE PUSH0 PUSH1 0x20 DUP5 ADD RETURNDATACOPY PUSH2 0xB62 JUMP JUMPDEST PUSH1 0x60 SWAP2 POP JUMPDEST POP SWAP2 POP SWAP2 POP DUP2 PUSH2 0xBA7 JUMPI PUSH1 0x40 MLOAD PUSH32 0x8C379A000000000000000000000000000000000000000000000000000000000 DUP2 MSTORE PUSH1 0x4 ADD PUSH2 0xB9E SWAP1 PUSH2 0x1110 JUMP JUMPDEST PUSH1 0x40 MLOAD DUP1 SWAP2 SUB SWAP1 REVERT JUMPDEST DUP1 DUP1 PUSH1 0x20 ADD SWAP1 MLOAD DUP2 ADD SWAP1 PUSH2 0xBBB SWAP2 SWAP1 PUSH2 0xD58 JUMP JUMPDEST SWAP4 POP POP POP POP SWAP2 SWAP1 POP JUMP JUMPDEST PUSH0 DUP2 SWAP1 POP SWAP2 SWAP1 POP JUMP JUMPDEST PUSH2 0xBD7 DUP2 PUSH2 0xBC5 JUMP JUMPDEST DUP3 MSTORE POP POP JUMP JUMPDEST PUSH0 PUSH1 0x20 DUP3 ADD SWAP1 POP PUSH2 0xBF0 PUSH0 DUP4 ADD DUP5 PUSH2 0xBCE JUMP JUMPDEST SWAP3 SWAP2 POP POP JUMP JUMPDEST PUSH0 PUSH1 0x40 MLOAD SWAP1 POP SWAP1 JUMP JUMPDEST PUSH0 PUSH0 REVERT JUMPDEST PUSH0 PUSH0 REVERT JUMPDEST PUSH2 0xC10 DUP2 PUSH2 0xBC5 JUMP JUMPDEST DUP2 EQ PUSH2 0xC1A JUMPI PUSH0 PUSH0 REVERT JUMPDEST POP JUMP JUMPDEST PUSH0 DUP2 CALLDATALOAD SWAP1 POP PUSH2 0xC2B DUP2 PUSH2 0xC07 JUMP JUMPDEST SWAP3 SWAP2 POP POP JUMP JUMPDEST PUSH0 PUSH1 0x20 DUP3 DUP5 SUB SLT ISZERO PUSH2 0xC46 JUMPI PUSH2 0xC45 PUSH2 0xBFF JUMP JUMPDEST JUMPDEST PUSH0 PUSH2 0xC53 DUP5 DUP3 DUP6 ADD PUSH2 0xC1D JUMP JUMPDEST SWAP2 POP POP SWAP3 SWAP2 POP POP JUMP JUMPDEST PUSH0 PUSH20 0xFFFFFFFFFFFFFFFFFFFFFFFFFFFFFFFFFFFFFFFF DUP3 AND SWAP1 POP SWAP2 SWAP1 POP JUMP JUMPDEST PUSH0 PUSH2 0xC85 DUP3 PUSH2 0xC5C JUMP JUMPDEST SWAP1 POP SWAP2 SWAP1 POP JUMP JUMPDEST PUSH2 0xC95 DUP2 PUSH2 0xC7B JUMP JUMPDEST DUP3 MSTORE POP POP JUMP JUMPDEST PUSH0 PUSH1 0x20 DUP3 ADD SWAP1 POP PUSH2 0xCAE PUSH0 DUP4 ADD DUP5 PUSH2 0xC8C JUMP JUMPDEST SWAP3 SWAP2 POP POP JUMP JUMPDEST PUSH0 DUP2 MLOAD SWAP1 POP SWAP2 SWAP1 POP JUMP JUMPDEST PUSH0 DUP3 DUP3 MSTORE PUSH1 0x20 DUP3 ADD SWAP1 POP SWAP3 SWAP2 POP POP JUMP JUMPDEST DUP3 DUP2 DUP4 MCOPY PUSH0 DUP4 DUP4 ADD MSTORE POP POP POP JUMP JUMPDEST PUSH0 PUSH1 0x1F NOT PUSH1 0x1F DUP4 ADD AND SWAP1 POP SWAP2 SWAP1 POP JUMP JUMPDEST PUSH0 PUSH2 0xCF6 DUP3 PUSH2 0xCB4 JUMP JUMPDEST PUSH2 0xD00 DUP2 DUP6 PUSH2 0xCBE JUMP JUMPDEST SWAP4 POP PUSH2 0xD10 DUP2 DUP6 PUSH1 0x20 DUP7 ADD PUSH2 0xCCE JUMP JUMPDEST PUSH2 0xD19 DUP2 PUSH2 0xCDC JUMP JUMPDEST DUP5 ADD SWAP2 POP POP SWAP3 SWAP2 POP POP JUMP JUMPDEST PUSH0 PUSH1 0x20 DUP3 ADD SWAP1 POP DUP2 DUP2 SUB PUSH0 DUP4 ADD MSTORE PUSH2 0xD3C DUP2 DUP5 PUSH2 0xCEC JUMP JUMPDEST SWAP1 POP SWAP3 SWAP2 POP POP JUMP JUMPDEST PUSH0 DUP2 MLOAD SWAP1 POP PUSH2 0xD52 DUP2 PUSH2 0xC07 JUMP JUMPDEST SWAP3 SWAP2 POP POP JUMP JUMPDEST PUSH0 PUSH1 0x20 DUP3 DUP5 SUB SLT ISZERO PUSH2 0xD6D JUMPI PUSH2 0xD6C PUSH2 0xBFF JUMP JUMPDEST JUMPDEST PUSH0 PUSH2 0xD7A DUP5 DUP3 DUP6 ADD PUSH2 0xD44 JUMP JUMPDEST SWAP2 POP POP SWAP3 SWAP2 POP POP JUMP JUMPDEST PUSH0 DUP2 MLOAD SWAP1 POP SWAP2 SWAP1 POP JUMP JUMPDEST PUSH0 DUP2 SWAP1 POP SWAP3 SWAP2 POP POP JUMP JUMPDEST PUSH0 PUSH2 0xDA1 DUP3 PUSH2 0xD83 JUMP JUMPDEST PUSH2 0xDAB DUP2 DUP6 PUSH2 0xD8D JUMP JUMPDEST SWAP4 POP PUSH2 0xDBB DUP2 DUP6 PUSH1 0x20 DUP7 ADD PUSH2 0xCCE JUMP JUMPDEST DUP1 DUP5 ADD SWAP2 POP POP SWAP3 SWAP2 POP POP JUMP JUMPDEST PUSH0 PUSH2 0xDD2 DUP3 DUP5 PUSH2 0xD97 JUMP JUMPDEST SWAP2 POP DUP2 SWAP1 POP SWAP3 SWAP2 POP POP JUMP JUMPDEST PUSH32 0x436F6E74726163742063616C6C696E67206572726F7200000000000000000000 PUSH0 DUP3 ADD MSTORE POP JUMP JUMPDEST PUSH0 PUSH2 0xE11 PUSH1 0x16 DUP4 PUSH2 0xCBE JUMP JUMPDEST SWAP2 POP PUSH2 0xE1C DUP3 PUSH2 0xDDD JUMP JUMPDEST PUSH1 0x20 DUP3 ADD SWAP1 POP SWAP2 SWAP1 POP JUMP JUMPDEST PUSH0 PUSH1 0x20 DUP3 ADD SWAP1 POP DUP2 DUP2 SUB PUSH0 DUP4 ADD MSTORE PUSH2 0xE3E DUP2 PUSH2 0xE05 JUMP JUMPDEST SWAP1 POP SWAP2 SWAP1 POP JUMP JUMPDEST PUSH32 0x436F6E74726163742063616C6C696E67206572726F723A207365745F76616C75 PUSH0 DUP3 ADD MSTORE PUSH32 0x6500000000000000000000000000000000000000000000000000000000000000 PUSH1 0x20 DUP3 ADD MSTORE POP JUMP JUMPDEST PUSH0 PUSH2 0xE9F PUSH1 0x21 DUP4 PUSH2 0xCBE JUMP JUMPDEST SWAP2 POP PUSH2 0xEAA DUP3 PUSH2 0xE45 JUMP JUMPDEST PUSH1 0x40 DUP3 ADD SWAP1 POP SWAP2 SWAP1 POP JUMP JUMPDEST PUSH0 PUSH1 0x20 DUP3 ADD SWAP1 POP DUP2 DUP2 SUB PUSH0 DUP4 ADD MSTORE PUSH2 0xECC DUP2 PUSH2 0xE93 JUMP JUMPDEST SWAP1 POP SWAP2 SWAP1 POP JUMP JUMPDEST PUSH32 0x596F75277265206E6F74206F776E657200000000000000000000000000000000 PUSH0 DUP3 ADD MSTORE POP JUMP JUMPDEST PUSH0 PUSH2 0xF07 PUSH1 0x10 DUP4 PUSH2 0xCBE JUMP JUMPDEST SWAP2 POP PUSH2 0xF12 DUP3 PUSH2 0xED3 JUMP JUMPDEST PUSH1 0x20 DUP3 ADD SWAP1 POP SWAP2 SWAP1 POP JUMP JUMPDEST PUSH0 PUSH1 0x20 DUP3 ADD SWAP1 POP DUP2 DUP2 SUB PUSH0 DUP4 ADD MSTORE PUSH2 0xF34 DUP2 PUSH2 0xEFB JUMP JUMPDEST SWAP1 POP SWAP2 SWAP1 POP JUMP JUMPDEST PUSH0 PUSH0 REVERT JUMPDEST PUSH0 PUSH0 REVERT JUMPDEST PUSH32 0x4E487B7100000000000000000000000000000000000000000000000000000000 PUSH0 MSTORE PUSH1 0x41 PUSH1 0x4 MSTORE PUSH1 0x24 PUSH0 REVERT JUMPDEST PUSH2 0xF79 DUP3 PUSH2 0xCDC JUMP JUMPDEST DUP2 ADD DUP2 DUP2 LT PUSH8 0xFFFFFFFFFFFFFFFF DUP3 GT OR ISZERO PUSH2 0xF98 JUMPI PUSH2 0xF97 PUSH2 0xF43 JUMP JUMPDEST JUMPDEST DUP1 PUSH1 0x40 MSTORE POP POP POP JUMP JUMPDEST PUSH0 PUSH2 0xFAA PUSH2 0xBF6 JUMP JUMPDEST SWAP1 POP PUSH2 0xFB6 DUP3 DUP3 PUSH2 0xF70 JUMP JUMPDEST SWAP2 SWAP1 POP JUMP JUMPDEST PUSH0 PUSH8 0xFFFFFFFFFFFFFFFF DUP3 GT ISZERO PUSH2 0xFD5 JUMPI PUSH2 0xFD4 PUSH2 0xF43 JUMP JUMPDEST JUMPDEST PUSH2 0xFDE DUP3 PUSH2 0xCDC JUMP JUMPDEST SWAP1 POP PUSH1 0x20 DUP2 ADD SWAP1 POP SWAP2 SWAP1 POP JUMP JUMPDEST PUSH0 PUSH2 0xFFD PUSH2 0xFF8 DUP5 PUSH2 0xFBB JUMP JUMPDEST PUSH2 0xFA1 JUMP JUMPDEST SWAP1 POP DUP3 DUP2 MSTORE PUSH1 0x20 DUP2 ADD DUP5 DUP5 DUP5 ADD GT ISZERO PUSH2 0x1019 JUMPI PUSH2 0x1018 PUSH2 0xF3F JUMP JUMPDEST JUMPDEST PUSH2 0x1024 DUP5 DUP3 DUP6 PUSH2 0xCCE JUMP JUMPDEST POP SWAP4 SWAP3 POP POP POP JUMP JUMPDEST PUSH0 DUP3 PUSH1 0x1F DUP4 ADD SLT PUSH2 0x1040 JUMPI PUSH2 0x103F PUSH2 0xF3B JUMP JUMPDEST JUMPDEST DUP2 MLOAD PUSH2 0x1050 DUP5 DUP3 PUSH1 0x20 DUP7 ADD PUSH2 0xFEB JUMP JUMPDEST SWAP2 POP POP SWAP3 SWAP2 POP POP JUMP JUMPDEST PUSH0 PUSH1 0x20 DUP3 DUP5 SUB SLT ISZERO PUSH2 0x106E JUMPI PUSH2 0x106D PUSH2 0xBFF JUMP JUMPDEST JUMPDEST PUSH0 DUP3 ADD MLOAD PUSH8 0xFFFFFFFFFFFFFFFF DUP2 GT ISZERO PUSH2 0x108B JUMPI PUSH2 0x108A PUSH2 0xC03 JUMP JUMPDEST JUMPDEST PUSH2 0x1097 DUP5 DUP3 DUP6 ADD PUSH2 0x102C JUMP JUMPDEST SWAP2 POP POP SWAP3 SWAP2 POP POP JUMP JUMPDEST PUSH32 0x436F6E74726163742063616C6C696E67206572726F723A206765745F76616C75 PUSH0 DUP3 ADD MSTORE PUSH32 0x6500000000000000000000000000000000000000000000000000000000000000 PUSH1 0x20 DUP3 ADD MSTORE POP JUMP JUMPDEST PUSH0 PUSH2 0x10FA PUSH1 0x21 DUP4 PUSH2 0xCBE JUMP JUMPDEST SWAP2 POP PUSH2 0x1105 DUP3 PUSH2 0x10A0 JUMP JUMPDEST PUSH1 0x40 DUP3 ADD SWAP1 POP SWAP2 SWAP1 POP JUMP JUMPDEST PUSH0 PUSH1 0x20 DUP3 ADD SWAP1 POP DUP2 DUP2 SUB PUSH0 DUP4 ADD MSTORE PUSH2 0x1127 DUP2 PUSH2 0x10EE JUMP JUMPDEST SWAP1 POP SWAP2 SWAP1 POP JUMP INVALID LOG2 PUSH5 0x6970667358 0x22 SLT KECCAK256 NUMBER PUSH28 0x78DE14A8C04007443D7D135625535CD8BDF1659F9F2493C542140317 RETURNDATASIZE 0xD4 PUSH5 0x736F6C6343 STOP ADDMOD 0x1E STOP CALLER "
				},
				"gasEstimates": {
					"creation": {
						"codeDepositCost": "890400",
						"executionCost": "infinite",
						"totalCost": "infinite"
					},
					"external": {
						"callPayable()": "infinite",
						"callSetValue(uint256)": "infinite",
						"contract_a()": "2553",
						"delegateSetValue(uint256)": "infinite",
						"interface_call(uint256)": "infinite",
						"only_owner()": "infinite",
						"payable_interface_call()": "infinite",
						"static_call()": "infinite",
						"value()": "2425"
					}
				},
				"methodIdentifiers": {
					"callPayable()": "f3275fc9",
					"callSetValue(uint256)": "fa47b8a5",
					"contract_a()": "605b85ad",
					"delegateSetValue(uint256)": "a89f407e",
					"interface_call(uint256)": "444fa747",
					"only_owner()": "c88a1604",
					"payable_interface_call()": "f06d3289",
					"static_call()": "700658b3",
					"value()": "3fa4f245"
				}
			},
			"storageLayout": {
				"storage": [
					{
						"astId": 56,
						"contract": "contracts/l3_call.sol:ContractB",
						"label": "value",
						"offset": 0,
						"slot": "0",
						"type": "t_uint256"
					},
					{
						"astId": 58,
						"contract": "contracts/l3_call.sol:ContractB",
						"label": "contract_a",
						"offset": 0,
						"slot": "1",
						"type": "t_address"
					},
					{
						"astId": 60,
						"contract": "contracts/l3_call.sol:ContractB",
						"label": "owner",
						"offset": 0,
						"slot": "2",
						"type": "t_address"
					}
				],
				"types": {
					"t_address": {
						"encoding": "inplace",
						"label": "address",
						"numberOfBytes": "20"
					},
					"t_uint256": {
						"encoding": "inplace",
						"label": "uint256",
						"numberOfBytes": "32"
					}
				}
			},
			"userdoc": {
				"kind": "user",
				"methods": {},
				"version": 1
			}
		}
	}
}