{
	"data": {
		"bytecode": {
			"linkReferences": {},
			"object": "608060405260645f55600c6001556040518060400160405280601181526020017f48656c6c6f2066726f6d20706172656e740000000000000000000000000000008152506002908161005191906102a0565b5034801561005d575f5ffd5b5061036f565b5f81519050919050565b7f4e487b71000000000000000000000000000000000000000000000000000000005f52604160045260245ffd5b7f4e487b71000000000000000000000000000000000000000000000000000000005f52602260045260245ffd5b5f60028204905060018216806100de57607f821691505b6020821081036100f1576100f061009a565b5b50919050565b5f819050815f5260205f209050919050565b5f6020601f8301049050919050565b5f82821b905092915050565b5f600883026101537fffffffffffffffffffffffffffffffffffffffffffffffffffffffffffffffff82610118565b61015d8683610118565b95508019841693508086168417925050509392505050565b5f819050919050565b5f819050919050565b5f6101a161019c61019784610175565b61017e565b610175565b9050919050565b5f819050919050565b6101ba83610187565b6101ce6101c6826101a8565b848454610124565b825550505050565b5f5f905090565b6101e56101d6565b6101f08184846101b1565b505050565b5b81811015610213576102085f826101dd565b6001810190506101f6565b5050565b601f82111561025857610229816100f7565b61023284610109565b81016020851015610241578190505b61025561024d85610109565b8301826101f5565b50505b505050565b5f82821c905092915050565b5f6102785f198460080261025d565b1980831691505092915050565b5f6102908383610269565b9150826002028217905092915050565b6102a982610063565b67ffffffffffffffff8111156102c2576102c161006d565b5b6102cc82546100c7565b6102d7828285610217565b5f60209050601f831160018114610308575f84156102f6578287015190505b6103008582610285565b865550610367565b601f198416610316866100f7565b5f5b8281101561033d57848901518255600182019150602085019450602081019050610318565b8683101561035a5784890151610356601f891682610269565b8355505b6001600288020188555050505b505050505050565b61061b8061037c5f395ff3fe608060405234801561000f575f5ffd5b5060043610610055575f3560e01c80631249c58b146100595780632c383a9f1461007757806332af2edb1461009557806386b301ad146100b3578063ade839d7146100d2575b5f5ffd5b6100616100f0565b60405161006e919061047d565b60405180910390f35b61007f610141565b60405161008c9190610506565b60405180910390f35b61009d61019e565b6040516100aa9190610506565b60405180910390f35b6100bb61022e565b6040516100c9929190610526565b60405180910390f35b6100da6102fc565b6040516100e7919061047d565b60405180910390f35b5f61012f6040518060400160405280601481526020017f417765736f6d65546f6b656e206d696e74696e67000000000000000000000000815250610304565b6b033b2e3c9fd0803ce8000000905090565b606061015361014e61039d565b610304565b61016361015e6103da565b610304565b6040518060400160405280600c81526020017f417765736f6d65546f6b656e0000000000000000000000000000000000000000815250905090565b6060600280546101ad90610588565b80601f01602080910402602001604051908101604052809291908181526020018280546101d990610588565b80156102245780601f106101fb57610100808354040283529160200191610224565b820191905f5260205f20905b81548152906001019060200180831161020757829003601f168201915b5050505050905090565b60608060026040518060400160405280600681526020017f506172656e7400000000000000000000000000000000000000000000000000008152509080805461027690610588565b80601f01602080910402602001604051908101604052809291908181526020018280546102a290610588565b80156102ed5780601f106102c4576101008083540402835291602001916102ed565b820191905f5260205f20905b8154815290600101906020018083116102d057829003601f168201915b50505050509050915091509091565b5f5f54905090565b61039a816040516024016103189190610506565b6040516020818303038152906040527f41304fac000000000000000000000000000000000000000000000000000000007bffffffffffffffffffffffffffffffffffffffffffffffffffffffff19166020820180517bffffffffffffffffffffffffffffffffffffffffffffffffffffffff8381831617835250505050610417565b50565b60606040518060400160405280600581526020017f546f6b656e000000000000000000000000000000000000000000000000000000815250905090565b60606040518060400160405280600681526020017f506172656e740000000000000000000000000000000000000000000000000000815250905090565b61042e81610426610431610450565b63ffffffff16565b50565b5f6a636f6e736f6c652e6c6f6790505f5f835160208501845afa505050565b61045b819050919050565b6104636105b8565b565b5f819050919050565b61047781610465565b82525050565b5f6020820190506104905f83018461046e565b92915050565b5f81519050919050565b5f82825260208201905092915050565b8281835e5f83830152505050565b5f601f19601f8301169050919050565b5f6104d882610496565b6104e281856104a0565b93506104f28185602086016104b0565b6104fb816104be565b840191505092915050565b5f6020820190508181035f83015261051e81846104ce565b905092915050565b5f6040820190508181035f83015261053e81856104ce565b9050818103602083015261055281846104ce565b90509392505050565b7f4e487b71000000000000000000000000000000000000000000000000000000005f52602260045260245ffd5b5f600282049050600182168061059f57607f821691505b6020821081036105b2576105b161055b565b5b50919050565b7f4e487b71000000000000000000000000000000000000000000000000000000005f52605160045260245ffdfea2646970667358221220131a702ec4d26b5d2ddb77ef1ce793fb637e8b7152e1c7780edf24ba056caf6764736f6c634300081e0033",
			"opcodes": "PUSH1 0x80 PUSH1 0x40 MSTORE PUSH1 0x64 PUSH0 SSTORE PUSH1 0xC PUSH1 0x1 SSTORE PUSH1 0x40 MLOAD DUP1 PUSH1 0x40 ADD PUSH1 0x40 MSTORE DUP1 PUSH1 0x11 DUP2 MSTORE PUSH1 0x20 ADD PUSH32 0x48656C6C6F2066726F6D20706172656E74000000000000000000000000000000 DUP2 MSTORE POP PUSH1 0x2 SWAP1 DUP2 PUSH2 0x51 SWAP2 SWAP1 PUSH2 0x2A0 JUMP JUMPDEST POP CALLVALUE DUP1 ISZERO PUSH2 0x5D JUMPI PUSH0 PUSH0 REVERT JUMPDEST POP PUSH2 0x36F JUMP JUMPDEST PUSH0 DUP2 MLOAD SWAP1 POP SWAP2 SWAP1 POP JUMP JUMPDEST PUSH32 0x4E487B7100000000000000000000000000000000000000000000000000000000 PUSH0 MSTORE PUSH1 0x41 PUSH1 0x4 MSTORE PUSH1 0x24 PUSH0 REVERT JUMPDEST PUSH32 0x4E487B7100000000000000000000000000000000000000000000000000000000 PUSH0 MSTORE PUSH1 0x22 PUSH1 0x4 MSTORE PUSH1 0x24 PUSH0 REVERT JUMPDEST PUSH0 PUSH1 0x2 DUP3 DIV SWAP1 POP PUSH1 0x1 DUP3 AND DUP1 PUSH2 0xDE JUMPI PUSH1 0x7F DUP3 AND SWAP2 POP JUMPDEST PUSH1 0x20 DUP3 LT DUP2 SUB PUSH2 0xF1 JUMPI PUSH2 0xF0 PUSH2 0x9A JUMP JUMPDEST JUMPDEST POP SWAP2 SWAP1 POP JUMP JUMPDEST PUSH0 DUP2 SWAP1 POP DUP2 PUSH0 MSTORE PUSH1 0x20 PUSH0 KECCAK256 SWAP1 POP SWAP2 SWAP1 POP JUMP JUMPDEST PUSH0 PUSH1 0x20 PUSH1 0x1F DUP4 ADD DIV SWAP1 POP SWAP2 SWAP1 POP JUMP JUMPDEST PUSH0 DUP3 DUP3 SHL SWAP1 POP SWAP3 SWAP2 POP POP JUMP JUMPDEST PUSH0 PUSH1 0x8 DUP4 MUL PUSH2 0x153 PUSH32 0xFFFFFFFFFFFFFFFFFFFFFFFFFFFFFFFFFFFFFFFFFFFFFFFFFFFFFFFFFFFFFFFF DUP3 PUSH2 0x118 JUMP JUMPDEST PUSH2 0x15D DUP7 DUP4 PUSH2 0x118 JUMP JUMPDEST SWAP6 POP DUP1 NOT DUP5 AND SWAP4 POP DUP1 DUP7 AND DUP5 OR SWAP3 POP POP POP SWAP4 SWAP3 POP POP POP JUMP JUMPDEST PUSH0 DUP2 SWAP1 POP SWAP2 SWAP1 POP JUMP JUMPDEST PUSH0 DUP2 SWAP1 POP SWAP2 SWAP1 POP JUMP JUMPDEST PUSH0 PUSH2 0x1A1 PUSH2 0x19C PUSH2 0x197 DUP5 PUSH2 0x175 JUMP JUMPDEST PUSH2 0x17E JUMP JUMPDEST PUSH2 0x175 JUMP JUMPDEST SWAP1 POP SWAP2 SWAP1 POP JUMP JUMPDEST PUSH0 DUP2 SWAP1 POP SWAP2 SWAP1 POP JUMP JUMPDEST PUSH2 0x1BA DUP4 PUSH2 0x187 JUMP JUMPDEST PUSH2 0x1CE PUSH2 0x1C6 DUP3 PUSH2 0x1A8 JUMP JUMPDEST DUP5 DUP5 SLOAD PUSH2 0x124 JUMP JUMPDEST DUP3 SSTORE POP POP POP POP JUMP JUMPDEST PUSH0 PUSH0 SWAP1 POP SWAP1 JUMP JUMPDEST PUSH2 0x1E5 PUSH2 0x1D6 JUMP JUMPDEST PUSH2 0x1F0 DUP2 DUP5 DUP5 PUSH2 0x1B1 JUMP JUMPDEST POP POP POP JUMP JUMPDEST JUMPDEST DUP2 DUP2 LT ISZERO PUSH2 0x213 JUMPI PUSH2 0x208 PUSH0 DUP3 PUSH2 0x1DD JUMP JUMPDEST PUSH1 0x1 DUP2 ADD SWAP1 POP PUSH2 0x1F6 JUMP JUMPDEST POP POP JUMP JUMPDEST PUSH1 0x1F DUP3 GT ISZERO PUSH2 0x258 JUMPI PUSH2 0x229 DUP2 PUSH2 0xF7 JUMP JUMPDEST PUSH2 0x232 DUP5 PUSH2 0x109 JUMP JUMPDEST DUP2 ADD PUSH1 0x20 DUP6 LT ISZERO PUSH2 0x241 JUMPI DUP2 SWAP1 POP JUMPDEST PUSH2 0x255 PUSH2 0x24D DUP6 PUSH2 0x109 JUMP JUMPDEST DUP4 ADD DUP3 PUSH2 0x1F5 JUMP JUMPDEST POP POP JUMPDEST POP POP POP JUMP JUMPDEST PUSH0 DUP3 DUP3 SHR SWAP1 POP SWAP3 SWAP2 POP POP JUMP JUMPDEST PUSH0 PUSH2 0x278 PUSH0 NOT DUP5 PUSH1 0x8 MUL PUSH2 0x25D JUMP JUMPDEST NOT DUP1 DUP4 AND SWAP2 POP POP SWAP3 SWAP2 POP POP JUMP JUMPDEST PUSH0 PUSH2 0x290 DUP4 DUP4 PUSH2 0x269 JUMP JUMPDEST SWAP2 POP DUP3 PUSH1 0x2 MUL DUP3 OR SWAP1 POP SWAP3 SWAP2 POP POP JUMP JUMPDEST PUSH2 0x2A9 DUP3 PUSH2 0x63 JUMP JUMPDEST PUSH8 0xFFFFFFFFFFFFFFFF DUP2 GT ISZERO PUSH2 0x2C2 JUMPI PUSH2 0x2C1 PUSH2 0x6D JUMP JUMPDEST JUMPDEST PUSH2 0x2CC DUP3 SLOAD PUSH2 0xC7 JUMP JUMPDEST PUSH2 0x2D7 DUP3 DUP3 DUP6 PUSH2 0x217 JUMP JUMPDEST PUSH0 PUSH1 0x20 SWAP1 POP PUSH1 0x1F DUP4 GT PUSH1 0x1 DUP2 EQ PUSH2 0x308 JUMPI PUSH0 DUP5 ISZERO PUSH2 0x2F6 JUMPI DUP3 DUP8 ADD MLOAD SWAP1 POP JUMPDEST PUSH2 0x300 DUP6 DUP3 PUSH2 0x285 JUMP JUMPDEST DUP7 SSTORE POP PUSH2 0x367 JUMP JUMPDEST PUSH1 0x1F NOT DUP5 AND PUSH2 0x316 DUP7 PUSH2 0xF7 JUMP JUMPDEST PUSH0 JUMPDEST DUP3 DUP2 LT ISZERO PUSH2 0x33D JUMPI DUP5 DUP10 ADD MLOAD DUP3 SSTORE PUSH1 0x1 DUP3 ADD SWAP2 POP PUSH1 0x20 DUP6 ADD SWAP5 POP PUSH1 0x20 DUP2 ADD SWAP1 POP PUSH2 0x318 JUMP JUMPDEST DUP7 DUP4 LT ISZERO PUSH2 0x35A JUMPI DUP5 DUP10 ADD MLOAD PUSH2 0x356 PUSH1 0x1F DUP10 AND DUP3 PUSH2 0x269 JUMP JUMPDEST DUP4 SSTORE POP JUMPDEST PUSH1 0x1 PUSH1 0x2 DUP9 MUL ADD DUP9 SSTORE POP POP POP JUMPDEST POP POP POP POP POP POP JUMP JUMPDEST PUSH2 0x61B DUP1 PUSH2 0x37C PUSH0 CODECOPY PUSH0 RETURN INVALID PUSH1 0x80 PUSH1 0x40 MSTORE CALLVALUE DUP1 ISZERO PUSH2 0xF JUMPI PUSH0 PUSH0 REVERT JUMPDEST POP PUSH1 0x4 CALLDATASIZE LT PUSH2 0x55 JUMPI PUSH0 CALLDATALOAD PUSH1 0xE0 SHR DUP1 PUSH4 0x1249C58B EQ PUSH2 0x59 JUMPI DUP1 PUSH4 0x2C383A9F EQ PUSH2 0x77 JUMPI DUP1 PUSH4 0x32AF2EDB EQ PUSH2 0x95 JUMPI DUP1 PUSH4 0x86B301AD EQ PUSH2 0xB3 JUMPI DUP1 PUSH4 0xADE839D7 EQ PUSH2 0xD2 JUMPI JUMPDEST PUSH0 PUSH0 REVERT JUMPDEST PUSH2 0x61 PUSH2 0xF0 JUMP JUMPDEST PUSH1 0x40 MLOAD PUSH2 0x6E SWAP2 SWAP1 PUSH2 0x47D JUMP JUMPDEST PUSH1 0x40 MLOAD DUP1 SWAP2 SUB SWAP1 RETURN JUMPDEST PUSH2 0x7F PUSH2 0x141 JUMP JUMPDEST PUSH1 0x40 MLOAD PUSH2 0x8C SWAP2 SWAP1 PUSH2 0x506 JUMP JUMPDEST PUSH1 0x40 MLOAD DUP1 SWAP2 SUB SWAP1 RETURN JUMPDEST PUSH2 0x9D PUSH2 0x19E JUMP JUMPDEST PUSH1 0x40 MLOAD PUSH2 0xAA SWAP2 SWAP1 PUSH2 0x506 JUMP JUMPDEST PUSH1 0x40 MLOAD DUP1 SWAP2 SUB SWAP1 RETURN JUMPDEST PUSH2 0xBB PUSH2 0x22E JUMP JUMPDEST PUSH1 0x40 MLOAD PUSH2 0xC9 SWAP3 SWAP2 SWAP1 PUSH2 0x526 JUMP JUMPDEST PUSH1 0x40 MLOAD DUP1 SWAP2 SUB SWAP1 RETURN JUMPDEST PUSH2 0xDA PUSH2 0x2FC JUMP JUMPDEST PUSH1 0x40 MLOAD PUSH2 0xE7 SWAP2 SWAP1 PUSH2 0x47D JUMP JUMPDEST PUSH1 0x40 MLOAD DUP1 SWAP2 SUB SWAP1 RETURN JUMPDEST PUSH0 PUSH2 0x12F PUSH1 0x40 MLOAD DUP1 PUSH1 0x40 ADD PUSH1 0x40 MSTORE DUP1 PUSH1 0x14 DUP2 MSTORE PUSH1 0x20 ADD PUSH32 0x417765736F6D65546F6B656E206D696E74696E67000000000000000000000000 DUP2 MSTORE POP PUSH2 0x304 JUMP JUMPDEST PUSH12 0x33B2E3C9FD0803CE8000000 SWAP1 POP SWAP1 JUMP JUMPDEST PUSH1 0x60 PUSH2 0x153 PUSH2 0x14E PUSH2 0x39D JUMP JUMPDEST PUSH2 0x304 JUMP JUMPDEST PUSH2 0x163 PUSH2 0x15E PUSH2 0x3DA JUMP JUMPDEST PUSH2 0x304 JUMP JUMPDEST PUSH1 0x40 MLOAD DUP1 PUSH1 0x40 ADD PUSH1 0x40 MSTORE DUP1 PUSH1 0xC DUP2 MSTORE PUSH1 0x20 ADD PUSH32 0x417765736F6D65546F6B656E0000000000000000000000000000000000000000 DUP2 MSTORE POP SWAP1 POP SWAP1 JUMP JUMPDEST PUSH1 0x60 PUSH1 0x2 DUP1 SLOAD PUSH2 0x1AD SWAP1 PUSH2 0x588 JUMP JUMPDEST DUP1 PUSH1 0x1F ADD PUSH1 0x20 DUP1 SWAP2 DIV MUL PUSH1 0x20 ADD PUSH1 0x40 MLOAD SWAP1 DUP2 ADD PUSH1 0x40 MSTORE DUP1 SWAP3 SWAP2 SWAP1 DUP2 DUP2 MSTORE PUSH1 0x20 ADD DUP3 DUP1 SLOAD PUSH2 0x1D9 SWAP1 PUSH2 0x588 JUMP JUMPDEST DUP1 ISZERO PUSH2 0x224 JUMPI DUP1 PUSH1 0x1F LT PUSH2 0x1FB JUMPI PUSH2 0x100 DUP1 DUP4 SLOAD DIV MUL DUP4 MSTORE SWAP2 PUSH1 0x20 ADD SWAP2 PUSH2 0x224 JUMP JUMPDEST DUP3 ADD SWAP2 SWAP1 PUSH0 MSTORE PUSH1 0x20 PUSH0 KECCAK256 SWAP1 JUMPDEST DUP2 SLOAD DUP2 MSTORE SWAP1 PUSH1 0x1 ADD SWAP1 PUSH1 0x20 ADD DUP1 DUP4 GT PUSH2 0x207 JUMPI DUP3 SWAP1 SUB PUSH1 0x1F AND DUP3 ADD SWAP2 JUMPDEST POP POP POP POP POP SWAP1 POP SWAP1 JUMP JUMPDEST PUSH1 0x60 DUP1 PUSH1 0x2 PUSH1 0x40 MLOAD DUP1 PUSH1 0x40 ADD PUSH1 0x40 MSTORE DUP1 PUSH1 0x6 DUP2 MSTORE PUSH1 0x20 ADD PUSH32 0x506172656E740000000000000000000000000000000000000000000000000000 DUP2 MSTORE POP SWAP1 DUP1 DUP1 SLOAD PUSH2 0x276 SWAP1 PUSH2 0x588 JUMP JUMPDEST DUP1 PUSH1 0x1F ADD PUSH1 0x20 DUP1 SWAP2 DIV MUL PUSH1 0x20 ADD PUSH1 0x40 MLOAD SWAP1 DUP2 ADD PUSH1 0x40 MSTORE DUP1 SWAP3 SWAP2 SWAP1 DUP2 DUP2 MSTORE PUSH1 0x20 ADD DUP3 DUP1 SLOAD PUSH2 0x2A2 SWAP1 PUSH2 0x588 JUMP JUMPDEST DUP1 ISZERO PUSH2 0x2ED JUMPI DUP1 PUSH1 0x1F LT PUSH2 0x2C4 JUMPI PUSH2 0x100 DUP1 DUP4 SLOAD DIV MUL DUP4 MSTORE SWAP2 PUSH1 0x20 ADD SWAP2 PUSH2 0x2ED JUMP JUMPDEST DUP3 ADD SWAP2 SWAP1 PUSH0 MSTORE PUSH1 0x20 PUSH0 KECCAK256 SWAP1 JUMPDEST DUP2 SLOAD DUP2 MSTORE SWAP1 PUSH1 0x1 ADD SWAP1 PUSH1 0x20 ADD DUP1 DUP4 GT PUSH2 0x2D0 JUMPI DUP3 SWAP1 SUB PUSH1 0x1F AND DUP3 ADD SWAP2 JUMPDEST POP POP POP POP POP SWAP1 POP SWAP2 POP SWAP2 POP SWAP1 SWAP2 JUMP JUMPDEST PUSH0 PUSH0 SLOAD SWAP1 POP SWAP1 JUMP JUMPDEST PUSH2 0x39A DUP2 PUSH1 0x40 MLOAD PUSH1 0x24 ADD PUSH2 0x318 SWAP2 SWAP1 PUSH2 0x506 JUMP JUMPDEST PUSH1 0x40 MLOAD PUSH1 0x20 DUP2 DUP4 SUB SUB DUP2 MSTORE SWAP1 PUSH1 0x40 MSTORE PUSH32 0x41304FAC00000000000000000000000000000000000000000000000000000000 PUSH28 0xFFFFFFFFFFFFFFFFFFFFFFFFFFFFFFFFFFFFFFFFFFFFFFFFFFFFFFFF NOT AND PUSH1 0x20 DUP3 ADD DUP1 MLOAD PUSH28 0xFFFFFFFFFFFFFFFFFFFFFFFFFFFFFFFFFFFFFFFFFFFFFFFFFFFFFFFF DUP4 DUP2 DUP4 AND OR DUP4 MSTORE POP POP POP POP PUSH2 0x417 JUMP JUMPDEST POP JUMP JUMPDEST PUSH1 0x60 PUSH1 0x40 MLOAD DUP1 PUSH1 0x40 ADD PUSH1 0x40 MSTORE DUP1 PUSH1 0x5 DUP2 MSTORE PUSH1 0x20 ADD PUSH32 0x546F6B656E000000000000000000000000000000000000000000000000000000 DUP2 MSTORE POP SWAP1 POP SWAP1 JUMP JUMPDEST PUSH1 0x60 PUSH1 0x40 MLOAD DUP1 PUSH1 0x40 ADD PUSH1 0x40 MSTORE DUP1 PUSH1 0x6 DUP2 MSTORE PUSH1 0x20 ADD PUSH32 0x506172656E740000000000000000000000000000000000000000000000000000 DUP2 MSTORE POP SWAP1 POP SWAP1 JUMP JUMPDEST PUSH2 0x42E DUP2 PUSH2 0x426 PUSH2 0x431 PUSH2 0x450 JUMP JUMPDEST PUSH4 0xFFFFFFFF AND JUMP JUMPDEST POP JUMP JUMPDEST PUSH0 PUSH11 0x636F6E736F6C652E6C6F67 SWAP1 POP PUSH0 PUSH0 DUP4 MLOAD PUSH1 0x20 DUP6 ADD DUP5 GAS STATICCALL POP POP POP JUMP JUMPDEST PUSH2 0x45B DUP2 SWAP1 POP SWAP2 SWAP1 POP JUMP JUMPDEST PUSH2 0x463 PUSH2 0x5B8 JUMP JUMPDEST JUMP JUMPDEST PUSH0 DUP2 SWAP1 POP SWAP2 SWAP1 POP JUMP JUMPDEST PUSH2 0x477 DUP2 PUSH2 0x465 JUMP JUMPDEST DUP3 MSTORE POP POP JUMP JUMPDEST PUSH0 PUSH1 0x20 DUP3 ADD SWAP1 POP PUSH2 0x490 PUSH0 DUP4 ADD DUP5 PUSH2 0x46E JUMP JUMPDEST SWAP3 SWAP2 POP POP JUMP JUMPDEST PUSH0 DUP2 MLOAD SWAP1 POP SWAP2 SWAP1 POP JUMP JUMPDEST PUSH0 DUP3 DUP3 MSTORE PUSH1 0x20 DUP3 ADD SWAP1 POP SWAP3 SWAP2 POP POP JUMP JUMPDEST DUP3 DUP2 DUP4 MCOPY PUSH0 DUP4 DUP4 ADD MSTORE POP POP POP JUMP JUMPDEST PUSH0 PUSH1 0x1F NOT PUSH1 0x1F DUP4 ADD AND SWAP1 POP SWAP2 SWAP1 POP JUMP JUMPDEST PUSH0 PUSH2 0x4D8 DUP3 PUSH2 0x496 JUMP JUMPDEST PUSH2 0x4E2 DUP2 DUP6 PUSH2 0x4A0 JUMP JUMPDEST SWAP4 POP PUSH2 0x4F2 DUP2 DUP6 PUSH1 0x20 DUP7 ADD PUSH2 0x4B0 JUMP JUMPDEST PUSH2 0x4FB DUP2 PUSH2 0x4BE JUMP JUMPDEST DUP5 ADD SWAP2 POP POP SWAP3 SWAP2 POP POP JUMP JUMPDEST PUSH0 PUSH1 0x20 DUP3 ADD SWAP1 POP DUP2 DUP2 SUB PUSH0 DUP4 ADD MSTORE PUSH2 0x51E DUP2 DUP5 PUSH2 0x4CE JUMP JUMPDEST SWAP1 POP SWAP3 SWAP2 POP POP JUMP JUMPDEST PUSH0 PUSH1 0x40 DUP3 ADD SWAP1 POP DUP2 DUP2 SUB PUSH0 DUP4 ADD MSTORE PUSH2 0x53E DUP2 DUP6 PUSH2 0x4CE JUMP JUMPDEST SWAP1 POP DUP2 DUP2 SUB PUSH1 0x20 DUP4 ADD MSTORE PUSH2 0x552 DUP2 DUP5 PUSH2 0x4CE JUMP JUMPDEST SWAP1 POP SWAP4 SWAP3 POP POP POP JUMP JUMPDEST PUSH32 0x4E487B7100000000000000000000000000000000000000000000000000000000 PUSH0 MSTORE PUSH1 0x22 PUSH1 0x4 MSTORE PUSH1 0x24 PUSH0 REVERT JUMPDEST PUSH0 PUSH1 0x2 DUP3 DIV SWAP1 POP PUSH1 0x1 DUP3 AND DUP1 PUSH2 0x59F JUMPI PUSH1 0x7F DUP3 AND SWAP2 POP JUMPDEST PUSH1 0x20 DUP3 LT DUP2 SUB PUSH2 0x5B2 JUMPI PUSH2 0x5B1 PUSH2 0x55B JUMP JUMPDEST JUMPDEST POP SWAP2 SWAP1 POP JUMP JUMPDEST PUSH32 0x4E487B7100000000000000000000000000000000000000000000000000000000 PUSH0 MSTORE PUSH1 0x51 PUSH1 0x4 MSTORE PUSH1 0x24 PUSH0 REVERT INVALID LOG2 PUSH5 0x6970667358 0x22 SLT KECCAK256 SGT BYTE PUSH17 0x2EC4D26B5D2DDB77EF1CE793FB637E8B71 MSTORE RJUMPI 0xC778 0xE 0xDF 0x24 0xBA SDIV PUSH13 0xAF6764736F6C634300081E0033 "
		},
		"gasEstimates": {
			"creation": {
				"codeDepositCost": "312600",
				"executionCost": "infinite",
				"totalCost": "infinite"
			},
			"external": {
				"get_field()": "2497",
				"get_message()": "infinite",
				"get_state()": "infinite",
				"method()": "infinite",
				"mint()": "infinite"
			}
		},
		"methodIdentifiers": {
			"get_field()": "ade839d7",
			"get_message()": "32af2edb",
			"get_state()": "86b301ad",
			"method()": "2c383a9f",
			"mint()": "1249c58b"
		}
	},
	"abi": [
		{
			"inputs": [],
			"name": "get_field",
			"outputs": [
				{
					"internalType": "uint256",
					"name": "",
					"type": "uint256"
				}
			],
			"stateMutability": "view",
			"type": "function"
		},
		{
			"inputs": [],
			"name": "get_message",
			"outputs": [
				{
					"internalType": "string",
					"name": "",
					"type": "string"
				}
			],
			"stateMutability": "view",
			"type": "function"
		},
		{
			"inputs": [],
			"name": "get_state",
			"outputs": [
				{
					"internalType": "string",
					"name": "",
					"type": "string"
				},
				{
					"internalType": "string",
					"name": "",
					"type": "string"
				}
			],
			"stateMutability": "view",
			"type": "function"
		},
		{
			"inputs": [],
			"name": "method",
			"outputs": [
				{
					"internalType": "string",
					"name": "",
					"type": "string"
				}
			],
			"stateMutability": "pure",
			"type": "function"
		},
		{
			"inputs": [],
			"name": "mint",
			"outputs": [
				{
					"internalType": "uint256",
					"name": "",
					"type": "uint256"
				}
			],
			"stateMutability": "pure",
			"type": "function"
		}
	]
}