{
	"data": {
		"bytecode": {
			"linkReferences": {},
			"object": "6080604052348015600e575f5ffd5b506102998061001c5f395ff3fe608060405260043610610033575f3560e01c80631b9265b81461003757806333cf508014610055578063b0f2b72a1461007f575b5f5ffd5b61003f6100a7565b60405161004c91906101b9565b60405180910390f35b348015610060575f5ffd5b506100696100e4565b60405161007691906101f1565b60405180910390f35b34801561008a575f5ffd5b506100a560048036038101906100a09190610238565b6100ec565b005b60606040518060400160405280600681526020017f5468616e6b730000000000000000000000000000000000000000000000000000815250905090565b5f5f54905090565b73ab8483f64d9c6d1ecf9b849ae677dd3315835cb260025f6101000a81548173ffffffffffffffffffffffffffffffffffffffff021916908373ffffffffffffffffffffffffffffffffffffffff160217905550805f8190555050565b5f81519050919050565b5f82825260208201905092915050565b8281835e5f83830152505050565b5f601f19601f8301169050919050565b5f61018b82610149565b6101958185610153565b93506101a5818560208601610163565b6101ae81610171565b840191505092915050565b5f6020820190508181035f8301526101d18184610181565b905092915050565b5f819050919050565b6101eb816101d9565b82525050565b5f6020820190506102045f8301846101e2565b92915050565b5f5ffd5b610217816101d9565b8114610221575f5ffd5b50565b5f813590506102328161020e565b92915050565b5f6020828403121561024d5761024c61020a565b5b5f61025a84828501610224565b9150509291505056fea26469706673582212204ad5cdd1c1307ea0e3515fc9b23018dea2e7b338430a2e665be5ceb4dbbae1d664736f6c634300081e0033",
			"opcodes": "PUSH1 0x80 PUSH1 0x40 MSTORE CALLVALUE DUP1 ISZERO PUSH1 0xE JUMPI PUSH0 PUSH0 REVERT JUMPDEST POP PUSH2 0x299 DUP1 PUSH2 0x1C PUSH0 CODECOPY PUSH0 RETURN INVALID PUSH1 0x80 PUSH1 0x40 MSTORE PUSH1 0x4 CALLDATASIZE LT PUSH2 0x33 JUMPI PUSH0 CALLDATALOAD PUSH1 0xE0 SHR DUP1 PUSH4 0x1B9265B8 EQ PUSH2 0x37 JUMPI DUP1 PUSH4 0x33CF5080 EQ PUSH2 0x55 JUMPI DUP1 PUSH4 0xB0F2B72A EQ PUSH2 0x7F JUMPI JUMPDEST PUSH0 PUSH0 REVERT JUMPDEST PUSH2 0x3F PUSH2 0xA7 JUMP JUMPDEST PUSH1 0x40 MLOAD PUSH2 0x4C SWAP2 SWAP1 PUSH2 0x1B9 JUMP JUMPDEST PUSH1 0x40 MLOAD DUP1 SWAP2 SUB SWAP1 RETURN JUMPDEST CALLVALUE DUP1 ISZERO PUSH2 0x60 JUMPI PUSH0 PUSH0 REVERT JUMPDEST POP PUSH2 0x69 PUSH2 0xE4 JUMP JUMPDEST PUSH1 0x40 MLOAD PUSH2 0x76 SWAP2 SWAP1 PUSH2 0x1F1 JUMP JUMPDEST PUSH1 0x40 MLOAD DUP1 SWAP2 SUB SWAP1 RETURN JUMPDEST CALLVALUE DUP1 ISZERO PUSH2 0x8A JUMPI PUSH0 PUSH0 REVERT JUMPDEST POP PUSH2 0xA5 PUSH1 0x4 DUP1 CALLDATASIZE SUB DUP2 ADD SWAP1 PUSH2 0xA0 SWAP2 SWAP1 PUSH2 0x238 JUMP JUMPDEST PUSH2 0xEC JUMP JUMPDEST STOP JUMPDEST PUSH1 0x60 PUSH1 0x40 MLOAD DUP1 PUSH1 0x40 ADD PUSH1 0x40 MSTORE DUP1 PUSH1 0x6 DUP2 MSTORE PUSH1 0x20 ADD PUSH32 0x5468616E6B730000000000000000000000000000000000000000000000000000 DUP2 MSTORE POP SWAP1 POP SWAP1 JUMP JUMPDEST PUSH0 PUSH0 SLOAD SWAP1 POP SWAP1 JUMP JUMPDEST PUSH20 0xAB8483F64D9C6D1ECF9B849AE677DD3315835CB2 PUSH1 0x2 PUSH0 PUSH2 0x100 EXP DUP2 SLOAD DUP2 PUSH20 0xFFFFFFFFFFFFFFFFFFFFFFFFFFFFFFFFFFFFFFFF MUL NOT AND SWAP1 DUP4 PUSH20 0xFFFFFFFFFFFFFFFFFFFFFFFFFFFFFFFFFFFFFFFF AND MUL OR SWAP1 SSTORE POP DUP1 PUSH0 DUP2 SWAP1 SSTORE POP POP JUMP JUMPDEST PUSH0 DUP2 MLOAD SWAP1 POP SWAP2 SWAP1 POP JUMP JUMPDEST PUSH0 DUP3 DUP3 MSTORE PUSH1 0x20 DUP3 ADD SWAP1 POP SWAP3 SWAP2 POP POP JUMP JUMPDEST DUP3 DUP2 DUP4 MCOPY PUSH0 DUP4 DUP4 ADD MSTORE POP POP POP JUMP JUMPDEST PUSH0 PUSH1 0x1F NOT PUSH1 0x1F DUP4 ADD AND SWAP1 POP SWAP2 SWAP1 POP JUMP JUMPDEST PUSH0 PUSH2 0x18B DUP3 PUSH2 0x149 JUMP JUMPDEST PUSH2 0x195 DUP2 DUP6 PUSH2 0x153 JUMP JUMPDEST SWAP4 POP PUSH2 0x1A5 DUP2 DUP6 PUSH1 0x20 DUP7 ADD PUSH2 0x163 JUMP JUMPDEST PUSH2 0x1AE DUP2 PUSH2 0x171 JUMP JUMPDEST DUP5 ADD SWAP2 POP POP SWAP3 SWAP2 POP POP JUMP JUMPDEST PUSH0 PUSH1 0x20 DUP3 ADD SWAP1 POP DUP2 DUP2 SUB PUSH0 DUP4 ADD MSTORE PUSH2 0x1D1 DUP2 DUP5 PUSH2 0x181 JUMP JUMPDEST SWAP1 POP SWAP3 SWAP2 POP POP JUMP JUMPDEST PUSH0 DUP2 SWAP1 POP SWAP2 SWAP1 POP JUMP JUMPDEST PUSH2 0x1EB DUP2 PUSH2 0x1D9 JUMP JUMPDEST DUP3 MSTORE POP POP JUMP JUMPDEST PUSH0 PUSH1 0x20 DUP3 ADD SWAP1 POP PUSH2 0x204 PUSH0 DUP4 ADD DUP5 PUSH2 0x1E2 JUMP JUMPDEST SWAP3 SWAP2 POP POP JUMP JUMPDEST PUSH0 PUSH0 REVERT JUMPDEST PUSH2 0x217 DUP2 PUSH2 0x1D9 JUMP JUMPDEST DUP2 EQ PUSH2 0x221 JUMPI PUSH0 PUSH0 REVERT JUMPDEST POP JUMP JUMPDEST PUSH0 DUP2 CALLDATALOAD SWAP1 POP PUSH2 0x232 DUP2 PUSH2 0x20E JUMP JUMPDEST SWAP3 SWAP2 POP POP JUMP JUMPDEST PUSH0 PUSH1 0x20 DUP3 DUP5 SUB SLT ISZERO PUSH2 0x24D JUMPI PUSH2 0x24C PUSH2 0x20A JUMP JUMPDEST JUMPDEST PUSH0 PUSH2 0x25A DUP5 DUP3 DUP6 ADD PUSH2 0x224 JUMP JUMPDEST SWAP2 POP POP SWAP3 SWAP2 POP POP JUMP INVALID LOG2 PUSH5 0x6970667358 0x22 SLT KECCAK256 BLOBBASEFEE 0xD5 0xCD DATALOADN 0xC130 PUSH31 0xA0E3515FC9B23018DEA2E7B338430A2E665BE5CEB4DBBAE1D664736F6C6343 STOP ADDMOD 0x1E STOP CALLER "
		},
		"gasEstimates": {
			"creation": {
				"codeDepositCost": "133000",
				"executionCost": "175",
				"totalCost": "133175"
			},
			"external": {
				"get_value()": "2431",
				"pay()": "infinite",
				"set_value(uint256)": "46802"
			}
		},
		"methodIdentifiers": {
			"get_value()": "33cf5080",
			"pay()": "1b9265b8",
			"set_value(uint256)": "b0f2b72a"
		}
	},
	"abi": [
		{
			"inputs": [],
			"name": "get_value",
			"outputs": [
				{
					"internalType": "uint256",
					"name": "",
					"type": "uint256"
				}
			],
			"stateMutability": "view",
			"type": "function"
		},
		{
			"inputs": [],
			"name": "pay",
			"outputs": [
				{
					"internalType": "string",
					"name": "",
					"type": "string"
				}
			],
			"stateMutability": "payable",
			"type": "function"
		},
		{
			"inputs": [
				{
					"internalType": "uint256",
					"name": "n_value",
					"type": "uint256"
				}
			],
			"name": "set_value",
			"outputs": [],
			"stateMutability": "nonpayable",
			"type": "function"
		}
	]
}