{
	"data": {
		"bytecode": {
			"linkReferences": {},
			"object": "608060405234801561000f575f5ffd5b506100546040518060400160405280601881526020017f7265736f757263654d616e61676572206465706c6f796564000000000000000081525061005960201b60201c565b610214565b6100f58160405160240161006d91906101c7565b6040516020818303038152906040527f41304fac000000000000000000000000000000000000000000000000000000007bffffffffffffffffffffffffffffffffffffffffffffffffffffffff19166020820180517bffffffffffffffffffffffffffffffffffffffffffffffffffffffff83818316178352505050506100f860201b60201c565b50565b6101198161011461011c60201b6105111761013b60201b60201c565b60201c565b50565b5f6a636f6e736f6c652e6c6f6790505f5f835160208501845afa505050565b61014d60201b61066617819050919050565b6101556101e7565b565b5f81519050919050565b5f82825260208201905092915050565b8281835e5f83830152505050565b5f601f19601f8301169050919050565b5f61019982610157565b6101a38185610161565b93506101b3818560208601610171565b6101bc8161017f565b840191505092915050565b5f6020820190508181035f8301526101df818461018f565b905092915050565b7f4e487b71000000000000000000000000000000000000000000000000000000005f52605160045260245ffd5b610c57806102215f395ff3fe608060405234801561000f575f5ffd5b5060043610610060575f3560e01c80632aa531d9146100645780632fcf58cb1461009657806372f215c2146100a0578063d4f77b1c146100be578063d8adde12146100c8578063e2eb41ff146100d2575b5f5ffd5b61007e600480360381019061007991906106ce565b610105565b60405161008d93929190610711565b60405180910390f35b61009e610195565b005b6100a86102a3565b6040516100b59190610746565b60405180910390f35b6100c66102a8565b005b6100d061037d565b005b6100ec60048036038101906100e791906106ce565b6104e6565b6040516100fc949392919061075f565b60405180910390f35b5f5f5f5f5f5f8673ffffffffffffffffffffffffffffffffffffffff1673ffffffffffffffffffffffffffffffffffffffff1681526020019081526020015f206040518060800160405290815f820154815260200160018201548152602001600282015481526020016003820154815250509050805f015181602001518260600151935093509350509193909250565b5f5f5f3373ffffffffffffffffffffffffffffffffffffffff1673ffffffffffffffffffffffffffffffffffffffff1681526020019081526020015f2090505f6101e482600201546005610530565b905080826001015f8282546101f991906107cf565b9250508190555042826002018190555061024d6040518060400160405280601f81526020017f656e65726779207265636f76657265643a2025642e20746f74616c3a20256400815250828460010154610555565b3373ffffffffffffffffffffffffffffffffffffffff167f78c007f3d95ba9fc66c35eb87f9d22507be1ac762ca01965c27d276b23beb16d83600101546040516102979190610746565b60405180910390a25050565b606481565b5f5f5f3373ffffffffffffffffffffffffffffffffffffffff1673ffffffffffffffffffffffffffffffffffffffff1681526020019081526020015f2060020154146102f2575f5ffd5b60405180608001604052806103e88152602001606481526020014281526020015f8152505f5f3373ffffffffffffffffffffffffffffffffffffffff1673ffffffffffffffffffffffffffffffffffffffff1681526020019081526020015f205f820151815f0155602082015181600101556040820151816002015560608201518160030155905050565b5f5f5f3373ffffffffffffffffffffffffffffffffffffffff1673ffffffffffffffffffffffffffffffffffffffff1681526020019081526020015f2090505f6103d5826003015460646105f490919063ffffffff16565b90505f6103ec600a8361061590919063ffffffff16565b905080835f01541015610434576040517f08c379a000000000000000000000000000000000000000000000000000000000815260040161042b9061085c565b60405180910390fd5b80835f015f828254610446919061087a565b92505081905550826003015f815480929190610461906108ad565b919050555061048d604051806060016040528060268152602001610bfc60269139846003015483610555565b3373ffffffffffffffffffffffffffffffffffffffff167fe89aaeb9eee869d9fee98314598ae974e15af4dcb5321a66415944799354e0198460030154836040516104d99291906108f4565b60405180910390a2505050565b5f602052805f5260405f205f91509050805f0154908060010154908060020154908060030154905084565b5f6a636f6e736f6c652e6c6f6790505f5f835160208501845afa505050565b5f5f834261053e919061087a565b9050828161054c919061091b565b91505092915050565b6105ef83838360405160240161056d939291906109bc565b6040516020818303038152906040527fca47c4eb000000000000000000000000000000000000000000000000000000007bffffffffffffffffffffffffffffffffffffffffffffffffffffffff19166020820180517bffffffffffffffffffffffffffffffffffffffffffffffffffffffff8381831617835250505050610641565b505050565b5f8160026106029190610b27565b8361060d919061091b565b905092915050565b5f60648284610624919061091b565b61062e9190610b9e565b83610639919061087a565b905092915050565b6106588161065061051161065b565b63ffffffff16565b50565b610666819050919050565b61066e610bce565b565b5f5ffd5b5f73ffffffffffffffffffffffffffffffffffffffff82169050919050565b5f61069d82610674565b9050919050565b6106ad81610693565b81146106b7575f5ffd5b50565b5f813590506106c8816106a4565b92915050565b5f602082840312156106e3576106e2610670565b5b5f6106f0848285016106ba565b91505092915050565b5f819050919050565b61070b816106f9565b82525050565b5f6060820190506107245f830186610702565b6107316020830185610702565b61073e6040830184610702565b949350505050565b5f6020820190506107595f830184610702565b92915050565b5f6080820190506107725f830187610702565b61077f6020830186610702565b61078c6040830185610702565b6107996060830184610702565b95945050505050565b7f4e487b71000000000000000000000000000000000000000000000000000000005f52601160045260245ffd5b5f6107d9826106f9565b91506107e4836106f9565b92508282019050808211156107fc576107fb6107a2565b5b92915050565b5f82825260208201905092915050565b7f6e6f7420656e6f75676820676f6c6400000000000000000000000000000000005f82015250565b5f610846600f83610802565b915061085182610812565b602082019050919050565b5f6020820190508181035f8301526108738161083a565b9050919050565b5f610884826106f9565b915061088f836106f9565b92508282039050818111156108a7576108a66107a2565b5b92915050565b5f6108b7826106f9565b91507fffffffffffffffffffffffffffffffffffffffffffffffffffffffffffffffff82036108e9576108e86107a2565b5b600182019050919050565b5f6040820190506109075f830185610702565b6109146020830184610702565b9392505050565b5f610925826106f9565b9150610930836106f9565b925082820261093e816106f9565b91508282048414831517610955576109546107a2565b5b5092915050565b5f81519050919050565b8281835e5f83830152505050565b5f601f19601f8301169050919050565b5f61098e8261095c565b6109988185610802565b93506109a8818560208601610966565b6109b181610974565b840191505092915050565b5f6060820190508181035f8301526109d48186610984565b90506109e36020830185610702565b6109f06040830184610702565b949350505050565b5f8160011c9050919050565b5f5f8291508390505b6001851115610a4d57808604811115610a2957610a286107a2565b5b6001851615610a385780820291505b8081029050610a46856109f8565b9450610a0d565b94509492505050565b5f82610a655760019050610b20565b81610a72575f9050610b20565b8160018114610a885760028114610a9257610ac1565b6001915050610b20565b60ff841115610aa457610aa36107a2565b5b8360020a915084821115610abb57610aba6107a2565b5b50610b20565b5060208310610133831016604e8410600b8410161715610af65782820a905083811115610af157610af06107a2565b5b610b20565b610b038484846001610a04565b92509050818404811115610b1a57610b196107a2565b5b81810290505b9392505050565b5f610b31826106f9565b9150610b3c836106f9565b9250610b697fffffffffffffffffffffffffffffffffffffffffffffffffffffffffffffffff8484610a56565b905092915050565b7f4e487b71000000000000000000000000000000000000000000000000000000005f52601260045260245ffd5b5f610ba8826106f9565b9150610bb3836106f9565b925082610bc357610bc2610b71565b5b828204905092915050565b7f4e487b71000000000000000000000000000000000000000000000000000000005f52605160045260245ffdfe73776f726420757067726164656420746f206c6576656c20256420666f7220256420676f6c64a26469706673582212205efd1cdd08348e95d63ff0076b8fe37f1f93ea5d37a5044fd42603c0c4649e6e64736f6c634300081e0033",
			"opcodes": "PUSH1 0x80 PUSH1 0x40 MSTORE CALLVALUE DUP1 ISZERO PUSH2 0xF JUMPI PUSH0 PUSH0 REVERT JUMPDEST POP PUSH2 0x54 PUSH1 0x40 MLOAD DUP1 PUSH1 0x40 ADD PUSH1 0x40 MSTORE DUP1 PUSH1 0x18 DUP2 MSTORE PUSH1 0x20 ADD PUSH32 0x7265736F757263654D616E61676572206465706C6F7965640000000000000000 DUP2 MSTORE POP PUSH2 0x59 PUSH1 0x20 SHL PUSH1 0x20 SHR JUMP JUMPDEST PUSH2 0x214 JUMP JUMPDEST PUSH2 0xF5 DUP2 PUSH1 0x40 MLOAD PUSH1 0x24 ADD PUSH2 0x6D SWAP2 SWAP1 PUSH2 0x1C7 JUMP JUMPDEST PUSH1 0x40 MLOAD PUSH1 0x20 DUP2 DUP4 SUB SUB DUP2 MSTORE SWAP1 PUSH1 0x40 MSTORE PUSH32 0x41304FAC00000000000000000000000000000000000000000000000000000000 PUSH28 0xFFFFFFFFFFFFFFFFFFFFFFFFFFFFFFFFFFFFFFFFFFFFFFFFFFFFFFFF NOT AND PUSH1 0x20 DUP3 ADD DUP1 MLOAD PUSH28 0xFFFFFFFFFFFFFFFFFFFFFFFFFFFFFFFFFFFFFFFFFFFFFFFFFFFFFFFF DUP4 DUP2 DUP4 AND OR DUP4 MSTORE POP POP POP POP PUSH2 0xF8 PUSH1 0x20 SHL PUSH1 0x20 SHR JUMP JUMPDEST POP JUMP JUMPDEST PUSH2 0x119 DUP2 PUSH2 0x114 PUSH2 0x11C PUSH1 0x20 SHL PUSH2 0x511 OR PUSH2 0x13B PUSH1 0x20 SHL PUSH1 0x20 SHR JUMP JUMPDEST PUSH1 0x20 SHR JUMP JUMPDEST POP JUMP JUMPDEST PUSH0 PUSH11 0x636F6E736F6C652E6C6F67 SWAP1 POP PUSH0 PUSH0 DUP4 MLOAD PUSH1 0x20 DUP6 ADD DUP5 GAS STATICCALL POP POP POP JUMP JUMPDEST PUSH2 0x14D PUSH1 0x20 SHL PUSH2 0x666 OR DUP2 SWAP1 POP SWAP2 SWAP1 POP JUMP JUMPDEST PUSH2 0x155 PUSH2 0x1E7 JUMP JUMPDEST JUMP JUMPDEST PUSH0 DUP2 MLOAD SWAP1 POP SWAP2 SWAP1 POP JUMP JUMPDEST PUSH0 DUP3 DUP3 MSTORE PUSH1 0x20 DUP3 ADD SWAP1 POP SWAP3 SWAP2 POP POP JUMP JUMPDEST DUP3 DUP2 DUP4 MCOPY PUSH0 DUP4 DUP4 ADD MSTORE POP POP POP JUMP JUMPDEST PUSH0 PUSH1 0x1F NOT PUSH1 0x1F DUP4 ADD AND SWAP1 POP SWAP2 SWAP1 POP JUMP JUMPDEST PUSH0 PUSH2 0x199 DUP3 PUSH2 0x157 JUMP JUMPDEST PUSH2 0x1A3 DUP2 DUP6 PUSH2 0x161 JUMP JUMPDEST SWAP4 POP PUSH2 0x1B3 DUP2 DUP6 PUSH1 0x20 DUP7 ADD PUSH2 0x171 JUMP JUMPDEST PUSH2 0x1BC DUP2 PUSH2 0x17F JUMP JUMPDEST DUP5 ADD SWAP2 POP POP SWAP3 SWAP2 POP POP JUMP JUMPDEST PUSH0 PUSH1 0x20 DUP3 ADD SWAP1 POP DUP2 DUP2 SUB PUSH0 DUP4 ADD MSTORE PUSH2 0x1DF DUP2 DUP5 PUSH2 0x18F JUMP JUMPDEST SWAP1 POP SWAP3 SWAP2 POP POP JUMP JUMPDEST PUSH32 0x4E487B7100000000000000000000000000000000000000000000000000000000 PUSH0 MSTORE PUSH1 0x51 PUSH1 0x4 MSTORE PUSH1 0x24 PUSH0 REVERT JUMPDEST PUSH2 0xC57 DUP1 PUSH2 0x221 PUSH0 CODECOPY PUSH0 RETURN INVALID PUSH1 0x80 PUSH1 0x40 MSTORE CALLVALUE DUP1 ISZERO PUSH2 0xF JUMPI PUSH0 PUSH0 REVERT JUMPDEST POP PUSH1 0x4 CALLDATASIZE LT PUSH2 0x60 JUMPI PUSH0 CALLDATALOAD PUSH1 0xE0 SHR DUP1 PUSH4 0x2AA531D9 EQ PUSH2 0x64 JUMPI DUP1 PUSH4 0x2FCF58CB EQ PUSH2 0x96 JUMPI DUP1 PUSH4 0x72F215C2 EQ PUSH2 0xA0 JUMPI DUP1 PUSH4 0xD4F77B1C EQ PUSH2 0xBE JUMPI DUP1 PUSH4 0xD8ADDE12 EQ PUSH2 0xC8 JUMPI DUP1 PUSH4 0xE2EB41FF EQ PUSH2 0xD2 JUMPI JUMPDEST PUSH0 PUSH0 REVERT JUMPDEST PUSH2 0x7E PUSH1 0x4 DUP1 CALLDATASIZE SUB DUP2 ADD SWAP1 PUSH2 0x79 SWAP2 SWAP1 PUSH2 0x6CE JUMP JUMPDEST PUSH2 0x105 JUMP JUMPDEST PUSH1 0x40 MLOAD PUSH2 0x8D SWAP4 SWAP3 SWAP2 SWAP1 PUSH2 0x711 JUMP JUMPDEST PUSH1 0x40 MLOAD DUP1 SWAP2 SUB SWAP1 RETURN JUMPDEST PUSH2 0x9E PUSH2 0x195 JUMP JUMPDEST STOP JUMPDEST PUSH2 0xA8 PUSH2 0x2A3 JUMP JUMPDEST PUSH1 0x40 MLOAD PUSH2 0xB5 SWAP2 SWAP1 PUSH2 0x746 JUMP JUMPDEST PUSH1 0x40 MLOAD DUP1 SWAP2 SUB SWAP1 RETURN JUMPDEST PUSH2 0xC6 PUSH2 0x2A8 JUMP JUMPDEST STOP JUMPDEST PUSH2 0xD0 PUSH2 0x37D JUMP JUMPDEST STOP JUMPDEST PUSH2 0xEC PUSH1 0x4 DUP1 CALLDATASIZE SUB DUP2 ADD SWAP1 PUSH2 0xE7 SWAP2 SWAP1 PUSH2 0x6CE JUMP JUMPDEST PUSH2 0x4E6 JUMP JUMPDEST PUSH1 0x40 MLOAD PUSH2 0xFC SWAP5 SWAP4 SWAP3 SWAP2 SWAP1 PUSH2 0x75F JUMP JUMPDEST PUSH1 0x40 MLOAD DUP1 SWAP2 SUB SWAP1 RETURN JUMPDEST PUSH0 PUSH0 PUSH0 PUSH0 PUSH0 PUSH0 DUP7 PUSH20 0xFFFFFFFFFFFFFFFFFFFFFFFFFFFFFFFFFFFFFFFF AND PUSH20 0xFFFFFFFFFFFFFFFFFFFFFFFFFFFFFFFFFFFFFFFF AND DUP2 MSTORE PUSH1 0x20 ADD SWAP1 DUP2 MSTORE PUSH1 0x20 ADD PUSH0 KECCAK256 PUSH1 0x40 MLOAD DUP1 PUSH1 0x80 ADD PUSH1 0x40 MSTORE SWAP1 DUP2 PUSH0 DUP3 ADD SLOAD DUP2 MSTORE PUSH1 0x20 ADD PUSH1 0x1 DUP3 ADD SLOAD DUP2 MSTORE PUSH1 0x20 ADD PUSH1 0x2 DUP3 ADD SLOAD DUP2 MSTORE PUSH1 0x20 ADD PUSH1 0x3 DUP3 ADD SLOAD DUP2 MSTORE POP POP SWAP1 POP DUP1 PUSH0 ADD MLOAD DUP2 PUSH1 0x20 ADD MLOAD DUP3 PUSH1 0x60 ADD MLOAD SWAP4 POP SWAP4 POP SWAP4 POP POP SWAP2 SWAP4 SWAP1 SWAP3 POP JUMP JUMPDEST PUSH0 PUSH0 PUSH0 CALLER PUSH20 0xFFFFFFFFFFFFFFFFFFFFFFFFFFFFFFFFFFFFFFFF AND PUSH20 0xFFFFFFFFFFFFFFFFFFFFFFFFFFFFFFFFFFFFFFFF AND DUP2 MSTORE PUSH1 0x20 ADD SWAP1 DUP2 MSTORE PUSH1 0x20 ADD PUSH0 KECCAK256 SWAP1 POP PUSH0 PUSH2 0x1E4 DUP3 PUSH1 0x2 ADD SLOAD PUSH1 0x5 PUSH2 0x530 JUMP JUMPDEST SWAP1 POP DUP1 DUP3 PUSH1 0x1 ADD PUSH0 DUP3 DUP3 SLOAD PUSH2 0x1F9 SWAP2 SWAP1 PUSH2 0x7CF JUMP JUMPDEST SWAP3 POP POP DUP2 SWAP1 SSTORE POP TIMESTAMP DUP3 PUSH1 0x2 ADD DUP2 SWAP1 SSTORE POP PUSH2 0x24D PUSH1 0x40 MLOAD DUP1 PUSH1 0x40 ADD PUSH1 0x40 MSTORE DUP1 PUSH1 0x1F DUP2 MSTORE PUSH1 0x20 ADD PUSH32 0x656E65726779207265636F76657265643A2025642E20746F74616C3A20256400 DUP2 MSTORE POP DUP3 DUP5 PUSH1 0x1 ADD SLOAD PUSH2 0x555 JUMP JUMPDEST CALLER PUSH20 0xFFFFFFFFFFFFFFFFFFFFFFFFFFFFFFFFFFFFFFFF AND PUSH32 0x78C007F3D95BA9FC66C35EB87F9D22507BE1AC762CA01965C27D276B23BEB16D DUP4 PUSH1 0x1 ADD SLOAD PUSH1 0x40 MLOAD PUSH2 0x297 SWAP2 SWAP1 PUSH2 0x746 JUMP JUMPDEST PUSH1 0x40 MLOAD DUP1 SWAP2 SUB SWAP1 LOG2 POP POP JUMP JUMPDEST PUSH1 0x64 DUP2 JUMP JUMPDEST PUSH0 PUSH0 PUSH0 CALLER PUSH20 0xFFFFFFFFFFFFFFFFFFFFFFFFFFFFFFFFFFFFFFFF AND PUSH20 0xFFFFFFFFFFFFFFFFFFFFFFFFFFFFFFFFFFFFFFFF AND DUP2 MSTORE PUSH1 0x20 ADD SWAP1 DUP2 MSTORE PUSH1 0x20 ADD PUSH0 KECCAK256 PUSH1 0x2 ADD SLOAD EQ PUSH2 0x2F2 JUMPI PUSH0 PUSH0 REVERT JUMPDEST PUSH1 0x40 MLOAD DUP1 PUSH1 0x80 ADD PUSH1 0x40 MSTORE DUP1 PUSH2 0x3E8 DUP2 MSTORE PUSH1 0x20 ADD PUSH1 0x64 DUP2 MSTORE PUSH1 0x20 ADD TIMESTAMP DUP2 MSTORE PUSH1 0x20 ADD PUSH0 DUP2 MSTORE POP PUSH0 PUSH0 CALLER PUSH20 0xFFFFFFFFFFFFFFFFFFFFFFFFFFFFFFFFFFFFFFFF AND PUSH20 0xFFFFFFFFFFFFFFFFFFFFFFFFFFFFFFFFFFFFFFFF AND DUP2 MSTORE PUSH1 0x20 ADD SWAP1 DUP2 MSTORE PUSH1 0x20 ADD PUSH0 KECCAK256 PUSH0 DUP3 ADD MLOAD DUP2 PUSH0 ADD SSTORE PUSH1 0x20 DUP3 ADD MLOAD DUP2 PUSH1 0x1 ADD SSTORE PUSH1 0x40 DUP3 ADD MLOAD DUP2 PUSH1 0x2 ADD SSTORE PUSH1 0x60 DUP3 ADD MLOAD DUP2 PUSH1 0x3 ADD SSTORE SWAP1 POP POP JUMP JUMPDEST PUSH0 PUSH0 PUSH0 CALLER PUSH20 0xFFFFFFFFFFFFFFFFFFFFFFFFFFFFFFFFFFFFFFFF AND PUSH20 0xFFFFFFFFFFFFFFFFFFFFFFFFFFFFFFFFFFFFFFFF AND DUP2 MSTORE PUSH1 0x20 ADD SWAP1 DUP2 MSTORE PUSH1 0x20 ADD PUSH0 KECCAK256 SWAP1 POP PUSH0 PUSH2 0x3D5 DUP3 PUSH1 0x3 ADD SLOAD PUSH1 0x64 PUSH2 0x5F4 SWAP1 SWAP2 SWAP1 PUSH4 0xFFFFFFFF AND JUMP JUMPDEST SWAP1 POP PUSH0 PUSH2 0x3EC PUSH1 0xA DUP4 PUSH2 0x615 SWAP1 SWAP2 SWAP1 PUSH4 0xFFFFFFFF AND JUMP JUMPDEST SWAP1 POP DUP1 DUP4 PUSH0 ADD SLOAD LT ISZERO PUSH2 0x434 JUMPI PUSH1 0x40 MLOAD PUSH32 0x8C379A000000000000000000000000000000000000000000000000000000000 DUP2 MSTORE PUSH1 0x4 ADD PUSH2 0x42B SWAP1 PUSH2 0x85C JUMP JUMPDEST PUSH1 0x40 MLOAD DUP1 SWAP2 SUB SWAP1 REVERT JUMPDEST DUP1 DUP4 PUSH0 ADD PUSH0 DUP3 DUP3 SLOAD PUSH2 0x446 SWAP2 SWAP1 PUSH2 0x87A JUMP JUMPDEST SWAP3 POP POP DUP2 SWAP1 SSTORE POP DUP3 PUSH1 0x3 ADD PUSH0 DUP2 SLOAD DUP1 SWAP3 SWAP2 SWAP1 PUSH2 0x461 SWAP1 PUSH2 0x8AD JUMP JUMPDEST SWAP2 SWAP1 POP SSTORE POP PUSH2 0x48D PUSH1 0x40 MLOAD DUP1 PUSH1 0x60 ADD PUSH1 0x40 MSTORE DUP1 PUSH1 0x26 DUP2 MSTORE PUSH1 0x20 ADD PUSH2 0xBFC PUSH1 0x26 SWAP2 CODECOPY DUP5 PUSH1 0x3 ADD SLOAD DUP4 PUSH2 0x555 JUMP JUMPDEST CALLER PUSH20 0xFFFFFFFFFFFFFFFFFFFFFFFFFFFFFFFFFFFFFFFF AND PUSH32 0xE89AAEB9EEE869D9FEE98314598AE974E15AF4DCB5321A66415944799354E019 DUP5 PUSH1 0x3 ADD SLOAD DUP4 PUSH1 0x40 MLOAD PUSH2 0x4D9 SWAP3 SWAP2 SWAP1 PUSH2 0x8F4 JUMP JUMPDEST PUSH1 0x40 MLOAD DUP1 SWAP2 SUB SWAP1 LOG2 POP POP POP JUMP JUMPDEST PUSH0 PUSH1 0x20 MSTORE DUP1 PUSH0 MSTORE PUSH1 0x40 PUSH0 KECCAK256 PUSH0 SWAP2 POP SWAP1 POP DUP1 PUSH0 ADD SLOAD SWAP1 DUP1 PUSH1 0x1 ADD SLOAD SWAP1 DUP1 PUSH1 0x2 ADD SLOAD SWAP1 DUP1 PUSH1 0x3 ADD SLOAD SWAP1 POP DUP5 JUMP JUMPDEST PUSH0 PUSH11 0x636F6E736F6C652E6C6F67 SWAP1 POP PUSH0 PUSH0 DUP4 MLOAD PUSH1 0x20 DUP6 ADD DUP5 GAS STATICCALL POP POP POP JUMP JUMPDEST PUSH0 PUSH0 DUP4 TIMESTAMP PUSH2 0x53E SWAP2 SWAP1 PUSH2 0x87A JUMP JUMPDEST SWAP1 POP DUP3 DUP2 PUSH2 0x54C SWAP2 SWAP1 PUSH2 0x91B JUMP JUMPDEST SWAP2 POP POP SWAP3 SWAP2 POP POP JUMP JUMPDEST PUSH2 0x5EF DUP4 DUP4 DUP4 PUSH1 0x40 MLOAD PUSH1 0x24 ADD PUSH2 0x56D SWAP4 SWAP3 SWAP2 SWAP1 PUSH2 0x9BC JUMP JUMPDEST PUSH1 0x40 MLOAD PUSH1 0x20 DUP2 DUP4 SUB SUB DUP2 MSTORE SWAP1 PUSH1 0x40 MSTORE PUSH32 0xCA47C4EB00000000000000000000000000000000000000000000000000000000 PUSH28 0xFFFFFFFFFFFFFFFFFFFFFFFFFFFFFFFFFFFFFFFFFFFFFFFFFFFFFFFF NOT AND PUSH1 0x20 DUP3 ADD DUP1 MLOAD PUSH28 0xFFFFFFFFFFFFFFFFFFFFFFFFFFFFFFFFFFFFFFFFFFFFFFFFFFFFFFFF DUP4 DUP2 DUP4 AND OR DUP4 MSTORE POP POP POP POP PUSH2 0x641 JUMP JUMPDEST POP POP POP JUMP JUMPDEST PUSH0 DUP2 PUSH1 0x2 PUSH2 0x602 SWAP2 SWAP1 PUSH2 0xB27 JUMP JUMPDEST DUP4 PUSH2 0x60D SWAP2 SWAP1 PUSH2 0x91B JUMP JUMPDEST SWAP1 POP SWAP3 SWAP2 POP POP JUMP JUMPDEST PUSH0 PUSH1 0x64 DUP3 DUP5 PUSH2 0x624 SWAP2 SWAP1 PUSH2 0x91B JUMP JUMPDEST PUSH2 0x62E SWAP2 SWAP1 PUSH2 0xB9E JUMP JUMPDEST DUP4 PUSH2 0x639 SWAP2 SWAP1 PUSH2 0x87A JUMP JUMPDEST SWAP1 POP SWAP3 SWAP2 POP POP JUMP JUMPDEST PUSH2 0x658 DUP2 PUSH2 0x650 PUSH2 0x511 PUSH2 0x65B JUMP JUMPDEST PUSH4 0xFFFFFFFF AND JUMP JUMPDEST POP JUMP JUMPDEST PUSH2 0x666 DUP2 SWAP1 POP SWAP2 SWAP1 POP JUMP JUMPDEST PUSH2 0x66E PUSH2 0xBCE JUMP JUMPDEST JUMP JUMPDEST PUSH0 PUSH0 REVERT JUMPDEST PUSH0 PUSH20 0xFFFFFFFFFFFFFFFFFFFFFFFFFFFFFFFFFFFFFFFF DUP3 AND SWAP1 POP SWAP2 SWAP1 POP JUMP JUMPDEST PUSH0 PUSH2 0x69D DUP3 PUSH2 0x674 JUMP JUMPDEST SWAP1 POP SWAP2 SWAP1 POP JUMP JUMPDEST PUSH2 0x6AD DUP2 PUSH2 0x693 JUMP JUMPDEST DUP2 EQ PUSH2 0x6B7 JUMPI PUSH0 PUSH0 REVERT JUMPDEST POP JUMP JUMPDEST PUSH0 DUP2 CALLDATALOAD SWAP1 POP PUSH2 0x6C8 DUP2 PUSH2 0x6A4 JUMP JUMPDEST SWAP3 SWAP2 POP POP JUMP JUMPDEST PUSH0 PUSH1 0x20 DUP3 DUP5 SUB SLT ISZERO PUSH2 0x6E3 JUMPI PUSH2 0x6E2 PUSH2 0x670 JUMP JUMPDEST JUMPDEST PUSH0 PUSH2 0x6F0 DUP5 DUP3 DUP6 ADD PUSH2 0x6BA JUMP JUMPDEST SWAP2 POP POP SWAP3 SWAP2 POP POP JUMP JUMPDEST PUSH0 DUP2 SWAP1 POP SWAP2 SWAP1 POP JUMP JUMPDEST PUSH2 0x70B DUP2 PUSH2 0x6F9 JUMP JUMPDEST DUP3 MSTORE POP POP JUMP JUMPDEST PUSH0 PUSH1 0x60 DUP3 ADD SWAP1 POP PUSH2 0x724 PUSH0 DUP4 ADD DUP7 PUSH2 0x702 JUMP JUMPDEST PUSH2 0x731 PUSH1 0x20 DUP4 ADD DUP6 PUSH2 0x702 JUMP JUMPDEST PUSH2 0x73E PUSH1 0x40 DUP4 ADD DUP5 PUSH2 0x702 JUMP JUMPDEST SWAP5 SWAP4 POP POP POP POP JUMP JUMPDEST PUSH0 PUSH1 0x20 DUP3 ADD SWAP1 POP PUSH2 0x759 PUSH0 DUP4 ADD DUP5 PUSH2 0x702 JUMP JUMPDEST SWAP3 SWAP2 POP POP JUMP JUMPDEST PUSH0 PUSH1 0x80 DUP3 ADD SWAP1 POP PUSH2 0x772 PUSH0 DUP4 ADD DUP8 PUSH2 0x702 JUMP JUMPDEST PUSH2 0x77F PUSH1 0x20 DUP4 ADD DUP7 PUSH2 0x702 JUMP JUMPDEST PUSH2 0x78C PUSH1 0x40 DUP4 ADD DUP6 PUSH2 0x702 JUMP JUMPDEST PUSH2 0x799 PUSH1 0x60 DUP4 ADD DUP5 PUSH2 0x702 JUMP JUMPDEST SWAP6 SWAP5 POP POP POP POP POP JUMP JUMPDEST PUSH32 0x4E487B7100000000000000000000000000000000000000000000000000000000 PUSH0 MSTORE PUSH1 0x11 PUSH1 0x4 MSTORE PUSH1 0x24 PUSH0 REVERT JUMPDEST PUSH0 PUSH2 0x7D9 DUP3 PUSH2 0x6F9 JUMP JUMPDEST SWAP2 POP PUSH2 0x7E4 DUP4 PUSH2 0x6F9 JUMP JUMPDEST SWAP3 POP DUP3 DUP3 ADD SWAP1 POP DUP1 DUP3 GT ISZERO PUSH2 0x7FC JUMPI PUSH2 0x7FB PUSH2 0x7A2 JUMP JUMPDEST JUMPDEST SWAP3 SWAP2 POP POP JUMP JUMPDEST PUSH0 DUP3 DUP3 MSTORE PUSH1 0x20 DUP3 ADD SWAP1 POP SWAP3 SWAP2 POP POP JUMP JUMPDEST PUSH32 0x6E6F7420656E6F75676820676F6C640000000000000000000000000000000000 PUSH0 DUP3 ADD MSTORE POP JUMP JUMPDEST PUSH0 PUSH2 0x846 PUSH1 0xF DUP4 PUSH2 0x802 JUMP JUMPDEST SWAP2 POP PUSH2 0x851 DUP3 PUSH2 0x812 JUMP JUMPDEST PUSH1 0x20 DUP3 ADD SWAP1 POP SWAP2 SWAP1 POP JUMP JUMPDEST PUSH0 PUSH1 0x20 DUP3 ADD SWAP1 POP DUP2 DUP2 SUB PUSH0 DUP4 ADD MSTORE PUSH2 0x873 DUP2 PUSH2 0x83A JUMP JUMPDEST SWAP1 POP SWAP2 SWAP1 POP JUMP JUMPDEST PUSH0 PUSH2 0x884 DUP3 PUSH2 0x6F9 JUMP JUMPDEST SWAP2 POP PUSH2 0x88F DUP4 PUSH2 0x6F9 JUMP JUMPDEST SWAP3 POP DUP3 DUP3 SUB SWAP1 POP DUP2 DUP2 GT ISZERO PUSH2 0x8A7 JUMPI PUSH2 0x8A6 PUSH2 0x7A2 JUMP JUMPDEST JUMPDEST SWAP3 SWAP2 POP POP JUMP JUMPDEST PUSH0 PUSH2 0x8B7 DUP3 PUSH2 0x6F9 JUMP JUMPDEST SWAP2 POP PUSH32 0xFFFFFFFFFFFFFFFFFFFFFFFFFFFFFFFFFFFFFFFFFFFFFFFFFFFFFFFFFFFFFFFF DUP3 SUB PUSH2 0x8E9 JUMPI PUSH2 0x8E8 PUSH2 0x7A2 JUMP JUMPDEST JUMPDEST PUSH1 0x1 DUP3 ADD SWAP1 POP SWAP2 SWAP1 POP JUMP JUMPDEST PUSH0 PUSH1 0x40 DUP3 ADD SWAP1 POP PUSH2 0x907 PUSH0 DUP4 ADD DUP6 PUSH2 0x702 JUMP JUMPDEST PUSH2 0x914 PUSH1 0x20 DUP4 ADD DUP5 PUSH2 0x702 JUMP JUMPDEST SWAP4 SWAP3 POP POP POP JUMP JUMPDEST PUSH0 PUSH2 0x925 DUP3 PUSH2 0x6F9 JUMP JUMPDEST SWAP2 POP PUSH2 0x930 DUP4 PUSH2 0x6F9 JUMP JUMPDEST SWAP3 POP DUP3 DUP3 MUL PUSH2 0x93E DUP2 PUSH2 0x6F9 JUMP JUMPDEST SWAP2 POP DUP3 DUP3 DIV DUP5 EQ DUP4 ISZERO OR PUSH2 0x955 JUMPI PUSH2 0x954 PUSH2 0x7A2 JUMP JUMPDEST JUMPDEST POP SWAP3 SWAP2 POP POP JUMP JUMPDEST PUSH0 DUP2 MLOAD SWAP1 POP SWAP2 SWAP1 POP JUMP JUMPDEST DUP3 DUP2 DUP4 MCOPY PUSH0 DUP4 DUP4 ADD MSTORE POP POP POP JUMP JUMPDEST PUSH0 PUSH1 0x1F NOT PUSH1 0x1F DUP4 ADD AND SWAP1 POP SWAP2 SWAP1 POP JUMP JUMPDEST PUSH0 PUSH2 0x98E DUP3 PUSH2 0x95C JUMP JUMPDEST PUSH2 0x998 DUP2 DUP6 PUSH2 0x802 JUMP JUMPDEST SWAP4 POP PUSH2 0x9A8 DUP2 DUP6 PUSH1 0x20 DUP7 ADD PUSH2 0x966 JUMP JUMPDEST PUSH2 0x9B1 DUP2 PUSH2 0x974 JUMP JUMPDEST DUP5 ADD SWAP2 POP POP SWAP3 SWAP2 POP POP JUMP JUMPDEST PUSH0 PUSH1 0x60 DUP3 ADD SWAP1 POP DUP2 DUP2 SUB PUSH0 DUP4 ADD MSTORE PUSH2 0x9D4 DUP2 DUP7 PUSH2 0x984 JUMP JUMPDEST SWAP1 POP PUSH2 0x9E3 PUSH1 0x20 DUP4 ADD DUP6 PUSH2 0x702 JUMP JUMPDEST PUSH2 0x9F0 PUSH1 0x40 DUP4 ADD DUP5 PUSH2 0x702 JUMP JUMPDEST SWAP5 SWAP4 POP POP POP POP JUMP JUMPDEST PUSH0 DUP2 PUSH1 0x1 SHR SWAP1 POP SWAP2 SWAP1 POP JUMP JUMPDEST PUSH0 PUSH0 DUP3 SWAP2 POP DUP4 SWAP1 POP JUMPDEST PUSH1 0x1 DUP6 GT ISZERO PUSH2 0xA4D JUMPI DUP1 DUP7 DIV DUP2 GT ISZERO PUSH2 0xA29 JUMPI PUSH2 0xA28 PUSH2 0x7A2 JUMP JUMPDEST JUMPDEST PUSH1 0x1 DUP6 AND ISZERO PUSH2 0xA38 JUMPI DUP1 DUP3 MUL SWAP2 POP JUMPDEST DUP1 DUP2 MUL SWAP1 POP PUSH2 0xA46 DUP6 PUSH2 0x9F8 JUMP JUMPDEST SWAP5 POP PUSH2 0xA0D JUMP JUMPDEST SWAP5 POP SWAP5 SWAP3 POP POP POP JUMP JUMPDEST PUSH0 DUP3 PUSH2 0xA65 JUMPI PUSH1 0x1 SWAP1 POP PUSH2 0xB20 JUMP JUMPDEST DUP2 PUSH2 0xA72 JUMPI PUSH0 SWAP1 POP PUSH2 0xB20 JUMP JUMPDEST DUP2 PUSH1 0x1 DUP2 EQ PUSH2 0xA88 JUMPI PUSH1 0x2 DUP2 EQ PUSH2 0xA92 JUMPI PUSH2 0xAC1 JUMP JUMPDEST PUSH1 0x1 SWAP2 POP POP PUSH2 0xB20 JUMP JUMPDEST PUSH1 0xFF DUP5 GT ISZERO PUSH2 0xAA4 JUMPI PUSH2 0xAA3 PUSH2 0x7A2 JUMP JUMPDEST JUMPDEST DUP4 PUSH1 0x2 EXP SWAP2 POP DUP5 DUP3 GT ISZERO PUSH2 0xABB JUMPI PUSH2 0xABA PUSH2 0x7A2 JUMP JUMPDEST JUMPDEST POP PUSH2 0xB20 JUMP JUMPDEST POP PUSH1 0x20 DUP4 LT PUSH2 0x133 DUP4 LT AND PUSH1 0x4E DUP5 LT PUSH1 0xB DUP5 LT AND OR ISZERO PUSH2 0xAF6 JUMPI DUP3 DUP3 EXP SWAP1 POP DUP4 DUP2 GT ISZERO PUSH2 0xAF1 JUMPI PUSH2 0xAF0 PUSH2 0x7A2 JUMP JUMPDEST JUMPDEST PUSH2 0xB20 JUMP JUMPDEST PUSH2 0xB03 DUP5 DUP5 DUP5 PUSH1 0x1 PUSH2 0xA04 JUMP JUMPDEST SWAP3 POP SWAP1 POP DUP2 DUP5 DIV DUP2 GT ISZERO PUSH2 0xB1A JUMPI PUSH2 0xB19 PUSH2 0x7A2 JUMP JUMPDEST JUMPDEST DUP2 DUP2 MUL SWAP1 POP JUMPDEST SWAP4 SWAP3 POP POP POP JUMP JUMPDEST PUSH0 PUSH2 0xB31 DUP3 PUSH2 0x6F9 JUMP JUMPDEST SWAP2 POP PUSH2 0xB3C DUP4 PUSH2 0x6F9 JUMP JUMPDEST SWAP3 POP PUSH2 0xB69 PUSH32 0xFFFFFFFFFFFFFFFFFFFFFFFFFFFFFFFFFFFFFFFFFFFFFFFFFFFFFFFFFFFFFFFF DUP5 DUP5 PUSH2 0xA56 JUMP JUMPDEST SWAP1 POP SWAP3 SWAP2 POP POP JUMP JUMPDEST PUSH32 0x4E487B7100000000000000000000000000000000000000000000000000000000 PUSH0 MSTORE PUSH1 0x12 PUSH1 0x4 MSTORE PUSH1 0x24 PUSH0 REVERT JUMPDEST PUSH0 PUSH2 0xBA8 DUP3 PUSH2 0x6F9 JUMP JUMPDEST SWAP2 POP PUSH2 0xBB3 DUP4 PUSH2 0x6F9 JUMP JUMPDEST SWAP3 POP DUP3 PUSH2 0xBC3 JUMPI PUSH2 0xBC2 PUSH2 0xB71 JUMP JUMPDEST JUMPDEST DUP3 DUP3 DIV SWAP1 POP SWAP3 SWAP2 POP POP JUMP JUMPDEST PUSH32 0x4E487B7100000000000000000000000000000000000000000000000000000000 PUSH0 MSTORE PUSH1 0x51 PUSH1 0x4 MSTORE PUSH1 0x24 PUSH0 REVERT INVALID PUSH20 0x776F726420757067726164656420746F206C6576 PUSH6 0x6C2025642066 PUSH16 0x7220256420676F6C64A2646970667358 0x22 SLT KECCAK256 MCOPY REVERT SHR 0xDD ADDMOD CALLVALUE DUP15 SWAP6 0xD6 EXTCODEHASH CREATE SMOD PUSH12 0x8FE37F1F93EA5D37A5044FD4 0x26 SUB 0xC0 0xC4 PUSH5 0x9E6E64736F PUSH13 0x634300081E0033000000000000 "
		},
		"gasEstimates": {
			"creation": {
				"codeDepositCost": "631800",
				"executionCost": "infinite",
				"totalCost": "infinite"
			},
			"external": {
				"BASE_UPGRADE_COST()": "347",
				"getPlayerData(address)": "infinite",
				"joinGame()": "73972",
				"players(address)": "infinite",
				"refreshEnergy()": "infinite",
				"upgradeSword()": "infinite"
			}
		},
		"methodIdentifiers": {
			"BASE_UPGRADE_COST()": "72f215c2",
			"getPlayerData(address)": "2aa531d9",
			"joinGame()": "d4f77b1c",
			"players(address)": "e2eb41ff",
			"refreshEnergy()": "2fcf58cb",
			"upgradeSword()": "d8adde12"
		}
	},
	"abi": [
		{
			"inputs": [],
			"stateMutability": "nonpayable",
			"type": "constructor"
		},
		{
			"anonymous": false,
			"inputs": [
				{
					"indexed": true,
					"internalType": "address",
					"name": "player",
					"type": "address"
				},
				{
					"indexed": false,
					"internalType": "uint256",
					"name": "amount",
					"type": "uint256"
				}
			],
			"name": "EnergyRefilled",
			"type": "event"
		},
		{
			"anonymous": false,
			"inputs": [
				{
					"indexed": true,
					"internalType": "address",
					"name": "player",
					"type": "address"
				},
				{
					"indexed": false,
					"internalType": "uint256",
					"name": "newLevel",
					"type": "uint256"
				},
				{
					"indexed": false,
					"internalType": "uint256",
					"name": "cost",
					"type": "uint256"
				}
			],
			"name": "Upgraded",
			"type": "event"
		},
		{
			"inputs": [],
			"name": "BASE_UPGRADE_COST",
			"outputs": [
				{
					"internalType": "uint256",
					"name": "",
					"type": "uint256"
				}
			],
			"stateMutability": "view",
			"type": "function"
		},
		{
			"inputs": [
				{
					"internalType": "address",
					"name": "_addr",
					"type": "address"
				}
			],
			"name": "getPlayerData",
			"outputs": [
				{
					"internalType": "uint256",
					"name": "",
					"type": "uint256"
				},
				{
					"internalType": "uint256",
					"name": "",
					"type": "uint256"
				},
				{
					"internalType": "uint256",
					"name": "",
					"type": "uint256"
				}
			],
			"stateMutability": "view",
			"type": "function"
		},
		{
			"inputs": [],
			"name": "joinGame",
			"outputs": [],
			"stateMutability": "nonpayable",
			"type": "function"
		},
		{
			"inputs": [
				{
					"internalType": "address",
					"name": "",
					"type": "address"
				}
			],
			"name": "players",
			"outputs": [
				{
					"internalType": "uint256",
					"name": "gold",
					"type": "uint256"
				},
				{
					"internalType": "uint256",
					"name": "energy",
					"type": "uint256"
				},
				{
					"internalType": "uint256",
					"name": "lastEnergyUpdate",
					"type": "uint256"
				},
				{
					"internalType": "uint256",
					"name": "swordLevel",
					"type": "uint256"
				}
			],
			"stateMutability": "view",
			"type": "function"
		},
		{
			"inputs": [],
			"name": "refreshEnergy",
			"outputs": [],
			"stateMutability": "nonpayable",
			"type": "function"
		},
		{
			"inputs": [],
			"name": "upgradeSword",
			"outputs": [],
			"stateMutability": "nonpayable",
			"type": "function"
		}
	]
}