{
	"data": {
		"bytecode": {
			"linkReferences": {},
			"object": "6080604052348015600e575f5ffd5b506105068061001c5f395ff3fe608060405234801561000f575f5ffd5b506004361061003f575f3560e01c806308ae4b0c1461004357806313b8ad31146100755780639e5faafc146100a5575b5f5ffd5b61005d600480360381019061005891906102d2565b6100c4565b60405161006c93929190610385565b60405180910390f35b61008f600480360381019061008a91906103f2565b6101f5565b60405161009c919061042c565b60405180910390f35b6100ad610230565b6040516100bb929190610445565b60405180910390f35b5f602052805f5260405f205f91509050805f0180546100e2906104a0565b80601f016020809104026020016040519081016040528092919081815260200182805461010e906104a0565b80156101595780601f1061013057610100808354040283529160200191610159565b820191905f5260205f20905b81548152906001019060200180831161013c57829003601f168201915b505050505090806001015490806002018054610174906104a0565b80601f01602080910402602001604051908101604052809291908181526020018280546101a0906104a0565b80156101eb5780601f106101c2576101008083540402835291602001916101eb565b820191905f5260205f20905b8154815290600101906020018083116101ce57829003601f168201915b5050505050905083565b60018181548110610204575f80fd5b905f5260205f20015f915054906101000a900473ffffffffffffffffffffffffffffffffffffffff1681565b60605f600a6040518060400160405280600c81526020017f42617369632041747461636b000000000000000000000000000000000000000081525090915091509091565b5f5ffd5b5f73ffffffffffffffffffffffffffffffffffffffff82169050919050565b5f6102a182610278565b9050919050565b6102b181610297565b81146102bb575f5ffd5b50565b5f813590506102cc816102a8565b92915050565b5f602082840312156102e7576102e6610274565b5b5f6102f4848285016102be565b91505092915050565b5f81519050919050565b5f82825260208201905092915050565b8281835e5f83830152505050565b5f601f19601f8301169050919050565b5f61033f826102fd565b6103498185610307565b9350610359818560208601610317565b61036281610325565b840191505092915050565b5f819050919050565b61037f8161036d565b82525050565b5f6060820190508181035f83015261039d8186610335565b90506103ac6020830185610376565b81810360408301526103be8184610335565b9050949350505050565b6103d18161036d565b81146103db575f5ffd5b50565b5f813590506103ec816103c8565b92915050565b5f6020828403121561040757610406610274565b5b5f610414848285016103de565b91505092915050565b61042681610297565b82525050565b5f60208201905061043f5f83018461041d565b92915050565b5f6040820190508181035f83015261045d8185610335565b905061046c6020830184610376565b9392505050565b7f4e487b71000000000000000000000000000000000000000000000000000000005f52602260045260245ffd5b5f60028204905060018216806104b757607f821691505b6020821081036104ca576104c9610473565b5b5091905056fea264697066735822122021a5181c992a9396d4356d3f5dc0659480f67534d7983930f22a65911dad7bab64736f6c634300081e0033",
			"opcodes": "PUSH1 0x80 PUSH1 0x40 MSTORE CALLVALUE DUP1 ISZERO PUSH1 0xE JUMPI PUSH0 PUSH0 REVERT JUMPDEST POP PUSH2 0x506 DUP1 PUSH2 0x1C PUSH0 CODECOPY PUSH0 RETURN INVALID PUSH1 0x80 PUSH1 0x40 MSTORE CALLVALUE DUP1 ISZERO PUSH2 0xF JUMPI PUSH0 PUSH0 REVERT JUMPDEST POP PUSH1 0x4 CALLDATASIZE LT PUSH2 0x3F JUMPI PUSH0 CALLDATALOAD PUSH1 0xE0 SHR DUP1 PUSH4 0x8AE4B0C EQ PUSH2 0x43 JUMPI DUP1 PUSH4 0x13B8AD31 EQ PUSH2 0x75 JUMPI DUP1 PUSH4 0x9E5FAAFC EQ PUSH2 0xA5 JUMPI JUMPDEST PUSH0 PUSH0 REVERT JUMPDEST PUSH2 0x5D PUSH1 0x4 DUP1 CALLDATASIZE SUB DUP2 ADD SWAP1 PUSH2 0x58 SWAP2 SWAP1 PUSH2 0x2D2 JUMP JUMPDEST PUSH2 0xC4 JUMP JUMPDEST PUSH1 0x40 MLOAD PUSH2 0x6C SWAP4 SWAP3 SWAP2 SWAP1 PUSH2 0x385 JUMP JUMPDEST PUSH1 0x40 MLOAD DUP1 SWAP2 SUB SWAP1 RETURN JUMPDEST PUSH2 0x8F PUSH1 0x4 DUP1 CALLDATASIZE SUB DUP2 ADD SWAP1 PUSH2 0x8A SWAP2 SWAP1 PUSH2 0x3F2 JUMP JUMPDEST PUSH2 0x1F5 JUMP JUMPDEST PUSH1 0x40 MLOAD PUSH2 0x9C SWAP2 SWAP1 PUSH2 0x42C JUMP JUMPDEST PUSH1 0x40 MLOAD DUP1 SWAP2 SUB SWAP1 RETURN JUMPDEST PUSH2 0xAD PUSH2 0x230 JUMP JUMPDEST PUSH1 0x40 MLOAD PUSH2 0xBB SWAP3 SWAP2 SWAP1 PUSH2 0x445 JUMP JUMPDEST PUSH1 0x40 MLOAD DUP1 SWAP2 SUB SWAP1 RETURN JUMPDEST PUSH0 PUSH1 0x20 MSTORE DUP1 PUSH0 MSTORE PUSH1 0x40 PUSH0 KECCAK256 PUSH0 SWAP2 POP SWAP1 POP DUP1 PUSH0 ADD DUP1 SLOAD PUSH2 0xE2 SWAP1 PUSH2 0x4A0 JUMP JUMPDEST DUP1 PUSH1 0x1F ADD PUSH1 0x20 DUP1 SWAP2 DIV MUL PUSH1 0x20 ADD PUSH1 0x40 MLOAD SWAP1 DUP2 ADD PUSH1 0x40 MSTORE DUP1 SWAP3 SWAP2 SWAP1 DUP2 DUP2 MSTORE PUSH1 0x20 ADD DUP3 DUP1 SLOAD PUSH2 0x10E SWAP1 PUSH2 0x4A0 JUMP JUMPDEST DUP1 ISZERO PUSH2 0x159 JUMPI DUP1 PUSH1 0x1F LT PUSH2 0x130 JUMPI PUSH2 0x100 DUP1 DUP4 SLOAD DIV MUL DUP4 MSTORE SWAP2 PUSH1 0x20 ADD SWAP2 PUSH2 0x159 JUMP JUMPDEST DUP3 ADD SWAP2 SWAP1 PUSH0 MSTORE PUSH1 0x20 PUSH0 KECCAK256 SWAP1 JUMPDEST DUP2 SLOAD DUP2 MSTORE SWAP1 PUSH1 0x1 ADD SWAP1 PUSH1 0x20 ADD DUP1 DUP4 GT PUSH2 0x13C JUMPI DUP3 SWAP1 SUB PUSH1 0x1F AND DUP3 ADD SWAP2 JUMPDEST POP POP POP POP POP SWAP1 DUP1 PUSH1 0x1 ADD SLOAD SWAP1 DUP1 PUSH1 0x2 ADD DUP1 SLOAD PUSH2 0x174 SWAP1 PUSH2 0x4A0 JUMP JUMPDEST DUP1 PUSH1 0x1F ADD PUSH1 0x20 DUP1 SWAP2 DIV MUL PUSH1 0x20 ADD PUSH1 0x40 MLOAD SWAP1 DUP2 ADD PUSH1 0x40 MSTORE DUP1 SWAP3 SWAP2 SWAP1 DUP2 DUP2 MSTORE PUSH1 0x20 ADD DUP3 DUP1 SLOAD PUSH2 0x1A0 SWAP1 PUSH2 0x4A0 JUMP JUMPDEST DUP1 ISZERO PUSH2 0x1EB JUMPI DUP1 PUSH1 0x1F LT PUSH2 0x1C2 JUMPI PUSH2 0x100 DUP1 DUP4 SLOAD DIV MUL DUP4 MSTORE SWAP2 PUSH1 0x20 ADD SWAP2 PUSH2 0x1EB JUMP JUMPDEST DUP3 ADD SWAP2 SWAP1 PUSH0 MSTORE PUSH1 0x20 PUSH0 KECCAK256 SWAP1 JUMPDEST DUP2 SLOAD DUP2 MSTORE SWAP1 PUSH1 0x1 ADD SWAP1 PUSH1 0x20 ADD DUP1 DUP4 GT PUSH2 0x1CE JUMPI DUP3 SWAP1 SUB PUSH1 0x1F AND DUP3 ADD SWAP2 JUMPDEST POP POP POP POP POP SWAP1 POP DUP4 JUMP JUMPDEST PUSH1 0x1 DUP2 DUP2 SLOAD DUP2 LT PUSH2 0x204 JUMPI PUSH0 DUP1 REVERT JUMPDEST SWAP1 PUSH0 MSTORE PUSH1 0x20 PUSH0 KECCAK256 ADD PUSH0 SWAP2 POP SLOAD SWAP1 PUSH2 0x100 EXP SWAP1 DIV PUSH20 0xFFFFFFFFFFFFFFFFFFFFFFFFFFFFFFFFFFFFFFFF AND DUP2 JUMP JUMPDEST PUSH1 0x60 PUSH0 PUSH1 0xA PUSH1 0x40 MLOAD DUP1 PUSH1 0x40 ADD PUSH1 0x40 MSTORE DUP1 PUSH1 0xC DUP2 MSTORE PUSH1 0x20 ADD PUSH32 0x42617369632041747461636B0000000000000000000000000000000000000000 DUP2 MSTORE POP SWAP1 SWAP2 POP SWAP2 POP SWAP1 SWAP2 JUMP JUMPDEST PUSH0 PUSH0 REVERT JUMPDEST PUSH0 PUSH20 0xFFFFFFFFFFFFFFFFFFFFFFFFFFFFFFFFFFFFFFFF DUP3 AND SWAP1 POP SWAP2 SWAP1 POP JUMP JUMPDEST PUSH0 PUSH2 0x2A1 DUP3 PUSH2 0x278 JUMP JUMPDEST SWAP1 POP SWAP2 SWAP1 POP JUMP JUMPDEST PUSH2 0x2B1 DUP2 PUSH2 0x297 JUMP JUMPDEST DUP2 EQ PUSH2 0x2BB JUMPI PUSH0 PUSH0 REVERT JUMPDEST POP JUMP JUMPDEST PUSH0 DUP2 CALLDATALOAD SWAP1 POP PUSH2 0x2CC DUP2 PUSH2 0x2A8 JUMP JUMPDEST SWAP3 SWAP2 POP POP JUMP JUMPDEST PUSH0 PUSH1 0x20 DUP3 DUP5 SUB SLT ISZERO PUSH2 0x2E7 JUMPI PUSH2 0x2E6 PUSH2 0x274 JUMP JUMPDEST JUMPDEST PUSH0 PUSH2 0x2F4 DUP5 DUP3 DUP6 ADD PUSH2 0x2BE JUMP JUMPDEST SWAP2 POP POP SWAP3 SWAP2 POP POP JUMP JUMPDEST PUSH0 DUP2 MLOAD SWAP1 POP SWAP2 SWAP1 POP JUMP JUMPDEST PUSH0 DUP3 DUP3 MSTORE PUSH1 0x20 DUP3 ADD SWAP1 POP SWAP3 SWAP2 POP POP JUMP JUMPDEST DUP3 DUP2 DUP4 MCOPY PUSH0 DUP4 DUP4 ADD MSTORE POP POP POP JUMP JUMPDEST PUSH0 PUSH1 0x1F NOT PUSH1 0x1F DUP4 ADD AND SWAP1 POP SWAP2 SWAP1 POP JUMP JUMPDEST PUSH0 PUSH2 0x33F DUP3 PUSH2 0x2FD JUMP JUMPDEST PUSH2 0x349 DUP2 DUP6 PUSH2 0x307 JUMP JUMPDEST SWAP4 POP PUSH2 0x359 DUP2 DUP6 PUSH1 0x20 DUP7 ADD PUSH2 0x317 JUMP JUMPDEST PUSH2 0x362 DUP2 PUSH2 0x325 JUMP JUMPDEST DUP5 ADD SWAP2 POP POP SWAP3 SWAP2 POP POP JUMP JUMPDEST PUSH0 DUP2 SWAP1 POP SWAP2 SWAP1 POP JUMP JUMPDEST PUSH2 0x37F DUP2 PUSH2 0x36D JUMP JUMPDEST DUP3 MSTORE POP POP JUMP JUMPDEST PUSH0 PUSH1 0x60 DUP3 ADD SWAP1 POP DUP2 DUP2 SUB PUSH0 DUP4 ADD MSTORE PUSH2 0x39D DUP2 DUP7 PUSH2 0x335 JUMP JUMPDEST SWAP1 POP PUSH2 0x3AC PUSH1 0x20 DUP4 ADD DUP6 PUSH2 0x376 JUMP JUMPDEST DUP2 DUP2 SUB PUSH1 0x40 DUP4 ADD MSTORE PUSH2 0x3BE DUP2 DUP5 PUSH2 0x335 JUMP JUMPDEST SWAP1 POP SWAP5 SWAP4 POP POP POP POP JUMP JUMPDEST PUSH2 0x3D1 DUP2 PUSH2 0x36D JUMP JUMPDEST DUP2 EQ PUSH2 0x3DB JUMPI PUSH0 PUSH0 REVERT JUMPDEST POP JUMP JUMPDEST PUSH0 DUP2 CALLDATALOAD SWAP1 POP PUSH2 0x3EC DUP2 PUSH2 0x3C8 JUMP JUMPDEST SWAP3 SWAP2 POP POP JUMP JUMPDEST PUSH0 PUSH1 0x20 DUP3 DUP5 SUB SLT ISZERO PUSH2 0x407 JUMPI PUSH2 0x406 PUSH2 0x274 JUMP JUMPDEST JUMPDEST PUSH0 PUSH2 0x414 DUP5 DUP3 DUP6 ADD PUSH2 0x3DE JUMP JUMPDEST SWAP2 POP POP SWAP3 SWAP2 POP POP JUMP JUMPDEST PUSH2 0x426 DUP2 PUSH2 0x297 JUMP JUMPDEST DUP3 MSTORE POP POP JUMP JUMPDEST PUSH0 PUSH1 0x20 DUP3 ADD SWAP1 POP PUSH2 0x43F PUSH0 DUP4 ADD DUP5 PUSH2 0x41D JUMP JUMPDEST SWAP3 SWAP2 POP POP JUMP JUMPDEST PUSH0 PUSH1 0x40 DUP3 ADD SWAP1 POP DUP2 DUP2 SUB PUSH0 DUP4 ADD MSTORE PUSH2 0x45D DUP2 DUP6 PUSH2 0x335 JUMP JUMPDEST SWAP1 POP PUSH2 0x46C PUSH1 0x20 DUP4 ADD DUP5 PUSH2 0x376 JUMP JUMPDEST SWAP4 SWAP3 POP POP POP JUMP JUMPDEST PUSH32 0x4E487B7100000000000000000000000000000000000000000000000000000000 PUSH0 MSTORE PUSH1 0x22 PUSH1 0x4 MSTORE PUSH1 0x24 PUSH0 REVERT JUMPDEST PUSH0 PUSH1 0x2 DUP3 DIV SWAP1 POP PUSH1 0x1 DUP3 AND DUP1 PUSH2 0x4B7 JUMPI PUSH1 0x7F DUP3 AND SWAP2 POP JUMPDEST PUSH1 0x20 DUP3 LT DUP2 SUB PUSH2 0x4CA JUMPI PUSH2 0x4C9 PUSH2 0x473 JUMP JUMPDEST JUMPDEST POP SWAP2 SWAP1 POP JUMP INVALID LOG2 PUSH5 0x6970667358 0x22 SLT KECCAK256 0x21 0xA5 XOR SHR SWAP10 0x2A SWAP4 SWAP7 0xD4 CALLDATALOAD PUSH14 0x3F5DC0659480F67534D7983930F2 0x2A PUSH6 0x911DAD7BAB64 PUSH20 0x6F6C634300081E00330000000000000000000000 "
		},
		"gasEstimates": {
			"creation": {
				"codeDepositCost": "257200",
				"executionCost": "298",
				"totalCost": "257498"
			},
			"external": {
				"attack()": "infinite",
				"members(address)": "infinite",
				"membersList(uint256)": "4944"
			},
			"internal": {
				"register(string memory,string memory)": "infinite"
			}
		},
		"methodIdentifiers": {
			"attack()": "9e5faafc",
			"members(address)": "08ae4b0c",
			"membersList(uint256)": "13b8ad31"
		}
	},
	"abi": [
		{
			"anonymous": false,
			"inputs": [
				{
					"indexed": true,
					"internalType": "address",
					"name": "warrior",
					"type": "address"
				},
				{
					"indexed": false,
					"internalType": "string",
					"name": "name",
					"type": "string"
				},
				{
					"indexed": false,
					"internalType": "string",
					"name": "className",
					"type": "string"
				}
			],
			"name": "WarriorRegistered",
			"type": "event"
		},
		{
			"inputs": [],
			"name": "attack",
			"outputs": [
				{
					"internalType": "string",
					"name": "",
					"type": "string"
				},
				{
					"internalType": "uint256",
					"name": "",
					"type": "uint256"
				}
			],
			"stateMutability": "view",
			"type": "function"
		},
		{
			"inputs": [
				{
					"internalType": "address",
					"name": "",
					"type": "address"
				}
			],
			"name": "members",
			"outputs": [
				{
					"internalType": "string",
					"name": "name",
					"type": "string"
				},
				{
					"internalType": "uint256",
					"name": "level",
					"type": "uint256"
				},
				{
					"internalType": "string",
					"name": "className",
					"type": "string"
				}
			],
			"stateMutability": "view",
			"type": "function"
		},
		{
			"inputs": [
				{
					"internalType": "uint256",
					"name": "",
					"type": "uint256"
				}
			],
			"name": "membersList",
			"outputs": [
				{
					"internalType": "address",
					"name": "",
					"type": "address"
				}
			],
			"stateMutability": "view",
			"type": "function"
		}
	]
}